{
	"Staking.sol": {
		"Staking": {
			"abi": [
				{
					"inputs": [
						{
							"internalType": "address",
							"name": "_nlnt",
							"type": "address"
						}
					],
					"stateMutability": "nonpayable",
					"type": "constructor"
				},
				{
					"inputs": [
						{
							"internalType": "address",
							"name": "token",
							"type": "address"
						}
					],
					"name": "SafeERC20FailedOperation",
					"type": "error"
				},
				{
					"anonymous": false,
					"inputs": [
						{
							"indexed": true,
							"internalType": "address",
							"name": "admin",
							"type": "address"
						},
						{
							"indexed": false,
							"internalType": "uint256",
							"name": "amount",
							"type": "uint256"
						}
					],
					"name": "EmergencyWithdraw",
					"type": "event"
				},
				{
					"anonymous": false,
					"inputs": [
						{
							"indexed": true,
							"internalType": "address",
							"name": "user",
							"type": "address"
						},
						{
							"indexed": false,
							"internalType": "uint256",
							"name": "amount",
							"type": "uint256"
						}
					],
					"name": "LevelIncomeClaimed",
					"type": "event"
				},
				{
					"anonymous": false,
					"inputs": [
						{
							"indexed": true,
							"internalType": "address",
							"name": "user",
							"type": "address"
						},
						{
							"indexed": false,
							"internalType": "uint256",
							"name": "amount",
							"type": "uint256"
						}
					],
					"name": "ReferralRewardClaimed",
					"type": "event"
				},
				{
					"anonymous": false,
					"inputs": [
						{
							"indexed": true,
							"internalType": "address",
							"name": "user",
							"type": "address"
						},
						{
							"indexed": false,
							"internalType": "uint256",
							"name": "amount",
							"type": "uint256"
						}
					],
					"name": "TokenLocked",
					"type": "event"
				},
				{
					"anonymous": false,
					"inputs": [
						{
							"indexed": true,
							"internalType": "address",
							"name": "user",
							"type": "address"
						},
						{
							"indexed": false,
							"internalType": "uint256",
							"name": "amount",
							"type": "uint256"
						}
					],
					"name": "TokensClaimed",
					"type": "event"
				},
				{
					"inputs": [],
					"name": "ReferralPercentage",
					"outputs": [
						{
							"internalType": "uint256",
							"name": "",
							"type": "uint256"
						}
					],
					"stateMutability": "view",
					"type": "function"
				},
				{
					"inputs": [],
					"name": "admin",
					"outputs": [
						{
							"internalType": "address",
							"name": "",
							"type": "address"
						}
					],
					"stateMutability": "view",
					"type": "function"
				},
				{
					"inputs": [
						{
							"internalType": "address",
							"name": "",
							"type": "address"
						},
						{
							"internalType": "uint256",
							"name": "",
							"type": "uint256"
						}
					],
					"name": "allStakeDetails",
					"outputs": [
						{
							"internalType": "uint256",
							"name": "nlntAmount",
							"type": "uint256"
						},
						{
							"internalType": "uint256",
							"name": "start",
							"type": "uint256"
						},
						{
							"internalType": "uint256",
							"name": "claimAmount",
							"type": "uint256"
						},
						{
							"internalType": "uint256",
							"name": "levelIncome",
							"type": "uint256"
						},
						{
							"internalType": "address",
							"name": "referral",
							"type": "address"
						}
					],
					"stateMutability": "view",
					"type": "function"
				},
				{
					"inputs": [],
					"name": "claimLevelIncome",
					"outputs": [],
					"stateMutability": "nonpayable",
					"type": "function"
				},
				{
					"inputs": [],
					"name": "claimReferralReward",
					"outputs": [],
					"stateMutability": "nonpayable",
					"type": "function"
				},
				{
					"inputs": [],
					"name": "claimTokens",
					"outputs": [],
					"stateMutability": "nonpayable",
					"type": "function"
				},
				{
					"inputs": [],
					"name": "cliff",
					"outputs": [
						{
							"internalType": "uint256",
							"name": "",
							"type": "uint256"
						}
					],
					"stateMutability": "view",
					"type": "function"
				},
				{
					"inputs": [
						{
							"internalType": "uint256",
							"name": "amount",
							"type": "uint256"
						}
					],
					"name": "emergencyWithdraw",
					"outputs": [],
					"stateMutability": "nonpayable",
					"type": "function"
				},
				{
					"inputs": [],
					"name": "globalLevel",
					"outputs": [
						{
							"internalType": "uint8",
							"name": "",
							"type": "uint8"
						}
					],
					"stateMutability": "view",
					"type": "function"
				},
				{
					"inputs": [
						{
							"internalType": "address",
							"name": "_refAddress",
							"type": "address"
						},
						{
							"internalType": "uint256",
							"name": "_nlntAmount",
							"type": "uint256"
						}
					],
					"name": "lockToken",
					"outputs": [],
					"stateMutability": "nonpayable",
					"type": "function"
				},
				{
					"inputs": [],
					"name": "maxAmount",
					"outputs": [
						{
							"internalType": "uint256",
							"name": "",
							"type": "uint256"
						}
					],
					"stateMutability": "view",
					"type": "function"
				},
				{
					"inputs": [],
					"name": "minAmount",
					"outputs": [
						{
							"internalType": "uint256",
							"name": "",
							"type": "uint256"
						}
					],
					"stateMutability": "view",
					"type": "function"
				},
				{
					"inputs": [],
					"name": "nlnt",
					"outputs": [
						{
							"internalType": "contract IERC20",
							"name": "",
							"type": "address"
						}
					],
					"stateMutability": "view",
					"type": "function"
				},
				{
					"inputs": [
						{
							"internalType": "address",
							"name": "",
							"type": "address"
						}
					],
					"name": "referralRewards",
					"outputs": [
						{
							"internalType": "uint256",
							"name": "",
							"type": "uint256"
						}
					],
					"stateMutability": "view",
					"type": "function"
				},
				{
					"inputs": [],
					"name": "totalDuration",
					"outputs": [
						{
							"internalType": "uint256",
							"name": "",
							"type": "uint256"
						}
					],
					"stateMutability": "view",
					"type": "function"
				}
			],
			"devdoc": {
				"errors": {
					"SafeERC20FailedOperation(address)": [
						{
							"details": "An operation with an ERC-20 token failed."
						}
					]
				},
				"kind": "dev",
				"methods": {},
				"version": 1
			},
			"evm": {
				"assembly": "    /* \"Staking.sol\":199:5063  contract Staking {... */\n  mstore(0x40, 0x80)\n    /* \"Staking.sol\":1227:1322  constructor(address _nlnt) {... */\n  callvalue\n  dup1\n  iszero\n  tag_1\n  jumpi\n  0x00\n  dup1\n  revert\ntag_1:\n  pop\n  mload(0x40)\n  sub(codesize, bytecodeSize)\n  dup1\n  bytecodeSize\n  dup4\n  codecopy\n  dup2\n  dup2\n  add\n  0x40\n  mstore\n  dup2\n  add\n  swap1\n  tag_2\n  swap2\n  swap1\n  tag_3\n  jump\t// in\ntag_2:\n    /* \"Staking.sol\":1279:1284  _nlnt */\n  dup1\n    /* \"Staking.sol\":1265:1269  nlnt */\n  0x00\n  dup1\n    /* \"Staking.sol\":1265:1285  nlnt = IERC20(_nlnt) */\n  0x0100\n  exp\n  dup2\n  sload\n  dup2\n  0xffffffffffffffffffffffffffffffffffffffff\n  mul\n  not\n  and\n  swap1\n  dup4\n  0xffffffffffffffffffffffffffffffffffffffff\n  and\n  mul\n  or\n  swap1\n  sstore\n  pop\n    /* \"Staking.sol\":1304:1314  msg.sender */\n  caller\n    /* \"Staking.sol\":1296:1301  admin */\n  0x01\n  0x00\n    /* \"Staking.sol\":1296:1314  admin = msg.sender */\n  0x0100\n  exp\n  dup2\n  sload\n  dup2\n  0xffffffffffffffffffffffffffffffffffffffff\n  mul\n  not\n  and\n  swap1\n  dup4\n  0xffffffffffffffffffffffffffffffffffffffff\n  and\n  mul\n  or\n  swap1\n  sstore\n  pop\n    /* \"Staking.sol\":1227:1322  constructor(address _nlnt) {... */\n  pop\n    /* \"Staking.sol\":199:5063  contract Staking {... */\n  jump(tag_6)\n    /* \"#utility.yul\":88:205   */\ntag_8:\n    /* \"#utility.yul\":197:198   */\n  0x00\n    /* \"#utility.yul\":194:195   */\n  dup1\n    /* \"#utility.yul\":187:199   */\n  revert\n    /* \"#utility.yul\":334:460   */\ntag_10:\n    /* \"#utility.yul\":371:378   */\n  0x00\n    /* \"#utility.yul\":411:453   */\n  0xffffffffffffffffffffffffffffffffffffffff\n    /* \"#utility.yul\":404:409   */\n  dup3\n    /* \"#utility.yul\":400:454   */\n  and\n    /* \"#utility.yul\":389:454   */\n  swap1\n  pop\n    /* \"#utility.yul\":334:460   */\n  swap2\n  swap1\n  pop\n  jump\t// out\n    /* \"#utility.yul\":466:562   */\ntag_11:\n    /* \"#utility.yul\":503:510   */\n  0x00\n    /* \"#utility.yul\":532:556   */\n  tag_20\n    /* \"#utility.yul\":550:555   */\n  dup3\n    /* \"#utility.yul\":532:556   */\n  tag_10\n  jump\t// in\ntag_20:\n    /* \"#utility.yul\":521:556   */\n  swap1\n  pop\n    /* \"#utility.yul\":466:562   */\n  swap2\n  swap1\n  pop\n  jump\t// out\n    /* \"#utility.yul\":568:690   */\ntag_12:\n    /* \"#utility.yul\":641:665   */\n  tag_22\n    /* \"#utility.yul\":659:664   */\n  dup2\n    /* \"#utility.yul\":641:665   */\n  tag_11\n  jump\t// in\ntag_22:\n    /* \"#utility.yul\":634:639   */\n  dup2\n    /* \"#utility.yul\":631:666   */\n  eq\n    /* \"#utility.yul\":621:684   */\n  tag_23\n  jumpi\n    /* \"#utility.yul\":680:681   */\n  0x00\n    /* \"#utility.yul\":677:678   */\n  dup1\n    /* \"#utility.yul\":670:682   */\n  revert\n    /* \"#utility.yul\":621:684   */\ntag_23:\n    /* \"#utility.yul\":568:690   */\n  pop\n  jump\t// out\n    /* \"#utility.yul\":696:839   */\ntag_13:\n    /* \"#utility.yul\":753:758   */\n  0x00\n    /* \"#utility.yul\":784:790   */\n  dup2\n    /* \"#utility.yul\":778:791   */\n  mload\n    /* \"#utility.yul\":769:791   */\n  swap1\n  pop\n    /* \"#utility.yul\":800:833   */\n  tag_25\n    /* \"#utility.yul\":827:832   */\n  dup2\n    /* \"#utility.yul\":800:833   */\n  tag_12\n  jump\t// in\ntag_25:\n    /* \"#utility.yul\":696:839   */\n  swap3\n  swap2\n  pop\n  pop\n  jump\t// out\n    /* \"#utility.yul\":845:1196   */\ntag_3:\n    /* \"#utility.yul\":915:921   */\n  0x00\n    /* \"#utility.yul\":964:966   */\n  0x20\n    /* \"#utility.yul\":952:961   */\n  dup3\n    /* \"#utility.yul\":943:950   */\n  dup5\n    /* \"#utility.yul\":939:962   */\n  sub\n    /* \"#utility.yul\":935:967   */\n  slt\n    /* \"#utility.yul\":932:1051   */\n  iszero\n  tag_27\n  jumpi\n    /* \"#utility.yul\":970:1049   */\n  tag_28\n  tag_8\n  jump\t// in\ntag_28:\n    /* \"#utility.yul\":932:1051   */\ntag_27:\n    /* \"#utility.yul\":1090:1091   */\n  0x00\n    /* \"#utility.yul\":1115:1179   */\n  tag_29\n    /* \"#utility.yul\":1171:1178   */\n  dup5\n    /* \"#utility.yul\":1162:1168   */\n  dup3\n    /* \"#utility.yul\":1151:1160   */\n  dup6\n    /* \"#utility.yul\":1147:1169   */\n  add\n    /* \"#utility.yul\":1115:1179   */\n  tag_13\n  jump\t// in\ntag_29:\n    /* \"#utility.yul\":1105:1179   */\n  swap2\n  pop\n    /* \"#utility.yul\":1061:1189   */\n  pop\n    /* \"#utility.yul\":845:1196   */\n  swap3\n  swap2\n  pop\n  pop\n  jump\t// out\n    /* \"Staking.sol\":199:5063  contract Staking {... */\ntag_6:\n  dataSize(sub_0)\n  dup1\n  dataOffset(sub_0)\n  0x00\n  codecopy\n  0x00\n  return\nstop\n\nsub_0: assembly {\n        /* \"Staking.sol\":199:5063  contract Staking {... */\n      mstore(0x40, 0x80)\n      callvalue\n      dup1\n      iszero\n      tag_1\n      jumpi\n      0x00\n      dup1\n      revert\n    tag_1:\n      pop\n      jumpi(tag_2, lt(calldatasize, 0x04))\n      shr(0xe0, calldataload(0x00))\n      dup1\n      0x60f43fd2\n      gt\n      tag_18\n      jumpi\n      dup1\n      0x9b4b2c9c\n      gt\n      tag_19\n      jumpi\n      dup1\n      0x9b4b2c9c\n      eq\n      tag_14\n      jumpi\n      dup1\n      0xaa03875e\n      eq\n      tag_15\n      jumpi\n      dup1\n      0xe1ba51fb\n      eq\n      tag_16\n      jumpi\n      dup1\n      0xf851a440\n      eq\n      tag_17\n      jumpi\n      jump(tag_2)\n    tag_19:\n      dup1\n      0x60f43fd2\n      eq\n      tag_10\n      jumpi\n      dup1\n      0x7e2bc224\n      eq\n      tag_11\n      jumpi\n      dup1\n      0x8af6c259\n      eq\n      tag_12\n      jumpi\n      dup1\n      0x9b2cb5d8\n      eq\n      tag_13\n      jumpi\n      jump(tag_2)\n    tag_18:\n      dup1\n      0x5312ea8e\n      gt\n      tag_20\n      jumpi\n      dup1\n      0x5312ea8e\n      eq\n      tag_6\n      jumpi\n      dup1\n      0x53aaa63b\n      eq\n      tag_7\n      jumpi\n      dup1\n      0x5e9d2f90\n      eq\n      tag_8\n      jumpi\n      dup1\n      0x5f48f393\n      eq\n      tag_9\n      jumpi\n      jump(tag_2)\n    tag_20:\n      dup1\n      0x13d033c0\n      eq\n      tag_3\n      jumpi\n      dup1\n      0x17be3fa5\n      eq\n      tag_4\n      jumpi\n      dup1\n      0x48c54b9d\n      eq\n      tag_5\n      jumpi\n    tag_2:\n      0x00\n      dup1\n      revert\n        /* \"Staking.sol\":312:351  uint256 public constant cliff = 60 days */\n    tag_3:\n      tag_21\n      tag_22\n      jump\t// in\n    tag_21:\n      mload(0x40)\n      tag_23\n      swap2\n      swap1\n      tag_24\n      jump\t// in\n    tag_23:\n      mload(0x40)\n      dup1\n      swap2\n      sub\n      swap1\n      return\n        /* \"Staking.sol\":1624:2631  function lockToken(address _refAddress, uint256 _nlntAmount) external {... */\n    tag_4:\n      tag_25\n      0x04\n      dup1\n      calldatasize\n      sub\n      dup2\n      add\n      swap1\n      tag_26\n      swap2\n      swap1\n      tag_27\n      jump\t// in\n    tag_26:\n      tag_28\n      jump\t// in\n    tag_25:\n      stop\n        /* \"Staking.sol\":2639:3732  function claimTokens() external {... */\n    tag_5:\n      tag_29\n      tag_30\n      jump\t// in\n    tag_29:\n      stop\n        /* \"Staking.sol\":1455:1616  function emergencyWithdraw(uint256 amount) external onlyAdmin {... */\n    tag_6:\n      tag_31\n      0x04\n      dup1\n      calldatasize\n      sub\n      dup2\n      add\n      swap1\n      tag_32\n      swap2\n      swap1\n      tag_33\n      jump\t// in\n    tag_32:\n      tag_34\n      jump\t// in\n    tag_31:\n      stop\n        /* \"Staking.sol\":1168:1218  mapping(address => uint256) public referralRewards */\n    tag_7:\n      tag_35\n      0x04\n      dup1\n      calldatasize\n      sub\n      dup2\n      add\n      swap1\n      tag_36\n      swap2\n      swap1\n      tag_37\n      jump\t// in\n    tag_36:\n      tag_38\n      jump\t// in\n    tag_35:\n      mload(0x40)\n      tag_39\n      swap2\n      swap1\n      tag_24\n      jump\t// in\n    tag_39:\n      mload(0x40)\n      dup1\n      swap2\n      sub\n      swap1\n      return\n        /* \"Staking.sol\":560:597  uint8 public constant globalLevel = 3 */\n    tag_8:\n      tag_40\n      tag_41\n      jump\t// in\n    tag_40:\n      mload(0x40)\n      tag_42\n      swap2\n      swap1\n      tag_43\n      jump\t// in\n    tag_42:\n      mload(0x40)\n      dup1\n      swap2\n      sub\n      swap1\n      return\n        /* \"Staking.sol\":413:454  uint256 public constant maxAmount = 10000 */\n    tag_9:\n      tag_44\n      tag_45\n      jump\t// in\n    tag_44:\n      mload(0x40)\n      tag_46\n      swap2\n      swap1\n      tag_24\n      jump\t// in\n    tag_46:\n      mload(0x40)\n      dup1\n      swap2\n      sub\n      swap1\n      return\n        /* \"Staking.sol\":4652:5060  function claimLevelIncome() external {... */\n    tag_10:\n      tag_47\n      tag_48\n      jump\t// in\n    tag_47:\n      stop\n        /* \"Staking.sol\":507:553  uint256 public constant ReferralPercentage = 5 */\n    tag_11:\n      tag_49\n      tag_50\n      jump\t// in\n    tag_49:\n      mload(0x40)\n      tag_51\n      swap2\n      swap1\n      tag_24\n      jump\t// in\n    tag_51:\n      mload(0x40)\n      dup1\n      swap2\n      sub\n      swap1\n      return\n        /* \"Staking.sol\":358:406  uint256 public constant totalDuration = 365 days */\n    tag_12:\n      tag_52\n      tag_53\n      jump\t// in\n    tag_52:\n      mload(0x40)\n      tag_54\n      swap2\n      swap1\n      tag_24\n      jump\t// in\n    tag_54:\n      mload(0x40)\n      dup1\n      swap2\n      sub\n      swap1\n      return\n        /* \"Staking.sol\":461:500  uint256 public constant minAmount = 100 */\n    tag_13:\n      tag_55\n      tag_56\n      jump\t// in\n    tag_55:\n      mload(0x40)\n      tag_57\n      swap2\n      swap1\n      tag_24\n      jump\t// in\n    tag_57:\n      mload(0x40)\n      dup1\n      swap2\n      sub\n      swap1\n      return\n        /* \"Staking.sol\":3740:4052  function claimReferralReward() external {... */\n    tag_14:\n      tag_58\n      tag_59\n      jump\t// in\n    tag_58:\n      stop\n        /* \"Staking.sol\":258:276  IERC20 public nlnt */\n    tag_15:\n      tag_60\n      tag_61\n      jump\t// in\n    tag_60:\n      mload(0x40)\n      tag_62\n      swap2\n      swap1\n      tag_63\n      jump\t// in\n    tag_62:\n      mload(0x40)\n      dup1\n      swap2\n      sub\n      swap1\n      return\n        /* \"Staking.sol\":1112:1161  mapping(address => Lock[]) public allStakeDetails */\n    tag_16:\n      tag_64\n      0x04\n      dup1\n      calldatasize\n      sub\n      dup2\n      add\n      swap1\n      tag_65\n      swap2\n      swap1\n      tag_27\n      jump\t// in\n    tag_65:\n      tag_66\n      jump\t// in\n    tag_64:\n      mload(0x40)\n      tag_67\n      swap6\n      swap5\n      swap4\n      swap3\n      swap2\n      swap1\n      tag_68\n      jump\t// in\n    tag_67:\n      mload(0x40)\n      dup1\n      swap2\n      sub\n      swap1\n      return\n        /* \"Staking.sol\":283:303  address public admin */\n    tag_17:\n      tag_69\n      tag_70\n      jump\t// in\n    tag_69:\n      mload(0x40)\n      tag_71\n      swap2\n      swap1\n      tag_72\n      jump\t// in\n    tag_71:\n      mload(0x40)\n      dup1\n      swap2\n      sub\n      swap1\n      return\n        /* \"Staking.sol\":312:351  uint256 public constant cliff = 60 days */\n    tag_22:\n        /* \"Staking.sol\":344:351  60 days */\n      0x4f1a00\n        /* \"Staking.sol\":312:351  uint256 public constant cliff = 60 days */\n      dup2\n      jump\t// out\n        /* \"Staking.sol\":1624:2631  function lockToken(address _refAddress, uint256 _nlntAmount) external {... */\n    tag_28:\n        /* \"Staking.sol\":497:500  100 */\n      0x64\n        /* \"Staking.sol\":1713:1724  _nlntAmount */\n      dup2\n        /* \"Staking.sol\":1713:1737  _nlntAmount >= minAmount */\n      lt\n      iszero\n        /* \"Staking.sol\":1713:1765  _nlntAmount >= minAmount && _nlntAmount <= maxAmount */\n      dup1\n      iszero\n      tag_74\n      jumpi\n      pop\n        /* \"Staking.sol\":449:454  10000 */\n      0x2710\n        /* \"Staking.sol\":1741:1752  _nlntAmount */\n      dup2\n        /* \"Staking.sol\":1741:1765  _nlntAmount <= maxAmount */\n      gt\n      iszero\n        /* \"Staking.sol\":1713:1765  _nlntAmount >= minAmount && _nlntAmount <= maxAmount */\n    tag_74:\n        /* \"Staking.sol\":1705:1795  require(_nlntAmount >= minAmount && _nlntAmount <= maxAmount, \"Stake amount out of range\") */\n      tag_75\n      jumpi\n      mload(0x40)\n      0x08c379a000000000000000000000000000000000000000000000000000000000\n      dup2\n      mstore\n      0x04\n      add\n      tag_76\n      swap1\n      tag_77\n      jump\t// in\n    tag_76:\n      mload(0x40)\n      dup1\n      swap2\n      sub\n      swap1\n      revert\n    tag_75:\n        /* \"Staking.sol\":1829:1839  msg.sender */\n      caller\n        /* \"Staking.sol\":1814:1839  _refAddress != msg.sender */\n      0xffffffffffffffffffffffffffffffffffffffff\n      and\n        /* \"Staking.sol\":1814:1825  _refAddress */\n      dup3\n        /* \"Staking.sol\":1814:1839  _refAddress != msg.sender */\n      0xffffffffffffffffffffffffffffffffffffffff\n      and\n      sub\n        /* \"Staking.sol\":1806:1869  require(_refAddress != msg.sender, \"Self referral not allowed\") */\n      tag_78\n      jumpi\n      mload(0x40)\n      0x08c379a000000000000000000000000000000000000000000000000000000000\n      dup2\n      mstore\n      0x04\n      add\n      tag_79\n      swap1\n      tag_80\n      jump\t// in\n    tag_79:\n      mload(0x40)\n      dup1\n      swap2\n      sub\n      swap1\n      revert\n    tag_78:\n        /* \"Staking.sol\":1919:1980  nlnt.safeTransferFrom(msg.sender, address(this), _nlntAmount) */\n      tag_81\n        /* \"Staking.sol\":1941:1951  msg.sender */\n      caller\n        /* \"Staking.sol\":1961:1965  this */\n      address\n        /* \"Staking.sol\":1968:1979  _nlntAmount */\n      dup4\n        /* \"Staking.sol\":1919:1923  nlnt */\n      0x00\n      dup1\n      sload\n      swap1\n      0x0100\n      exp\n      swap1\n      div\n      0xffffffffffffffffffffffffffffffffffffffff\n      and\n        /* \"Staking.sol\":1919:1940  nlnt.safeTransferFrom */\n      0xffffffffffffffffffffffffffffffffffffffff\n      and\n      tag_82\n      swap1\n        /* \"Staking.sol\":1919:1980  nlnt.safeTransferFrom(msg.sender, address(this), _nlntAmount) */\n      swap4\n      swap3\n      swap2\n      swap1\n      0xffffffff\n      and\n      jump\t// in\n    tag_81:\n        /* \"Staking.sol\":2048:2049  0 */\n      0x00\n        /* \"Staking.sol\":2025:2050  _refAddress != address(0) */\n      0xffffffffffffffffffffffffffffffffffffffff\n      and\n        /* \"Staking.sol\":2025:2036  _refAddress */\n      dup3\n        /* \"Staking.sol\":2025:2050  _refAddress != address(0) */\n      0xffffffffffffffffffffffffffffffffffffffff\n      and\n      eq\n        /* \"Staking.sol\":2021:2337  if (_refAddress != address(0)) {... */\n      tag_83\n      jumpi\n        /* \"Staking.sol\":2067:2090  Lock[] storage refLocks */\n      0x00\n        /* \"Staking.sol\":2093:2108  allStakeDetails */\n      0x02\n        /* \"Staking.sol\":2093:2121  allStakeDetails[_refAddress] */\n      0x00\n        /* \"Staking.sol\":2109:2120  _refAddress */\n      dup5\n        /* \"Staking.sol\":2093:2121  allStakeDetails[_refAddress] */\n      0xffffffffffffffffffffffffffffffffffffffff\n      and\n      0xffffffffffffffffffffffffffffffffffffffff\n      and\n      dup2\n      mstore\n      0x20\n      add\n      swap1\n      dup2\n      mstore\n      0x20\n      add\n      0x00\n      keccak256\n        /* \"Staking.sol\":2067:2121  Lock[] storage refLocks = allStakeDetails[_refAddress] */\n      swap1\n      pop\n        /* \"Staking.sol\":2158:2159  0 */\n      0x00\n        /* \"Staking.sol\":2140:2148  refLocks */\n      dup2\n        /* \"Staking.sol\":2140:2155  refLocks.length */\n      dup1\n      sload\n      swap1\n      pop\n        /* \"Staking.sol\":2140:2159  refLocks.length > 0 */\n      gt\n        /* \"Staking.sol\":2136:2326  if (refLocks.length > 0) {... */\n      iszero\n      tag_84\n      jumpi\n        /* \"Staking.sol\":2180:2202  uint256 referralReward */\n      0x00\n        /* \"Staking.sol\":2242:2245  100 */\n      0x64\n        /* \"Staking.sol\":552:553  5 */\n      0x05\n        /* \"Staking.sol\":2206:2217  _nlntAmount */\n      dup5\n        /* \"Staking.sol\":2206:2238  _nlntAmount * ReferralPercentage */\n      tag_85\n      swap2\n      swap1\n      tag_86\n      jump\t// in\n    tag_85:\n        /* \"Staking.sol\":2205:2245  (_nlntAmount * ReferralPercentage) / 100 */\n      tag_87\n      swap2\n      swap1\n      tag_88\n      jump\t// in\n    tag_87:\n        /* \"Staking.sol\":2180:2245  uint256 referralReward = (_nlntAmount * ReferralPercentage) / 100 */\n      swap1\n      pop\n        /* \"Staking.sol\":2296:2310  referralReward */\n      dup1\n        /* \"Staking.sol\":2264:2279  referralRewards */\n      0x03\n        /* \"Staking.sol\":2264:2292  referralRewards[_refAddress] */\n      0x00\n        /* \"Staking.sol\":2280:2291  _refAddress */\n      dup7\n        /* \"Staking.sol\":2264:2292  referralRewards[_refAddress] */\n      0xffffffffffffffffffffffffffffffffffffffff\n      and\n      0xffffffffffffffffffffffffffffffffffffffff\n      and\n      dup2\n      mstore\n      0x20\n      add\n      swap1\n      dup2\n      mstore\n      0x20\n      add\n      0x00\n      keccak256\n      0x00\n        /* \"Staking.sol\":2264:2310  referralRewards[_refAddress] += referralReward */\n      dup3\n      dup3\n      sload\n      tag_89\n      swap2\n      swap1\n      tag_90\n      jump\t// in\n    tag_89:\n      swap3\n      pop\n      pop\n      dup2\n      swap1\n      sstore\n      pop\n        /* \"Staking.sol\":2161:2326  {... */\n      pop\n        /* \"Staking.sol\":2136:2326  if (refLocks.length > 0) {... */\n    tag_84:\n        /* \"Staking.sol\":2052:2337  {... */\n      pop\n        /* \"Staking.sol\":2021:2337  if (_refAddress != address(0)) {... */\n    tag_83:\n        /* \"Staking.sol\":2349:2364  allStakeDetails */\n      0x02\n        /* \"Staking.sol\":2349:2376  allStakeDetails[msg.sender] */\n      0x00\n        /* \"Staking.sol\":2365:2375  msg.sender */\n      caller\n        /* \"Staking.sol\":2349:2376  allStakeDetails[msg.sender] */\n      0xffffffffffffffffffffffffffffffffffffffff\n      and\n      0xffffffffffffffffffffffffffffffffffffffff\n      and\n      dup2\n      mstore\n      0x20\n      add\n      swap1\n      dup2\n      mstore\n      0x20\n      add\n      0x00\n      keccak256\n        /* \"Staking.sol\":2382:2568  Lock({... */\n      mload(0x40)\n      dup1\n      0xa0\n      add\n      0x40\n      mstore\n      dup1\n        /* \"Staking.sol\":2414:2425  _nlntAmount */\n      dup4\n        /* \"Staking.sol\":2382:2568  Lock({... */\n      dup2\n      mstore\n      0x20\n      add\n        /* \"Staking.sol\":2447:2462  block.timestamp */\n      timestamp\n        /* \"Staking.sol\":2382:2568  Lock({... */\n      dup2\n      mstore\n      0x20\n      add\n        /* \"Staking.sol\":2490:2491  0 */\n      0x00\n        /* \"Staking.sol\":2382:2568  Lock({... */\n      dup2\n      mstore\n      0x20\n      add\n        /* \"Staking.sol\":2519:2520  0 */\n      0x00\n        /* \"Staking.sol\":2382:2568  Lock({... */\n      dup2\n      mstore\n      0x20\n      add\n        /* \"Staking.sol\":2545:2556  _refAddress */\n      dup5\n        /* \"Staking.sol\":2382:2568  Lock({... */\n      0xffffffffffffffffffffffffffffffffffffffff\n      and\n      dup2\n      mstore\n      pop\n        /* \"Staking.sol\":2349:2569  allStakeDetails[msg.sender].push(Lock({... */\n      swap1\n      dup1\n      0x01\n      dup2\n      sload\n      add\n      dup1\n      dup3\n      sstore\n      dup1\n      swap2\n      pop\n      pop\n      0x01\n      swap1\n      sub\n      swap1\n      0x00\n      mstore\n      keccak256(0x00, 0x20)\n      swap1\n      0x05\n      mul\n      add\n      0x00\n      swap1\n      swap2\n      swap1\n      swap2\n      swap1\n      swap2\n      pop\n      0x00\n      dup3\n      add\n      mload\n      dup2\n      0x00\n      add\n      sstore\n      0x20\n      dup3\n      add\n      mload\n      dup2\n      0x01\n      add\n      sstore\n      0x40\n      dup3\n      add\n      mload\n      dup2\n      0x02\n      add\n      sstore\n      0x60\n      dup3\n      add\n      mload\n      dup2\n      0x03\n      add\n      sstore\n      0x80\n      dup3\n      add\n      mload\n      dup2\n      0x04\n      add\n      exp(0x0100, 0x00)\n      dup2\n      sload\n      dup2\n      0xffffffffffffffffffffffffffffffffffffffff\n      mul\n      not\n      and\n      swap1\n      dup4\n      0xffffffffffffffffffffffffffffffffffffffff\n      and\n      mul\n      or\n      swap1\n      sstore\n      pop\n      pop\n      pop\n        /* \"Staking.sol\":2599:2609  msg.sender */\n      caller\n        /* \"Staking.sol\":2587:2623  TokenLocked(msg.sender, _nlntAmount) */\n      0xffffffffffffffffffffffffffffffffffffffff\n      and\n      0xf9626bca62c59d77fa45a204dc096874ee066a5c5e124aa9ce6c438dbdf7387a\n        /* \"Staking.sol\":2611:2622  _nlntAmount */\n      dup3\n        /* \"Staking.sol\":2587:2623  TokenLocked(msg.sender, _nlntAmount) */\n      mload(0x40)\n      tag_92\n      swap2\n      swap1\n      tag_24\n      jump\t// in\n    tag_92:\n      mload(0x40)\n      dup1\n      swap2\n      sub\n      swap1\n      log2\n        /* \"Staking.sol\":1624:2631  function lockToken(address _refAddress, uint256 _nlntAmount) external {... */\n      pop\n      pop\n      jump\t// out\n        /* \"Staking.sol\":2639:3732  function claimTokens() external {... */\n    tag_30:\n        /* \"Staking.sol\":2682:2702  Lock[] storage locks */\n      0x00\n        /* \"Staking.sol\":2705:2720  allStakeDetails */\n      0x02\n        /* \"Staking.sol\":2705:2732  allStakeDetails[msg.sender] */\n      0x00\n        /* \"Staking.sol\":2721:2731  msg.sender */\n      caller\n        /* \"Staking.sol\":2705:2732  allStakeDetails[msg.sender] */\n      0xffffffffffffffffffffffffffffffffffffffff\n      and\n      0xffffffffffffffffffffffffffffffffffffffff\n      and\n      dup2\n      mstore\n      0x20\n      add\n      swap1\n      dup2\n      mstore\n      0x20\n      add\n      0x00\n      keccak256\n        /* \"Staking.sol\":2682:2732  Lock[] storage locks = allStakeDetails[msg.sender] */\n      swap1\n      pop\n        /* \"Staking.sol\":2743:2765  uint256 totalClaimable */\n      0x00\n        /* \"Staking.sol\":2783:2789  uint i */\n      dup1\n        /* \"Staking.sol\":2792:2793  0 */\n      0x00\n        /* \"Staking.sol\":2783:2793  uint i = 0 */\n      swap1\n      pop\n        /* \"Staking.sol\":2778:3540  for (uint i = 0; i < locks.length; i++) {... */\n    tag_94:\n        /* \"Staking.sol\":2799:2804  locks */\n      dup3\n        /* \"Staking.sol\":2799:2811  locks.length */\n      dup1\n      sload\n      swap1\n      pop\n        /* \"Staking.sol\":2795:2796  i */\n      dup2\n        /* \"Staking.sol\":2795:2811  i < locks.length */\n      lt\n        /* \"Staking.sol\":2778:3540  for (uint i = 0; i < locks.length; i++) {... */\n      iszero\n      tag_95\n      jumpi\n        /* \"Staking.sol\":2833:2847  Lock storage l */\n      0x00\n        /* \"Staking.sol\":2850:2855  locks */\n      dup4\n        /* \"Staking.sol\":2856:2857  i */\n      dup3\n        /* \"Staking.sol\":2850:2858  locks[i] */\n      dup2\n      sload\n      dup2\n      lt\n      tag_97\n      jumpi\n      tag_98\n      tag_99\n      jump\t// in\n    tag_98:\n    tag_97:\n      swap1\n      0x00\n      mstore\n      keccak256(0x00, 0x20)\n      swap1\n      0x05\n      mul\n      add\n        /* \"Staking.sol\":2833:2858  Lock storage l = locks[i] */\n      swap1\n      pop\n        /* \"Staking.sol\":344:351  60 days */\n      0x4f1a00\n        /* \"Staking.sol\":2895:2896  l */\n      dup2\n        /* \"Staking.sol\":2895:2902  l.start */\n      0x01\n      add\n      sload\n        /* \"Staking.sol\":2895:2910  l.start + cliff */\n      tag_101\n      swap2\n      swap1\n      tag_90\n      jump\t// in\n    tag_101:\n        /* \"Staking.sol\":2877:2892  block.timestamp */\n      timestamp\n        /* \"Staking.sol\":2877:2910  block.timestamp < l.start + cliff */\n      lt\n        /* \"Staking.sol\":2873:2920  if (block.timestamp < l.start + cliff) continue */\n      iszero\n      tag_102\n      jumpi\n        /* \"Staking.sol\":2912:2920  continue */\n      pop\n      jump(tag_96)\n        /* \"Staking.sol\":2873:2920  if (block.timestamp < l.start + cliff) continue */\n    tag_102:\n        /* \"Staking.sol\":2937:2955  uint256 timePassed */\n      0x00\n        /* \"Staking.sol\":2976:2977  l */\n      dup2\n        /* \"Staking.sol\":2976:2983  l.start */\n      0x01\n      add\n      sload\n        /* \"Staking.sol\":2958:2973  block.timestamp */\n      timestamp\n        /* \"Staking.sol\":2958:2983  block.timestamp - l.start */\n      tag_103\n      swap2\n      swap1\n      tag_104\n      jump\t// in\n    tag_103:\n        /* \"Staking.sol\":2937:2983  uint256 timePassed = block.timestamp - l.start */\n      swap1\n      pop\n        /* \"Staking.sol\":398:406  365 days */\n      0x01e13380\n        /* \"Staking.sol\":3002:3012  timePassed */\n      dup2\n        /* \"Staking.sol\":3002:3028  timePassed > totalDuration */\n      gt\n        /* \"Staking.sol\":2998:3056  if (timePassed > totalDuration) timePassed = totalDuration */\n      iszero\n      tag_105\n      jumpi\n        /* \"Staking.sol\":398:406  365 days */\n      0x01e13380\n        /* \"Staking.sol\":3030:3056  timePassed = totalDuration */\n      swap1\n      pop\n        /* \"Staking.sol\":2998:3056  if (timePassed > totalDuration) timePassed = totalDuration */\n    tag_105:\n        /* \"Staking.sol\":3073:3092  uint256 vestingTime */\n      0x00\n        /* \"Staking.sol\":344:351  60 days */\n      0x4f1a00\n        /* \"Staking.sol\":3095:3105  timePassed */\n      dup3\n        /* \"Staking.sol\":3095:3113  timePassed - cliff */\n      tag_106\n      swap2\n      swap1\n      tag_104\n      jump\t// in\n    tag_106:\n        /* \"Staking.sol\":3073:3113  uint256 vestingTime = timePassed - cliff */\n      swap1\n      pop\n        /* \"Staking.sol\":3128:3147  uint256 monthPassed */\n      0x00\n        /* \"Staking.sol\":3164:3171  30 days */\n      0x278d00\n        /* \"Staking.sol\":3150:3161  vestingTime */\n      dup3\n        /* \"Staking.sol\":3150:3171  vestingTime / 30 days */\n      tag_107\n      swap2\n      swap1\n      tag_88\n      jump\t// in\n    tag_107:\n        /* \"Staking.sol\":3128:3171  uint256 monthPassed = vestingTime / 30 days */\n      swap1\n      pop\n        /* \"Staking.sol\":3186:3205  uint256 totalVested */\n      0x00\n        /* \"Staking.sol\":3244:3247  100 */\n      0x64\n        /* \"Staking.sol\":3229:3240  monthPassed */\n      dup3\n        /* \"Staking.sol\":3224:3226  10 */\n      0x0a\n        /* \"Staking.sol\":3209:3210  l */\n      dup8\n        /* \"Staking.sol\":3209:3221  l.nlntAmount */\n      0x00\n      add\n      sload\n        /* \"Staking.sol\":3209:3226  l.nlntAmount * 10 */\n      tag_108\n      swap2\n      swap1\n      tag_86\n      jump\t// in\n    tag_108:\n        /* \"Staking.sol\":3209:3240  l.nlntAmount * 10 * monthPassed */\n      tag_109\n      swap2\n      swap1\n      tag_86\n      jump\t// in\n    tag_109:\n        /* \"Staking.sol\":3208:3247  (l.nlntAmount * 10 * monthPassed) / 100 */\n      tag_110\n      swap2\n      swap1\n      tag_88\n      jump\t// in\n    tag_110:\n        /* \"Staking.sol\":3186:3247  uint256 totalVested = (l.nlntAmount * 10 * monthPassed) / 100 */\n      swap1\n      pop\n        /* \"Staking.sol\":3282:3283  l */\n      dup5\n        /* \"Staking.sol\":3282:3295  l.claimAmount */\n      0x02\n      add\n      sload\n        /* \"Staking.sol\":3268:3279  totalVested */\n      dup2\n        /* \"Staking.sol\":3268:3295  totalVested > l.claimAmount */\n      gt\n        /* \"Staking.sol\":3264:3529  if (totalVested > l.claimAmount) {... */\n      iszero\n      tag_111\n      jumpi\n        /* \"Staking.sol\":3316:3333  uint256 claimable */\n      0x00\n        /* \"Staking.sol\":3350:3351  l */\n      dup6\n        /* \"Staking.sol\":3350:3363  l.claimAmount */\n      0x02\n      add\n      sload\n        /* \"Staking.sol\":3336:3347  totalVested */\n      dup3\n        /* \"Staking.sol\":3336:3363  totalVested - l.claimAmount */\n      tag_112\n      swap2\n      swap1\n      tag_104\n      jump\t// in\n    tag_112:\n        /* \"Staking.sol\":3316:3363  uint256 claimable = totalVested - l.claimAmount */\n      swap1\n      pop\n        /* \"Staking.sol\":3399:3408  claimable */\n      dup1\n        /* \"Staking.sol\":3382:3383  l */\n      dup7\n        /* \"Staking.sol\":3382:3395  l.claimAmount */\n      0x02\n      add\n      0x00\n        /* \"Staking.sol\":3382:3408  l.claimAmount += claimable */\n      dup3\n      dup3\n      sload\n      tag_113\n      swap2\n      swap1\n      tag_90\n      jump\t// in\n    tag_113:\n      swap3\n      pop\n      pop\n      dup2\n      swap1\n      sstore\n      pop\n        /* \"Staking.sol\":3445:3454  claimable */\n      dup1\n        /* \"Staking.sol\":3427:3454  totalClaimable += claimable */\n      dup9\n      tag_114\n      swap2\n      swap1\n      tag_90\n      jump\t// in\n    tag_114:\n      swap8\n      pop\n        /* \"Staking.sol\":3475:3513  distributeLevel(l.referral, claimable) */\n      tag_115\n        /* \"Staking.sol\":3491:3492  l */\n      dup7\n        /* \"Staking.sol\":3491:3501  l.referral */\n      0x04\n      add\n      0x00\n      swap1\n      sload\n      swap1\n      0x0100\n      exp\n      swap1\n      div\n      0xffffffffffffffffffffffffffffffffffffffff\n      and\n        /* \"Staking.sol\":3503:3512  claimable */\n      dup3\n        /* \"Staking.sol\":3475:3490  distributeLevel */\n      tag_116\n        /* \"Staking.sol\":3475:3513  distributeLevel(l.referral, claimable) */\n      jump\t// in\n    tag_115:\n        /* \"Staking.sol\":3297:3529  {... */\n      pop\n        /* \"Staking.sol\":3264:3529  if (totalVested > l.claimAmount) {... */\n    tag_111:\n        /* \"Staking.sol\":2818:3540  {... */\n      pop\n      pop\n      pop\n      pop\n      pop\n        /* \"Staking.sol\":2778:3540  for (uint i = 0; i < locks.length; i++) {... */\n    tag_96:\n        /* \"Staking.sol\":2813:2816  i++ */\n      dup1\n      dup1\n      0x01\n      add\n      swap2\n      pop\n      pop\n        /* \"Staking.sol\":2778:3540  for (uint i = 0; i < locks.length; i++) {... */\n      jump(tag_94)\n    tag_95:\n      pop\n        /* \"Staking.sol\":3577:3578  0 */\n      0x00\n        /* \"Staking.sol\":3560:3574  totalClaimable */\n      dup2\n        /* \"Staking.sol\":3560:3578  totalClaimable > 0 */\n      gt\n        /* \"Staking.sol\":3552:3611  require(totalClaimable > 0, \"No tokens available to claim\") */\n      tag_117\n      jumpi\n      mload(0x40)\n      0x08c379a000000000000000000000000000000000000000000000000000000000\n      dup2\n      mstore\n      0x04\n      add\n      tag_118\n      swap1\n      tag_119\n      jump\t// in\n    tag_118:\n      mload(0x40)\n      dup1\n      swap2\n      sub\n      swap1\n      revert\n    tag_117:\n        /* \"Staking.sol\":3622:3667  nlnt.safeTransfer(msg.sender, totalClaimable) */\n      tag_120\n        /* \"Staking.sol\":3640:3650  msg.sender */\n      caller\n        /* \"Staking.sol\":3652:3666  totalClaimable */\n      dup3\n        /* \"Staking.sol\":3622:3626  nlnt */\n      0x00\n      dup1\n      sload\n      swap1\n      0x0100\n      exp\n      swap1\n      div\n      0xffffffffffffffffffffffffffffffffffffffff\n      and\n        /* \"Staking.sol\":3622:3639  nlnt.safeTransfer */\n      0xffffffffffffffffffffffffffffffffffffffff\n      and\n      tag_121\n      swap1\n        /* \"Staking.sol\":3622:3667  nlnt.safeTransfer(msg.sender, totalClaimable) */\n      swap3\n      swap2\n      swap1\n      0xffffffff\n      and\n      jump\t// in\n    tag_120:\n        /* \"Staking.sol\":3697:3707  msg.sender */\n      caller\n        /* \"Staking.sol\":3683:3724  TokensClaimed(msg.sender, totalClaimable) */\n      0xffffffffffffffffffffffffffffffffffffffff\n      and\n      0x896e034966eaaf1adc54acc0f257056febbd300c9e47182cf761982cf1f5e430\n        /* \"Staking.sol\":3709:3723  totalClaimable */\n      dup3\n        /* \"Staking.sol\":3683:3724  TokensClaimed(msg.sender, totalClaimable) */\n      mload(0x40)\n      tag_122\n      swap2\n      swap1\n      tag_24\n      jump\t// in\n    tag_122:\n      mload(0x40)\n      dup1\n      swap2\n      sub\n      swap1\n      log2\n        /* \"Staking.sol\":2671:3732  {... */\n      pop\n      pop\n        /* \"Staking.sol\":2639:3732  function claimTokens() external {... */\n      jump\t// out\n        /* \"Staking.sol\":1455:1616  function emergencyWithdraw(uint256 amount) external onlyAdmin {... */\n    tag_34:\n        /* \"Staking.sol\":1384:1389  admin */\n      0x01\n      0x00\n      swap1\n      sload\n      swap1\n      0x0100\n      exp\n      swap1\n      div\n      0xffffffffffffffffffffffffffffffffffffffff\n      and\n        /* \"Staking.sol\":1370:1389  msg.sender == admin */\n      0xffffffffffffffffffffffffffffffffffffffff\n      and\n        /* \"Staking.sol\":1370:1380  msg.sender */\n      caller\n        /* \"Staking.sol\":1370:1389  msg.sender == admin */\n      0xffffffffffffffffffffffffffffffffffffffff\n      and\n      eq\n        /* \"Staking.sol\":1362:1427  require(msg.sender == admin, \"Only admin can call this function\") */\n      tag_124\n      jumpi\n      mload(0x40)\n      0x08c379a000000000000000000000000000000000000000000000000000000000\n      dup2\n      mstore\n      0x04\n      add\n      tag_125\n      swap1\n      tag_126\n      jump\t// in\n    tag_125:\n      mload(0x40)\n      dup1\n      swap2\n      sub\n      swap1\n      revert\n    tag_124:\n        /* \"Staking.sol\":1528:1560  nlnt.safeTransfer(admin, amount) */\n      tag_128\n        /* \"Staking.sol\":1546:1551  admin */\n      0x01\n      0x00\n      swap1\n      sload\n      swap1\n      0x0100\n      exp\n      swap1\n      div\n      0xffffffffffffffffffffffffffffffffffffffff\n      and\n        /* \"Staking.sol\":1553:1559  amount */\n      dup3\n        /* \"Staking.sol\":1528:1532  nlnt */\n      0x00\n      dup1\n      sload\n      swap1\n      0x0100\n      exp\n      swap1\n      div\n      0xffffffffffffffffffffffffffffffffffffffff\n      and\n        /* \"Staking.sol\":1528:1545  nlnt.safeTransfer */\n      0xffffffffffffffffffffffffffffffffffffffff\n      and\n      tag_121\n      swap1\n        /* \"Staking.sol\":1528:1560  nlnt.safeTransfer(admin, amount) */\n      swap3\n      swap2\n      swap1\n      0xffffffff\n      and\n      jump\t// in\n    tag_128:\n        /* \"Staking.sol\":1594:1599  admin */\n      0x01\n      0x00\n      swap1\n      sload\n      swap1\n      0x0100\n      exp\n      swap1\n      div\n      0xffffffffffffffffffffffffffffffffffffffff\n      and\n        /* \"Staking.sol\":1576:1608  EmergencyWithdraw(admin, amount) */\n      0xffffffffffffffffffffffffffffffffffffffff\n      and\n      0x5fafa99d0643513820be26656b45130b01e1c03062e1266bf36f88cbd3bd9695\n        /* \"Staking.sol\":1601:1607  amount */\n      dup3\n        /* \"Staking.sol\":1576:1608  EmergencyWithdraw(admin, amount) */\n      mload(0x40)\n      tag_129\n      swap2\n      swap1\n      tag_24\n      jump\t// in\n    tag_129:\n      mload(0x40)\n      dup1\n      swap2\n      sub\n      swap1\n      log2\n        /* \"Staking.sol\":1455:1616  function emergencyWithdraw(uint256 amount) external onlyAdmin {... */\n      pop\n      jump\t// out\n        /* \"Staking.sol\":1168:1218  mapping(address => uint256) public referralRewards */\n    tag_38:\n      mstore(0x20, 0x03)\n      dup1\n      0x00\n      mstore\n      keccak256(0x00, 0x40)\n      0x00\n      swap2\n      pop\n      swap1\n      pop\n      sload\n      dup2\n      jump\t// out\n        /* \"Staking.sol\":560:597  uint8 public constant globalLevel = 3 */\n    tag_41:\n        /* \"Staking.sol\":596:597  3 */\n      0x03\n        /* \"Staking.sol\":560:597  uint8 public constant globalLevel = 3 */\n      dup2\n      jump\t// out\n        /* \"Staking.sol\":413:454  uint256 public constant maxAmount = 10000 */\n    tag_45:\n        /* \"Staking.sol\":449:454  10000 */\n      0x2710\n        /* \"Staking.sol\":413:454  uint256 public constant maxAmount = 10000 */\n      dup2\n      jump\t// out\n        /* \"Staking.sol\":4652:5060  function claimLevelIncome() external {... */\n    tag_48:\n        /* \"Staking.sol\":4700:4720  Lock[] storage locks */\n      0x00\n        /* \"Staking.sol\":4723:4738  allStakeDetails */\n      0x02\n        /* \"Staking.sol\":4723:4750  allStakeDetails[msg.sender] */\n      0x00\n        /* \"Staking.sol\":4739:4749  msg.sender */\n      caller\n        /* \"Staking.sol\":4723:4750  allStakeDetails[msg.sender] */\n      0xffffffffffffffffffffffffffffffffffffffff\n      and\n      0xffffffffffffffffffffffffffffffffffffffff\n      and\n      dup2\n      mstore\n      0x20\n      add\n      swap1\n      dup2\n      mstore\n      0x20\n      add\n      0x00\n      keccak256\n        /* \"Staking.sol\":4700:4750  Lock[] storage locks = allStakeDetails[msg.sender] */\n      swap1\n      pop\n        /* \"Staking.sol\":4784:4785  0 */\n      0x00\n        /* \"Staking.sol\":4769:4774  locks */\n      dup2\n        /* \"Staking.sol\":4769:4781  locks.length */\n      dup1\n      sload\n      swap1\n      pop\n        /* \"Staking.sol\":4769:4785  locks.length > 0 */\n      gt\n        /* \"Staking.sol\":4761:4805  require(locks.length > 0, \"No stakes found\") */\n      tag_131\n      jumpi\n      mload(0x40)\n      0x08c379a000000000000000000000000000000000000000000000000000000000\n      dup2\n      mstore\n      0x04\n      add\n      tag_132\n      swap1\n      tag_133\n      jump\t// in\n    tag_132:\n      mload(0x40)\n      dup1\n      swap2\n      sub\n      swap1\n      revert\n    tag_131:\n        /* \"Staking.sol\":4818:4832  uint256 income */\n      0x00\n        /* \"Staking.sol\":4835:4840  locks */\n      dup2\n        /* \"Staking.sol\":4841:4842  0 */\n      0x00\n        /* \"Staking.sol\":4835:4843  locks[0] */\n      dup2\n      sload\n      dup2\n      lt\n      tag_134\n      jumpi\n      tag_135\n      tag_99\n      jump\t// in\n    tag_135:\n    tag_134:\n      swap1\n      0x00\n      mstore\n      keccak256(0x00, 0x20)\n      swap1\n      0x05\n      mul\n      add\n        /* \"Staking.sol\":4835:4855  locks[0].levelIncome */\n      0x03\n      add\n      sload\n        /* \"Staking.sol\":4818:4855  uint256 income = locks[0].levelIncome */\n      swap1\n      pop\n        /* \"Staking.sol\":4883:4884  0 */\n      0x00\n        /* \"Staking.sol\":4874:4880  income */\n      dup2\n        /* \"Staking.sol\":4874:4884  income > 0 */\n      gt\n        /* \"Staking.sol\":4866:4913  require(income > 0, \"No level income to claim\") */\n      tag_137\n      jumpi\n      mload(0x40)\n      0x08c379a000000000000000000000000000000000000000000000000000000000\n      dup2\n      mstore\n      0x04\n      add\n      tag_138\n      swap1\n      tag_139\n      jump\t// in\n    tag_138:\n      mload(0x40)\n      dup1\n      swap2\n      sub\n      swap1\n      revert\n    tag_137:\n        /* \"Staking.sol\":4949:4950  0 */\n      0x00\n        /* \"Staking.sol\":4926:4931  locks */\n      dup3\n        /* \"Staking.sol\":4932:4933  0 */\n      0x00\n        /* \"Staking.sol\":4926:4934  locks[0] */\n      dup2\n      sload\n      dup2\n      lt\n      tag_140\n      jumpi\n      tag_141\n      tag_99\n      jump\t// in\n    tag_141:\n    tag_140:\n      swap1\n      0x00\n      mstore\n      keccak256(0x00, 0x20)\n      swap1\n      0x05\n      mul\n      add\n        /* \"Staking.sol\":4926:4946  locks[0].levelIncome */\n      0x03\n      add\n        /* \"Staking.sol\":4926:4950  locks[0].levelIncome = 0 */\n      dup2\n      swap1\n      sstore\n      pop\n        /* \"Staking.sol\":4961:4998  nlnt.safeTransfer(msg.sender, income) */\n      tag_143\n        /* \"Staking.sol\":4979:4989  msg.sender */\n      caller\n        /* \"Staking.sol\":4991:4997  income */\n      dup3\n        /* \"Staking.sol\":4961:4965  nlnt */\n      0x00\n      dup1\n      sload\n      swap1\n      0x0100\n      exp\n      swap1\n      div\n      0xffffffffffffffffffffffffffffffffffffffff\n      and\n        /* \"Staking.sol\":4961:4978  nlnt.safeTransfer */\n      0xffffffffffffffffffffffffffffffffffffffff\n      and\n      tag_121\n      swap1\n        /* \"Staking.sol\":4961:4998  nlnt.safeTransfer(msg.sender, income) */\n      swap3\n      swap2\n      swap1\n      0xffffffff\n      and\n      jump\t// in\n    tag_143:\n        /* \"Staking.sol\":5033:5043  msg.sender */\n      caller\n        /* \"Staking.sol\":5014:5052  LevelIncomeClaimed(msg.sender, income) */\n      0xffffffffffffffffffffffffffffffffffffffff\n      and\n      0x8830fd27a530b5f90e62adf0b2d34e36b25aa4f956359df6db4bcdec067f75b1\n        /* \"Staking.sol\":5045:5051  income */\n      dup3\n        /* \"Staking.sol\":5014:5052  LevelIncomeClaimed(msg.sender, income) */\n      mload(0x40)\n      tag_144\n      swap2\n      swap1\n      tag_24\n      jump\t// in\n    tag_144:\n      mload(0x40)\n      dup1\n      swap2\n      sub\n      swap1\n      log2\n        /* \"Staking.sol\":4689:5060  {... */\n      pop\n      pop\n        /* \"Staking.sol\":4652:5060  function claimLevelIncome() external {... */\n      jump\t// out\n        /* \"Staking.sol\":507:553  uint256 public constant ReferralPercentage = 5 */\n    tag_50:\n        /* \"Staking.sol\":552:553  5 */\n      0x05\n        /* \"Staking.sol\":507:553  uint256 public constant ReferralPercentage = 5 */\n      dup2\n      jump\t// out\n        /* \"Staking.sol\":358:406  uint256 public constant totalDuration = 365 days */\n    tag_53:\n        /* \"Staking.sol\":398:406  365 days */\n      0x01e13380\n        /* \"Staking.sol\":358:406  uint256 public constant totalDuration = 365 days */\n      dup2\n      jump\t// out\n        /* \"Staking.sol\":461:500  uint256 public constant minAmount = 100 */\n    tag_56:\n        /* \"Staking.sol\":497:500  100 */\n      0x64\n        /* \"Staking.sol\":461:500  uint256 public constant minAmount = 100 */\n      dup2\n      jump\t// out\n        /* \"Staking.sol\":3740:4052  function claimReferralReward() external {... */\n    tag_59:\n        /* \"Staking.sol\":3791:3805  uint256 reward */\n      0x00\n        /* \"Staking.sol\":3808:3823  referralRewards */\n      0x03\n        /* \"Staking.sol\":3808:3835  referralRewards[msg.sender] */\n      0x00\n        /* \"Staking.sol\":3824:3834  msg.sender */\n      caller\n        /* \"Staking.sol\":3808:3835  referralRewards[msg.sender] */\n      0xffffffffffffffffffffffffffffffffffffffff\n      and\n      0xffffffffffffffffffffffffffffffffffffffff\n      and\n      dup2\n      mstore\n      0x20\n      add\n      swap1\n      dup2\n      mstore\n      0x20\n      add\n      0x00\n      keccak256\n      sload\n        /* \"Staking.sol\":3791:3835  uint256 reward = referralRewards[msg.sender] */\n      swap1\n      pop\n        /* \"Staking.sol\":3863:3864  0 */\n      0x00\n        /* \"Staking.sol\":3854:3860  reward */\n      dup2\n        /* \"Staking.sol\":3854:3864  reward > 0 */\n      gt\n        /* \"Staking.sol\":3846:3897  require(reward > 0, \"No referral reward available\") */\n      tag_146\n      jumpi\n      mload(0x40)\n      0x08c379a000000000000000000000000000000000000000000000000000000000\n      dup2\n      mstore\n      0x04\n      add\n      tag_147\n      swap1\n      tag_148\n      jump\t// in\n    tag_147:\n      mload(0x40)\n      dup1\n      swap2\n      sub\n      swap1\n      revert\n    tag_146:\n        /* \"Staking.sol\":3938:3939  0 */\n      0x00\n        /* \"Staking.sol\":3908:3923  referralRewards */\n      0x03\n        /* \"Staking.sol\":3908:3935  referralRewards[msg.sender] */\n      0x00\n        /* \"Staking.sol\":3924:3934  msg.sender */\n      caller\n        /* \"Staking.sol\":3908:3935  referralRewards[msg.sender] */\n      0xffffffffffffffffffffffffffffffffffffffff\n      and\n      0xffffffffffffffffffffffffffffffffffffffff\n      and\n      dup2\n      mstore\n      0x20\n      add\n      swap1\n      dup2\n      mstore\n      0x20\n      add\n      0x00\n      keccak256\n        /* \"Staking.sol\":3908:3939  referralRewards[msg.sender] = 0 */\n      dup2\n      swap1\n      sstore\n      pop\n        /* \"Staking.sol\":3950:3987  nlnt.safeTransfer(msg.sender, reward) */\n      tag_149\n        /* \"Staking.sol\":3968:3978  msg.sender */\n      caller\n        /* \"Staking.sol\":3980:3986  reward */\n      dup3\n        /* \"Staking.sol\":3950:3954  nlnt */\n      0x00\n      dup1\n      sload\n      swap1\n      0x0100\n      exp\n      swap1\n      div\n      0xffffffffffffffffffffffffffffffffffffffff\n      and\n        /* \"Staking.sol\":3950:3967  nlnt.safeTransfer */\n      0xffffffffffffffffffffffffffffffffffffffff\n      and\n      tag_121\n      swap1\n        /* \"Staking.sol\":3950:3987  nlnt.safeTransfer(msg.sender, reward) */\n      swap3\n      swap2\n      swap1\n      0xffffffff\n      and\n      jump\t// in\n    tag_149:\n        /* \"Staking.sol\":4025:4035  msg.sender */\n      caller\n        /* \"Staking.sol\":4003:4044  ReferralRewardClaimed(msg.sender, reward) */\n      0xffffffffffffffffffffffffffffffffffffffff\n      and\n      0x5be4d22009fea85381595ed91090bc5c0bc92a93fe07ed7472c5888eb1993f83\n        /* \"Staking.sol\":4037:4043  reward */\n      dup3\n        /* \"Staking.sol\":4003:4044  ReferralRewardClaimed(msg.sender, reward) */\n      mload(0x40)\n      tag_150\n      swap2\n      swap1\n      tag_24\n      jump\t// in\n    tag_150:\n      mload(0x40)\n      dup1\n      swap2\n      sub\n      swap1\n      log2\n        /* \"Staking.sol\":3780:4052  {... */\n      pop\n        /* \"Staking.sol\":3740:4052  function claimReferralReward() external {... */\n      jump\t// out\n        /* \"Staking.sol\":258:276  IERC20 public nlnt */\n    tag_61:\n      0x00\n      dup1\n      sload\n      swap1\n      0x0100\n      exp\n      swap1\n      div\n      0xffffffffffffffffffffffffffffffffffffffff\n      and\n      dup2\n      jump\t// out\n        /* \"Staking.sol\":1112:1161  mapping(address => Lock[]) public allStakeDetails */\n    tag_66:\n      mstore(0x20, 0x02)\n      dup2\n      0x00\n      mstore\n      keccak256(0x00, 0x40)\n      dup2\n      dup2\n      sload\n      dup2\n      lt\n      tag_151\n      jumpi\n      0x00\n      dup1\n      revert\n    tag_151:\n      swap1\n      0x00\n      mstore\n      keccak256(0x00, 0x20)\n      swap1\n      0x05\n      mul\n      add\n      0x00\n      swap2\n      pop\n      swap2\n      pop\n      pop\n      dup1\n      0x00\n      add\n      sload\n      swap1\n      dup1\n      0x01\n      add\n      sload\n      swap1\n      dup1\n      0x02\n      add\n      sload\n      swap1\n      dup1\n      0x03\n      add\n      sload\n      swap1\n      dup1\n      0x04\n      add\n      0x00\n      swap1\n      sload\n      swap1\n      0x0100\n      exp\n      swap1\n      div\n      0xffffffffffffffffffffffffffffffffffffffff\n      and\n      swap1\n      pop\n      dup6\n      jump\t// out\n        /* \"Staking.sol\":283:303  address public admin */\n    tag_70:\n      0x01\n      0x00\n      swap1\n      sload\n      swap1\n      0x0100\n      exp\n      swap1\n      div\n      0xffffffffffffffffffffffffffffffffffffffff\n      and\n      dup2\n      jump\t// out\n        /* \"@openzeppelin/contracts/token/ERC20/utils/SafeERC20.sol\":1618:1806  function safeTransferFrom(IERC20 token, address from, address to, uint256 value) internal {... */\n    tag_82:\n        /* \"@openzeppelin/contracts/token/ERC20/utils/SafeERC20.sol\":1718:1799  _callOptionalReturn(token, abi.encodeCall(token.transferFrom, (from, to, value))) */\n      tag_154\n        /* \"@openzeppelin/contracts/token/ERC20/utils/SafeERC20.sol\":1738:1743  token */\n      dup5\n        /* \"@openzeppelin/contracts/token/ERC20/utils/SafeERC20.sol\":1760:1765  token */\n      dup6\n        /* \"@openzeppelin/contracts/token/ERC20/utils/SafeERC20.sol\":1760:1778  token.transferFrom */\n      0xffffffffffffffffffffffffffffffffffffffff\n      and\n      0x23b872dd\n        /* \"@openzeppelin/contracts/token/ERC20/utils/SafeERC20.sol\":1781:1785  from */\n      dup7\n        /* \"@openzeppelin/contracts/token/ERC20/utils/SafeERC20.sol\":1787:1789  to */\n      dup7\n        /* \"@openzeppelin/contracts/token/ERC20/utils/SafeERC20.sol\":1791:1796  value */\n      dup7\n        /* \"@openzeppelin/contracts/token/ERC20/utils/SafeERC20.sol\":1745:1798  abi.encodeCall(token.transferFrom, (from, to, value)) */\n      add(0x24, mload(0x40))\n      tag_155\n      swap4\n      swap3\n      swap2\n      swap1\n      tag_156\n      jump\t// in\n    tag_155:\n      mload(0x40)\n      0x20\n      dup2\n      dup4\n      sub\n      sub\n      dup2\n      mstore\n      swap1\n      0x40\n      mstore\n      swap2\n      pop\n      0xe0\n      shl\n      0x20\n      dup3\n      add\n      dup1\n      mload\n      0xffffffffffffffffffffffffffffffffffffffffffffffffffffffff\n      dup4\n      dup2\n      dup4\n      and\n      or\n      dup4\n      mstore\n      pop\n      pop\n      pop\n      pop\n        /* \"@openzeppelin/contracts/token/ERC20/utils/SafeERC20.sol\":1718:1737  _callOptionalReturn */\n      tag_157\n        /* \"@openzeppelin/contracts/token/ERC20/utils/SafeERC20.sol\":1718:1799  _callOptionalReturn(token, abi.encodeCall(token.transferFrom, (from, to, value))) */\n      jump\t// in\n    tag_154:\n        /* \"@openzeppelin/contracts/token/ERC20/utils/SafeERC20.sol\":1618:1806  function safeTransferFrom(IERC20 token, address from, address to, uint256 value) internal {... */\n      pop\n      pop\n      pop\n      pop\n      jump\t// out\n        /* \"Staking.sol\":4060:4644  function distributeLevel(address _refAddress, uint256 rewardAmount) internal {... */\n    tag_116:\n        /* \"Staking.sol\":4148:4179  uint8[3] memory levelPercentage */\n      0x00\n        /* \"Staking.sol\":4148:4193  uint8[3] memory levelPercentage = [15, 10, 5] */\n      mload(0x40)\n      dup1\n      0x60\n      add\n      0x40\n      mstore\n      dup1\n        /* \"Staking.sol\":4183:4185  15 */\n      0x0f\n        /* \"Staking.sol\":4148:4193  uint8[3] memory levelPercentage = [15, 10, 5] */\n      0xff\n      and\n      dup2\n      mstore\n      0x20\n      add\n        /* \"Staking.sol\":4187:4189  10 */\n      0x0a\n        /* \"Staking.sol\":4148:4193  uint8[3] memory levelPercentage = [15, 10, 5] */\n      0xff\n      and\n      dup2\n      mstore\n      0x20\n      add\n        /* \"Staking.sol\":4191:4192  5 */\n      0x05\n        /* \"Staking.sol\":4148:4193  uint8[3] memory levelPercentage = [15, 10, 5] */\n      0xff\n      and\n      dup2\n      mstore\n      pop\n      swap1\n      pop\n        /* \"Staking.sol\":4204:4222  address currentRef */\n      0x00\n        /* \"Staking.sol\":4225:4236  _refAddress */\n      dup4\n        /* \"Staking.sol\":4204:4236  address currentRef = _refAddress */\n      swap1\n      pop\n        /* \"Staking.sol\":4254:4260  uint i */\n      0x00\n        /* \"Staking.sol\":4249:4637  for (uint i = 0; i < globalLevel; i++) {... */\n    tag_159:\n        /* \"Staking.sol\":596:597  3 */\n      0x03\n        /* \"Staking.sol\":4266:4281  i < globalLevel */\n      0xff\n      and\n        /* \"Staking.sol\":4266:4267  i */\n      dup2\n        /* \"Staking.sol\":4266:4281  i < globalLevel */\n      lt\n        /* \"Staking.sol\":4249:4637  for (uint i = 0; i < globalLevel; i++) {... */\n      iszero\n      tag_160\n      jumpi\n        /* \"Staking.sol\":4329:4330  0 */\n      0x00\n        /* \"Staking.sol\":4307:4331  currentRef == address(0) */\n      0xffffffffffffffffffffffffffffffffffffffff\n      and\n        /* \"Staking.sol\":4307:4317  currentRef */\n      dup3\n        /* \"Staking.sol\":4307:4331  currentRef == address(0) */\n      0xffffffffffffffffffffffffffffffffffffffff\n      and\n      sub\n        /* \"Staking.sol\":4303:4338  if (currentRef == address(0)) break */\n      iszero\n        /* \"Staking.sol\":4333:4338  break */\n      tag_160\n        /* \"Staking.sol\":4303:4338  if (currentRef == address(0)) break */\n      jumpi\n        /* \"Staking.sol\":4355:4378  Lock[] storage refLocks */\n      0x00\n        /* \"Staking.sol\":4381:4396  allStakeDetails */\n      0x02\n        /* \"Staking.sol\":4381:4408  allStakeDetails[currentRef] */\n      0x00\n        /* \"Staking.sol\":4397:4407  currentRef */\n      dup5\n        /* \"Staking.sol\":4381:4408  allStakeDetails[currentRef] */\n      0xffffffffffffffffffffffffffffffffffffffff\n      and\n      0xffffffffffffffffffffffffffffffffffffffff\n      and\n      dup2\n      mstore\n      0x20\n      add\n      swap1\n      dup2\n      mstore\n      0x20\n      add\n      0x00\n      keccak256\n        /* \"Staking.sol\":4355:4408  Lock[] storage refLocks = allStakeDetails[currentRef] */\n      swap1\n      pop\n        /* \"Staking.sol\":4446:4447  0 */\n      0x00\n        /* \"Staking.sol\":4427:4435  refLocks */\n      dup2\n        /* \"Staking.sol\":4427:4442  refLocks.length */\n      dup1\n      sload\n      swap1\n      pop\n        /* \"Staking.sol\":4427:4447  refLocks.length == 0 */\n      sub\n        /* \"Staking.sol\":4423:4454  if (refLocks.length == 0) break */\n      tag_163\n      jumpi\n        /* \"Staking.sol\":4449:4454  break */\n      pop\n      jump(tag_160)\n        /* \"Staking.sol\":4423:4454  if (refLocks.length == 0) break */\n    tag_163:\n        /* \"Staking.sol\":4471:4485  uint256 reward */\n      0x00\n        /* \"Staking.sol\":4526:4529  100 */\n      0x64\n        /* \"Staking.sol\":4504:4519  levelPercentage */\n      dup6\n        /* \"Staking.sol\":4520:4521  i */\n      dup5\n        /* \"Staking.sol\":4504:4522  levelPercentage[i] */\n      0x03\n      dup2\n      lt\n      tag_164\n      jumpi\n      tag_165\n      tag_99\n      jump\t// in\n    tag_165:\n    tag_164:\n      0x20\n      mul\n      add\n      mload\n        /* \"Staking.sol\":4489:4522  rewardAmount * levelPercentage[i] */\n      0xff\n      and\n        /* \"Staking.sol\":4489:4501  rewardAmount */\n      dup8\n        /* \"Staking.sol\":4489:4522  rewardAmount * levelPercentage[i] */\n      tag_166\n      swap2\n      swap1\n      tag_86\n      jump\t// in\n    tag_166:\n        /* \"Staking.sol\":4488:4529  (rewardAmount * levelPercentage[i]) / 100 */\n      tag_167\n      swap2\n      swap1\n      tag_88\n      jump\t// in\n    tag_167:\n        /* \"Staking.sol\":4471:4529  uint256 reward = (rewardAmount * levelPercentage[i]) / 100 */\n      swap1\n      pop\n        /* \"Staking.sol\":4571:4577  reward */\n      dup1\n        /* \"Staking.sol\":4544:4552  refLocks */\n      dup3\n        /* \"Staking.sol\":4553:4554  0 */\n      0x00\n        /* \"Staking.sol\":4544:4555  refLocks[0] */\n      dup2\n      sload\n      dup2\n      lt\n      tag_168\n      jumpi\n      tag_169\n      tag_99\n      jump\t// in\n    tag_169:\n    tag_168:\n      swap1\n      0x00\n      mstore\n      keccak256(0x00, 0x20)\n      swap1\n      0x05\n      mul\n      add\n        /* \"Staking.sol\":4544:4567  refLocks[0].levelIncome */\n      0x03\n      add\n      0x00\n        /* \"Staking.sol\":4544:4577  refLocks[0].levelIncome += reward */\n      dup3\n      dup3\n      sload\n      tag_171\n      swap2\n      swap1\n      tag_90\n      jump\t// in\n    tag_171:\n      swap3\n      pop\n      pop\n      dup2\n      swap1\n      sstore\n      pop\n        /* \"Staking.sol\":4605:4613  refLocks */\n      dup2\n        /* \"Staking.sol\":4614:4615  0 */\n      0x00\n        /* \"Staking.sol\":4605:4616  refLocks[0] */\n      dup2\n      sload\n      dup2\n      lt\n      tag_172\n      jumpi\n      tag_173\n      tag_99\n      jump\t// in\n    tag_173:\n    tag_172:\n      swap1\n      0x00\n      mstore\n      keccak256(0x00, 0x20)\n      swap1\n      0x05\n      mul\n      add\n        /* \"Staking.sol\":4605:4625  refLocks[0].referral */\n      0x04\n      add\n      0x00\n      swap1\n      sload\n      swap1\n      0x0100\n      exp\n      swap1\n      div\n      0xffffffffffffffffffffffffffffffffffffffff\n      and\n        /* \"Staking.sol\":4592:4625  currentRef = refLocks[0].referral */\n      swap4\n      pop\n        /* \"Staking.sol\":4288:4637  {... */\n      pop\n      pop\n        /* \"Staking.sol\":4283:4286  i++ */\n      dup1\n      dup1\n      0x01\n      add\n      swap2\n      pop\n      pop\n        /* \"Staking.sol\":4249:4637  for (uint i = 0; i < globalLevel; i++) {... */\n      jump(tag_159)\n    tag_160:\n      pop\n        /* \"Staking.sol\":4137:4644  {... */\n      pop\n      pop\n        /* \"Staking.sol\":4060:4644  function distributeLevel(address _refAddress, uint256 rewardAmount) internal {... */\n      pop\n      pop\n      jump\t// out\n        /* \"@openzeppelin/contracts/token/ERC20/utils/SafeERC20.sol\":1219:1379  function safeTransfer(IERC20 token, address to, uint256 value) internal {... */\n    tag_121:\n        /* \"@openzeppelin/contracts/token/ERC20/utils/SafeERC20.sol\":1301:1372  _callOptionalReturn(token, abi.encodeCall(token.transfer, (to, value))) */\n      tag_176\n        /* \"@openzeppelin/contracts/token/ERC20/utils/SafeERC20.sol\":1321:1326  token */\n      dup4\n        /* \"@openzeppelin/contracts/token/ERC20/utils/SafeERC20.sol\":1343:1348  token */\n      dup5\n        /* \"@openzeppelin/contracts/token/ERC20/utils/SafeERC20.sol\":1343:1357  token.transfer */\n      0xffffffffffffffffffffffffffffffffffffffff\n      and\n      0xa9059cbb\n        /* \"@openzeppelin/contracts/token/ERC20/utils/SafeERC20.sol\":1360:1362  to */\n      dup6\n        /* \"@openzeppelin/contracts/token/ERC20/utils/SafeERC20.sol\":1364:1369  value */\n      dup6\n        /* \"@openzeppelin/contracts/token/ERC20/utils/SafeERC20.sol\":1328:1371  abi.encodeCall(token.transfer, (to, value)) */\n      add(0x24, mload(0x40))\n      tag_177\n      swap3\n      swap2\n      swap1\n      tag_178\n      jump\t// in\n    tag_177:\n      mload(0x40)\n      0x20\n      dup2\n      dup4\n      sub\n      sub\n      dup2\n      mstore\n      swap1\n      0x40\n      mstore\n      swap2\n      pop\n      0xe0\n      shl\n      0x20\n      dup3\n      add\n      dup1\n      mload\n      0xffffffffffffffffffffffffffffffffffffffffffffffffffffffff\n      dup4\n      dup2\n      dup4\n      and\n      or\n      dup4\n      mstore\n      pop\n      pop\n      pop\n      pop\n        /* \"@openzeppelin/contracts/token/ERC20/utils/SafeERC20.sol\":1301:1320  _callOptionalReturn */\n      tag_157\n        /* \"@openzeppelin/contracts/token/ERC20/utils/SafeERC20.sol\":1301:1372  _callOptionalReturn(token, abi.encodeCall(token.transfer, (to, value))) */\n      jump\t// in\n    tag_176:\n        /* \"@openzeppelin/contracts/token/ERC20/utils/SafeERC20.sol\":1219:1379  function safeTransfer(IERC20 token, address to, uint256 value) internal {... */\n      pop\n      pop\n      pop\n      jump\t// out\n        /* \"@openzeppelin/contracts/token/ERC20/utils/SafeERC20.sol\":8370:9090  function _callOptionalReturn(IERC20 token, bytes memory data) private {... */\n    tag_157:\n        /* \"@openzeppelin/contracts/token/ERC20/utils/SafeERC20.sol\":8450:8468  uint256 returnSize */\n      0x00\n        /* \"@openzeppelin/contracts/token/ERC20/utils/SafeERC20.sol\":8478:8497  uint256 returnValue */\n      dup1\n        /* \"@openzeppelin/contracts/token/ERC20/utils/SafeERC20.sol\":8616:8620  0x20 */\n      0x20\n        /* \"@openzeppelin/contracts/token/ERC20/utils/SafeERC20.sol\":8613:8614  0 */\n      0x00\n        /* \"@openzeppelin/contracts/token/ERC20/utils/SafeERC20.sol\":8606:8610  data */\n      dup5\n        /* \"@openzeppelin/contracts/token/ERC20/utils/SafeERC20.sol\":8600:8611  mload(data) */\n      mload\n        /* \"@openzeppelin/contracts/token/ERC20/utils/SafeERC20.sol\":8593:8597  0x20 */\n      0x20\n        /* \"@openzeppelin/contracts/token/ERC20/utils/SafeERC20.sol\":8587:8591  data */\n      dup7\n        /* \"@openzeppelin/contracts/token/ERC20/utils/SafeERC20.sol\":8583:8598  add(data, 0x20) */\n      add\n        /* \"@openzeppelin/contracts/token/ERC20/utils/SafeERC20.sol\":8580:8581  0 */\n      0x00\n        /* \"@openzeppelin/contracts/token/ERC20/utils/SafeERC20.sol\":8573:8578  token */\n      dup9\n        /* \"@openzeppelin/contracts/token/ERC20/utils/SafeERC20.sol\":8566:8571  gas() */\n      gas\n        /* \"@openzeppelin/contracts/token/ERC20/utils/SafeERC20.sol\":8561:8621  call(gas(), token, 0, add(data, 0x20), mload(data), 0, 0x20) */\n      call\n        /* \"@openzeppelin/contracts/token/ERC20/utils/SafeERC20.sol\":8673:8680  success */\n      dup1\n        /* \"@openzeppelin/contracts/token/ERC20/utils/SafeERC20.sol\":8663:8839  if iszero(success) {... */\n      tag_180\n      jumpi\n        /* \"@openzeppelin/contracts/token/ERC20/utils/SafeERC20.sol\":8717:8721  0x40 */\n      0x40\n        /* \"@openzeppelin/contracts/token/ERC20/utils/SafeERC20.sol\":8711:8722  mload(0x40) */\n      mload\n        /* \"@openzeppelin/contracts/token/ERC20/utils/SafeERC20.sol\":8762:8778  returndatasize() */\n      returndatasize\n        /* \"@openzeppelin/contracts/token/ERC20/utils/SafeERC20.sol\":8759:8760  0 */\n      0x00\n        /* \"@openzeppelin/contracts/token/ERC20/utils/SafeERC20.sol\":8754:8757  ptr */\n      dup3\n        /* \"@openzeppelin/contracts/token/ERC20/utils/SafeERC20.sol\":8739:8779  returndatacopy(ptr, 0, returndatasize()) */\n      returndatacopy\n        /* \"@openzeppelin/contracts/token/ERC20/utils/SafeERC20.sol\":8808:8824  returndatasize() */\n      returndatasize\n        /* \"@openzeppelin/contracts/token/ERC20/utils/SafeERC20.sol\":8803:8806  ptr */\n      dup2\n        /* \"@openzeppelin/contracts/token/ERC20/utils/SafeERC20.sol\":8796:8825  revert(ptr, returndatasize()) */\n      revert\n        /* \"@openzeppelin/contracts/token/ERC20/utils/SafeERC20.sol\":8663:8839  if iszero(success) {... */\n    tag_180:\n        /* \"@openzeppelin/contracts/token/ERC20/utils/SafeERC20.sol\":8866:8882  returndatasize() */\n      returndatasize\n        /* \"@openzeppelin/contracts/token/ERC20/utils/SafeERC20.sol\":8852:8882  returnSize := returndatasize() */\n      swap3\n      pop\n        /* \"@openzeppelin/contracts/token/ERC20/utils/SafeERC20.sol\":8916:8917  0 */\n      0x00\n        /* \"@openzeppelin/contracts/token/ERC20/utils/SafeERC20.sol\":8910:8918  mload(0) */\n      mload\n        /* \"@openzeppelin/contracts/token/ERC20/utils/SafeERC20.sol\":8895:8918  returnValue := mload(0) */\n      swap2\n      pop\n        /* \"@openzeppelin/contracts/token/ERC20/utils/SafeERC20.sol\":8532:8928  {... */\n      pop\n        /* \"@openzeppelin/contracts/token/ERC20/utils/SafeERC20.sol\":8956:8957  0 */\n      0x00\n        /* \"@openzeppelin/contracts/token/ERC20/utils/SafeERC20.sol\":8942:8952  returnSize */\n      dup3\n        /* \"@openzeppelin/contracts/token/ERC20/utils/SafeERC20.sol\":8942:8957  returnSize == 0 */\n      eq\n        /* \"@openzeppelin/contracts/token/ERC20/utils/SafeERC20.sol\":8942:9010  returnSize == 0 ? address(token).code.length == 0 : returnValue != 1 */\n      tag_181\n      jumpi\n        /* \"@openzeppelin/contracts/token/ERC20/utils/SafeERC20.sol\":9009:9010  1 */\n      0x01\n        /* \"@openzeppelin/contracts/token/ERC20/utils/SafeERC20.sol\":8994:9005  returnValue */\n      dup2\n        /* \"@openzeppelin/contracts/token/ERC20/utils/SafeERC20.sol\":8994:9010  returnValue != 1 */\n      eq\n      iszero\n        /* \"@openzeppelin/contracts/token/ERC20/utils/SafeERC20.sol\":8942:9010  returnSize == 0 ? address(token).code.length == 0 : returnValue != 1 */\n      jump(tag_182)\n    tag_181:\n        /* \"@openzeppelin/contracts/token/ERC20/utils/SafeERC20.sol\":8990:8991  0 */\n      0x00\n        /* \"@openzeppelin/contracts/token/ERC20/utils/SafeERC20.sol\":8968:8973  token */\n      dup5\n        /* \"@openzeppelin/contracts/token/ERC20/utils/SafeERC20.sol\":8960:8986  address(token).code.length */\n      0xffffffffffffffffffffffffffffffffffffffff\n      and\n      extcodesize\n        /* \"@openzeppelin/contracts/token/ERC20/utils/SafeERC20.sol\":8960:8991  address(token).code.length == 0 */\n      eq\n        /* \"@openzeppelin/contracts/token/ERC20/utils/SafeERC20.sol\":8942:9010  returnSize == 0 ? address(token).code.length == 0 : returnValue != 1 */\n    tag_182:\n        /* \"@openzeppelin/contracts/token/ERC20/utils/SafeERC20.sol\":8938:9084  if (returnSize == 0 ? address(token).code.length == 0 : returnValue != 1) {... */\n      iszero\n      tag_183\n      jumpi\n        /* \"@openzeppelin/contracts/token/ERC20/utils/SafeERC20.sol\":9066:9071  token */\n      dup4\n        /* \"@openzeppelin/contracts/token/ERC20/utils/SafeERC20.sol\":9033:9073  SafeERC20FailedOperation(address(token)) */\n      mload(0x40)\n      0x5274afe700000000000000000000000000000000000000000000000000000000\n      dup2\n      mstore\n      0x04\n      add\n      tag_184\n      swap2\n      swap1\n      tag_72\n      jump\t// in\n    tag_184:\n      mload(0x40)\n      dup1\n      swap2\n      sub\n      swap1\n      revert\n        /* \"@openzeppelin/contracts/token/ERC20/utils/SafeERC20.sol\":8938:9084  if (returnSize == 0 ? address(token).code.length == 0 : returnValue != 1) {... */\n    tag_183:\n        /* \"@openzeppelin/contracts/token/ERC20/utils/SafeERC20.sol\":8440:9090  {... */\n      pop\n      pop\n        /* \"@openzeppelin/contracts/token/ERC20/utils/SafeERC20.sol\":8370:9090  function _callOptionalReturn(IERC20 token, bytes memory data) private {... */\n      pop\n      pop\n      jump\t// out\n        /* \"#utility.yul\":7:84   */\n    tag_185:\n        /* \"#utility.yul\":44:51   */\n      0x00\n        /* \"#utility.yul\":73:78   */\n      dup2\n        /* \"#utility.yul\":62:78   */\n      swap1\n      pop\n        /* \"#utility.yul\":7:84   */\n      swap2\n      swap1\n      pop\n      jump\t// out\n        /* \"#utility.yul\":90:208   */\n    tag_186:\n        /* \"#utility.yul\":177:201   */\n      tag_224\n        /* \"#utility.yul\":195:200   */\n      dup2\n        /* \"#utility.yul\":177:201   */\n      tag_185\n      jump\t// in\n    tag_224:\n        /* \"#utility.yul\":172:175   */\n      dup3\n        /* \"#utility.yul\":165:202   */\n      mstore\n        /* \"#utility.yul\":90:208   */\n      pop\n      pop\n      jump\t// out\n        /* \"#utility.yul\":214:436   */\n    tag_24:\n        /* \"#utility.yul\":307:311   */\n      0x00\n        /* \"#utility.yul\":345:347   */\n      0x20\n        /* \"#utility.yul\":334:343   */\n      dup3\n        /* \"#utility.yul\":330:348   */\n      add\n        /* \"#utility.yul\":322:348   */\n      swap1\n      pop\n        /* \"#utility.yul\":358:429   */\n      tag_226\n        /* \"#utility.yul\":426:427   */\n      0x00\n        /* \"#utility.yul\":415:424   */\n      dup4\n        /* \"#utility.yul\":411:428   */\n      add\n        /* \"#utility.yul\":402:408   */\n      dup5\n        /* \"#utility.yul\":358:429   */\n      tag_186\n      jump\t// in\n    tag_226:\n        /* \"#utility.yul\":214:436   */\n      swap3\n      swap2\n      pop\n      pop\n      jump\t// out\n        /* \"#utility.yul\":523:640   */\n    tag_188:\n        /* \"#utility.yul\":632:633   */\n      0x00\n        /* \"#utility.yul\":629:630   */\n      dup1\n        /* \"#utility.yul\":622:634   */\n      revert\n        /* \"#utility.yul\":769:895   */\n    tag_190:\n        /* \"#utility.yul\":806:813   */\n      0x00\n        /* \"#utility.yul\":846:888   */\n      0xffffffffffffffffffffffffffffffffffffffff\n        /* \"#utility.yul\":839:844   */\n      dup3\n        /* \"#utility.yul\":835:889   */\n      and\n        /* \"#utility.yul\":824:889   */\n      swap1\n      pop\n        /* \"#utility.yul\":769:895   */\n      swap2\n      swap1\n      pop\n      jump\t// out\n        /* \"#utility.yul\":901:997   */\n    tag_191:\n        /* \"#utility.yul\":938:945   */\n      0x00\n        /* \"#utility.yul\":967:991   */\n      tag_232\n        /* \"#utility.yul\":985:990   */\n      dup3\n        /* \"#utility.yul\":967:991   */\n      tag_190\n      jump\t// in\n    tag_232:\n        /* \"#utility.yul\":956:991   */\n      swap1\n      pop\n        /* \"#utility.yul\":901:997   */\n      swap2\n      swap1\n      pop\n      jump\t// out\n        /* \"#utility.yul\":1003:1125   */\n    tag_192:\n        /* \"#utility.yul\":1076:1100   */\n      tag_234\n        /* \"#utility.yul\":1094:1099   */\n      dup2\n        /* \"#utility.yul\":1076:1100   */\n      tag_191\n      jump\t// in\n    tag_234:\n        /* \"#utility.yul\":1069:1074   */\n      dup2\n        /* \"#utility.yul\":1066:1101   */\n      eq\n        /* \"#utility.yul\":1056:1119   */\n      tag_235\n      jumpi\n        /* \"#utility.yul\":1115:1116   */\n      0x00\n        /* \"#utility.yul\":1112:1113   */\n      dup1\n        /* \"#utility.yul\":1105:1117   */\n      revert\n        /* \"#utility.yul\":1056:1119   */\n    tag_235:\n        /* \"#utility.yul\":1003:1125   */\n      pop\n      jump\t// out\n        /* \"#utility.yul\":1131:1270   */\n    tag_193:\n        /* \"#utility.yul\":1177:1182   */\n      0x00\n        /* \"#utility.yul\":1215:1221   */\n      dup2\n        /* \"#utility.yul\":1202:1222   */\n      calldataload\n        /* \"#utility.yul\":1193:1222   */\n      swap1\n      pop\n        /* \"#utility.yul\":1231:1264   */\n      tag_237\n        /* \"#utility.yul\":1258:1263   */\n      dup2\n        /* \"#utility.yul\":1231:1264   */\n      tag_192\n      jump\t// in\n    tag_237:\n        /* \"#utility.yul\":1131:1270   */\n      swap3\n      swap2\n      pop\n      pop\n      jump\t// out\n        /* \"#utility.yul\":1276:1398   */\n    tag_194:\n        /* \"#utility.yul\":1349:1373   */\n      tag_239\n        /* \"#utility.yul\":1367:1372   */\n      dup2\n        /* \"#utility.yul\":1349:1373   */\n      tag_185\n      jump\t// in\n    tag_239:\n        /* \"#utility.yul\":1342:1347   */\n      dup2\n        /* \"#utility.yul\":1339:1374   */\n      eq\n        /* \"#utility.yul\":1329:1392   */\n      tag_240\n      jumpi\n        /* \"#utility.yul\":1388:1389   */\n      0x00\n        /* \"#utility.yul\":1385:1386   */\n      dup1\n        /* \"#utility.yul\":1378:1390   */\n      revert\n        /* \"#utility.yul\":1329:1392   */\n    tag_240:\n        /* \"#utility.yul\":1276:1398   */\n      pop\n      jump\t// out\n        /* \"#utility.yul\":1404:1543   */\n    tag_195:\n        /* \"#utility.yul\":1450:1455   */\n      0x00\n        /* \"#utility.yul\":1488:1494   */\n      dup2\n        /* \"#utility.yul\":1475:1495   */\n      calldataload\n        /* \"#utility.yul\":1466:1495   */\n      swap1\n      pop\n        /* \"#utility.yul\":1504:1537   */\n      tag_242\n        /* \"#utility.yul\":1531:1536   */\n      dup2\n        /* \"#utility.yul\":1504:1537   */\n      tag_194\n      jump\t// in\n    tag_242:\n        /* \"#utility.yul\":1404:1543   */\n      swap3\n      swap2\n      pop\n      pop\n      jump\t// out\n        /* \"#utility.yul\":1549:2023   */\n    tag_27:\n        /* \"#utility.yul\":1617:1623   */\n      0x00\n        /* \"#utility.yul\":1625:1631   */\n      dup1\n        /* \"#utility.yul\":1674:1676   */\n      0x40\n        /* \"#utility.yul\":1662:1671   */\n      dup4\n        /* \"#utility.yul\":1653:1660   */\n      dup6\n        /* \"#utility.yul\":1649:1672   */\n      sub\n        /* \"#utility.yul\":1645:1677   */\n      slt\n        /* \"#utility.yul\":1642:1761   */\n      iszero\n      tag_244\n      jumpi\n        /* \"#utility.yul\":1680:1759   */\n      tag_245\n      tag_188\n      jump\t// in\n    tag_245:\n        /* \"#utility.yul\":1642:1761   */\n    tag_244:\n        /* \"#utility.yul\":1800:1801   */\n      0x00\n        /* \"#utility.yul\":1825:1878   */\n      tag_246\n        /* \"#utility.yul\":1870:1877   */\n      dup6\n        /* \"#utility.yul\":1861:1867   */\n      dup3\n        /* \"#utility.yul\":1850:1859   */\n      dup7\n        /* \"#utility.yul\":1846:1868   */\n      add\n        /* \"#utility.yul\":1825:1878   */\n      tag_193\n      jump\t// in\n    tag_246:\n        /* \"#utility.yul\":1815:1878   */\n      swap3\n      pop\n        /* \"#utility.yul\":1771:1888   */\n      pop\n        /* \"#utility.yul\":1927:1929   */\n      0x20\n        /* \"#utility.yul\":1953:2006   */\n      tag_247\n        /* \"#utility.yul\":1998:2005   */\n      dup6\n        /* \"#utility.yul\":1989:1995   */\n      dup3\n        /* \"#utility.yul\":1978:1987   */\n      dup7\n        /* \"#utility.yul\":1974:1996   */\n      add\n        /* \"#utility.yul\":1953:2006   */\n      tag_195\n      jump\t// in\n    tag_247:\n        /* \"#utility.yul\":1943:2006   */\n      swap2\n      pop\n        /* \"#utility.yul\":1898:2016   */\n      pop\n        /* \"#utility.yul\":1549:2023   */\n      swap3\n      pop\n      swap3\n      swap1\n      pop\n      jump\t// out\n        /* \"#utility.yul\":2029:2358   */\n    tag_33:\n        /* \"#utility.yul\":2088:2094   */\n      0x00\n        /* \"#utility.yul\":2137:2139   */\n      0x20\n        /* \"#utility.yul\":2125:2134   */\n      dup3\n        /* \"#utility.yul\":2116:2123   */\n      dup5\n        /* \"#utility.yul\":2112:2135   */\n      sub\n        /* \"#utility.yul\":2108:2140   */\n      slt\n        /* \"#utility.yul\":2105:2224   */\n      iszero\n      tag_249\n      jumpi\n        /* \"#utility.yul\":2143:2222   */\n      tag_250\n      tag_188\n      jump\t// in\n    tag_250:\n        /* \"#utility.yul\":2105:2224   */\n    tag_249:\n        /* \"#utility.yul\":2263:2264   */\n      0x00\n        /* \"#utility.yul\":2288:2341   */\n      tag_251\n        /* \"#utility.yul\":2333:2340   */\n      dup5\n        /* \"#utility.yul\":2324:2330   */\n      dup3\n        /* \"#utility.yul\":2313:2322   */\n      dup6\n        /* \"#utility.yul\":2309:2331   */\n      add\n        /* \"#utility.yul\":2288:2341   */\n      tag_195\n      jump\t// in\n    tag_251:\n        /* \"#utility.yul\":2278:2341   */\n      swap2\n      pop\n        /* \"#utility.yul\":2234:2351   */\n      pop\n        /* \"#utility.yul\":2029:2358   */\n      swap3\n      swap2\n      pop\n      pop\n      jump\t// out\n        /* \"#utility.yul\":2364:2693   */\n    tag_37:\n        /* \"#utility.yul\":2423:2429   */\n      0x00\n        /* \"#utility.yul\":2472:2474   */\n      0x20\n        /* \"#utility.yul\":2460:2469   */\n      dup3\n        /* \"#utility.yul\":2451:2458   */\n      dup5\n        /* \"#utility.yul\":2447:2470   */\n      sub\n        /* \"#utility.yul\":2443:2475   */\n      slt\n        /* \"#utility.yul\":2440:2559   */\n      iszero\n      tag_253\n      jumpi\n        /* \"#utility.yul\":2478:2557   */\n      tag_254\n      tag_188\n      jump\t// in\n    tag_254:\n        /* \"#utility.yul\":2440:2559   */\n    tag_253:\n        /* \"#utility.yul\":2598:2599   */\n      0x00\n        /* \"#utility.yul\":2623:2676   */\n      tag_255\n        /* \"#utility.yul\":2668:2675   */\n      dup5\n        /* \"#utility.yul\":2659:2665   */\n      dup3\n        /* \"#utility.yul\":2648:2657   */\n      dup6\n        /* \"#utility.yul\":2644:2666   */\n      add\n        /* \"#utility.yul\":2623:2676   */\n      tag_193\n      jump\t// in\n    tag_255:\n        /* \"#utility.yul\":2613:2676   */\n      swap2\n      pop\n        /* \"#utility.yul\":2569:2686   */\n      pop\n        /* \"#utility.yul\":2364:2693   */\n      swap3\n      swap2\n      pop\n      pop\n      jump\t// out\n        /* \"#utility.yul\":2699:2785   */\n    tag_196:\n        /* \"#utility.yul\":2734:2741   */\n      0x00\n        /* \"#utility.yul\":2774:2778   */\n      0xff\n        /* \"#utility.yul\":2767:2772   */\n      dup3\n        /* \"#utility.yul\":2763:2779   */\n      and\n        /* \"#utility.yul\":2752:2779   */\n      swap1\n      pop\n        /* \"#utility.yul\":2699:2785   */\n      swap2\n      swap1\n      pop\n      jump\t// out\n        /* \"#utility.yul\":2791:2903   */\n    tag_197:\n        /* \"#utility.yul\":2874:2896   */\n      tag_258\n        /* \"#utility.yul\":2890:2895   */\n      dup2\n        /* \"#utility.yul\":2874:2896   */\n      tag_196\n      jump\t// in\n    tag_258:\n        /* \"#utility.yul\":2869:2872   */\n      dup3\n        /* \"#utility.yul\":2862:2897   */\n      mstore\n        /* \"#utility.yul\":2791:2903   */\n      pop\n      pop\n      jump\t// out\n        /* \"#utility.yul\":2909:3123   */\n    tag_43:\n        /* \"#utility.yul\":2998:3002   */\n      0x00\n        /* \"#utility.yul\":3036:3038   */\n      0x20\n        /* \"#utility.yul\":3025:3034   */\n      dup3\n        /* \"#utility.yul\":3021:3039   */\n      add\n        /* \"#utility.yul\":3013:3039   */\n      swap1\n      pop\n        /* \"#utility.yul\":3049:3116   */\n      tag_260\n        /* \"#utility.yul\":3113:3114   */\n      0x00\n        /* \"#utility.yul\":3102:3111   */\n      dup4\n        /* \"#utility.yul\":3098:3115   */\n      add\n        /* \"#utility.yul\":3089:3095   */\n      dup5\n        /* \"#utility.yul\":3049:3116   */\n      tag_197\n      jump\t// in\n    tag_260:\n        /* \"#utility.yul\":2909:3123   */\n      swap3\n      swap2\n      pop\n      pop\n      jump\t// out\n        /* \"#utility.yul\":3129:3189   */\n    tag_198:\n        /* \"#utility.yul\":3157:3160   */\n      0x00\n        /* \"#utility.yul\":3178:3183   */\n      dup2\n        /* \"#utility.yul\":3171:3183   */\n      swap1\n      pop\n        /* \"#utility.yul\":3129:3189   */\n      swap2\n      swap1\n      pop\n      jump\t// out\n        /* \"#utility.yul\":3195:3337   */\n    tag_199:\n        /* \"#utility.yul\":3245:3254   */\n      0x00\n        /* \"#utility.yul\":3278:3331   */\n      tag_263\n        /* \"#utility.yul\":3296:3330   */\n      tag_264\n        /* \"#utility.yul\":3305:3329   */\n      tag_265\n        /* \"#utility.yul\":3323:3328   */\n      dup5\n        /* \"#utility.yul\":3305:3329   */\n      tag_190\n      jump\t// in\n    tag_265:\n        /* \"#utility.yul\":3296:3330   */\n      tag_198\n      jump\t// in\n    tag_264:\n        /* \"#utility.yul\":3278:3331   */\n      tag_190\n      jump\t// in\n    tag_263:\n        /* \"#utility.yul\":3265:3331   */\n      swap1\n      pop\n        /* \"#utility.yul\":3195:3337   */\n      swap2\n      swap1\n      pop\n      jump\t// out\n        /* \"#utility.yul\":3343:3469   */\n    tag_200:\n        /* \"#utility.yul\":3393:3402   */\n      0x00\n        /* \"#utility.yul\":3426:3463   */\n      tag_267\n        /* \"#utility.yul\":3457:3462   */\n      dup3\n        /* \"#utility.yul\":3426:3463   */\n      tag_199\n      jump\t// in\n    tag_267:\n        /* \"#utility.yul\":3413:3463   */\n      swap1\n      pop\n        /* \"#utility.yul\":3343:3469   */\n      swap2\n      swap1\n      pop\n      jump\t// out\n        /* \"#utility.yul\":3475:3615   */\n    tag_201:\n        /* \"#utility.yul\":3539:3548   */\n      0x00\n        /* \"#utility.yul\":3572:3609   */\n      tag_269\n        /* \"#utility.yul\":3603:3608   */\n      dup3\n        /* \"#utility.yul\":3572:3609   */\n      tag_200\n      jump\t// in\n    tag_269:\n        /* \"#utility.yul\":3559:3609   */\n      swap1\n      pop\n        /* \"#utility.yul\":3475:3615   */\n      swap2\n      swap1\n      pop\n      jump\t// out\n        /* \"#utility.yul\":3621:3780   */\n    tag_202:\n        /* \"#utility.yul\":3722:3773   */\n      tag_271\n        /* \"#utility.yul\":3767:3772   */\n      dup2\n        /* \"#utility.yul\":3722:3773   */\n      tag_201\n      jump\t// in\n    tag_271:\n        /* \"#utility.yul\":3717:3720   */\n      dup3\n        /* \"#utility.yul\":3710:3774   */\n      mstore\n        /* \"#utility.yul\":3621:3780   */\n      pop\n      pop\n      jump\t// out\n        /* \"#utility.yul\":3786:4036   */\n    tag_63:\n        /* \"#utility.yul\":3893:3897   */\n      0x00\n        /* \"#utility.yul\":3931:3933   */\n      0x20\n        /* \"#utility.yul\":3920:3929   */\n      dup3\n        /* \"#utility.yul\":3916:3934   */\n      add\n        /* \"#utility.yul\":3908:3934   */\n      swap1\n      pop\n        /* \"#utility.yul\":3944:4029   */\n      tag_273\n        /* \"#utility.yul\":4026:4027   */\n      0x00\n        /* \"#utility.yul\":4015:4024   */\n      dup4\n        /* \"#utility.yul\":4011:4028   */\n      add\n        /* \"#utility.yul\":4002:4008   */\n      dup5\n        /* \"#utility.yul\":3944:4029   */\n      tag_202\n      jump\t// in\n    tag_273:\n        /* \"#utility.yul\":3786:4036   */\n      swap3\n      swap2\n      pop\n      pop\n      jump\t// out\n        /* \"#utility.yul\":4042:4160   */\n    tag_203:\n        /* \"#utility.yul\":4129:4153   */\n      tag_275\n        /* \"#utility.yul\":4147:4152   */\n      dup2\n        /* \"#utility.yul\":4129:4153   */\n      tag_191\n      jump\t// in\n    tag_275:\n        /* \"#utility.yul\":4124:4127   */\n      dup3\n        /* \"#utility.yul\":4117:4154   */\n      mstore\n        /* \"#utility.yul\":4042:4160   */\n      pop\n      pop\n      jump\t// out\n        /* \"#utility.yul\":4166:4830   */\n    tag_68:\n        /* \"#utility.yul\":4371:4375   */\n      0x00\n        /* \"#utility.yul\":4409:4412   */\n      0xa0\n        /* \"#utility.yul\":4398:4407   */\n      dup3\n        /* \"#utility.yul\":4394:4413   */\n      add\n        /* \"#utility.yul\":4386:4413   */\n      swap1\n      pop\n        /* \"#utility.yul\":4423:4494   */\n      tag_277\n        /* \"#utility.yul\":4491:4492   */\n      0x00\n        /* \"#utility.yul\":4480:4489   */\n      dup4\n        /* \"#utility.yul\":4476:4493   */\n      add\n        /* \"#utility.yul\":4467:4473   */\n      dup9\n        /* \"#utility.yul\":4423:4494   */\n      tag_186\n      jump\t// in\n    tag_277:\n        /* \"#utility.yul\":4504:4576   */\n      tag_278\n        /* \"#utility.yul\":4572:4574   */\n      0x20\n        /* \"#utility.yul\":4561:4570   */\n      dup4\n        /* \"#utility.yul\":4557:4575   */\n      add\n        /* \"#utility.yul\":4548:4554   */\n      dup8\n        /* \"#utility.yul\":4504:4576   */\n      tag_186\n      jump\t// in\n    tag_278:\n        /* \"#utility.yul\":4586:4658   */\n      tag_279\n        /* \"#utility.yul\":4654:4656   */\n      0x40\n        /* \"#utility.yul\":4643:4652   */\n      dup4\n        /* \"#utility.yul\":4639:4657   */\n      add\n        /* \"#utility.yul\":4630:4636   */\n      dup7\n        /* \"#utility.yul\":4586:4658   */\n      tag_186\n      jump\t// in\n    tag_279:\n        /* \"#utility.yul\":4668:4740   */\n      tag_280\n        /* \"#utility.yul\":4736:4738   */\n      0x60\n        /* \"#utility.yul\":4725:4734   */\n      dup4\n        /* \"#utility.yul\":4721:4739   */\n      add\n        /* \"#utility.yul\":4712:4718   */\n      dup6\n        /* \"#utility.yul\":4668:4740   */\n      tag_186\n      jump\t// in\n    tag_280:\n        /* \"#utility.yul\":4750:4823   */\n      tag_281\n        /* \"#utility.yul\":4818:4821   */\n      0x80\n        /* \"#utility.yul\":4807:4816   */\n      dup4\n        /* \"#utility.yul\":4803:4822   */\n      add\n        /* \"#utility.yul\":4794:4800   */\n      dup5\n        /* \"#utility.yul\":4750:4823   */\n      tag_203\n      jump\t// in\n    tag_281:\n        /* \"#utility.yul\":4166:4830   */\n      swap7\n      swap6\n      pop\n      pop\n      pop\n      pop\n      pop\n      pop\n      jump\t// out\n        /* \"#utility.yul\":4836:5058   */\n    tag_72:\n        /* \"#utility.yul\":4929:4933   */\n      0x00\n        /* \"#utility.yul\":4967:4969   */\n      0x20\n        /* \"#utility.yul\":4956:4965   */\n      dup3\n        /* \"#utility.yul\":4952:4970   */\n      add\n        /* \"#utility.yul\":4944:4970   */\n      swap1\n      pop\n        /* \"#utility.yul\":4980:5051   */\n      tag_283\n        /* \"#utility.yul\":5048:5049   */\n      0x00\n        /* \"#utility.yul\":5037:5046   */\n      dup4\n        /* \"#utility.yul\":5033:5050   */\n      add\n        /* \"#utility.yul\":5024:5030   */\n      dup5\n        /* \"#utility.yul\":4980:5051   */\n      tag_203\n      jump\t// in\n    tag_283:\n        /* \"#utility.yul\":4836:5058   */\n      swap3\n      swap2\n      pop\n      pop\n      jump\t// out\n        /* \"#utility.yul\":5064:5233   */\n    tag_204:\n        /* \"#utility.yul\":5148:5159   */\n      0x00\n        /* \"#utility.yul\":5182:5188   */\n      dup3\n        /* \"#utility.yul\":5177:5180   */\n      dup3\n        /* \"#utility.yul\":5170:5189   */\n      mstore\n        /* \"#utility.yul\":5222:5226   */\n      0x20\n        /* \"#utility.yul\":5217:5220   */\n      dup3\n        /* \"#utility.yul\":5213:5227   */\n      add\n        /* \"#utility.yul\":5198:5227   */\n      swap1\n      pop\n        /* \"#utility.yul\":5064:5233   */\n      swap3\n      swap2\n      pop\n      pop\n      jump\t// out\n        /* \"#utility.yul\":5239:5414   */\n    tag_205:\n        /* \"#utility.yul\":5379:5406   */\n      0x5374616b6520616d6f756e74206f7574206f662072616e676500000000000000\n        /* \"#utility.yul\":5375:5376   */\n      0x00\n        /* \"#utility.yul\":5367:5373   */\n      dup3\n        /* \"#utility.yul\":5363:5377   */\n      add\n        /* \"#utility.yul\":5356:5407   */\n      mstore\n        /* \"#utility.yul\":5239:5414   */\n      pop\n      jump\t// out\n        /* \"#utility.yul\":5420:5786   */\n    tag_206:\n        /* \"#utility.yul\":5562:5565   */\n      0x00\n        /* \"#utility.yul\":5583:5650   */\n      tag_287\n        /* \"#utility.yul\":5647:5649   */\n      0x19\n        /* \"#utility.yul\":5642:5645   */\n      dup4\n        /* \"#utility.yul\":5583:5650   */\n      tag_204\n      jump\t// in\n    tag_287:\n        /* \"#utility.yul\":5576:5650   */\n      swap2\n      pop\n        /* \"#utility.yul\":5659:5752   */\n      tag_288\n        /* \"#utility.yul\":5748:5751   */\n      dup3\n        /* \"#utility.yul\":5659:5752   */\n      tag_205\n      jump\t// in\n    tag_288:\n        /* \"#utility.yul\":5777:5779   */\n      0x20\n        /* \"#utility.yul\":5772:5775   */\n      dup3\n        /* \"#utility.yul\":5768:5780   */\n      add\n        /* \"#utility.yul\":5761:5780   */\n      swap1\n      pop\n        /* \"#utility.yul\":5420:5786   */\n      swap2\n      swap1\n      pop\n      jump\t// out\n        /* \"#utility.yul\":5792:6211   */\n    tag_77:\n        /* \"#utility.yul\":5958:5962   */\n      0x00\n        /* \"#utility.yul\":5996:5998   */\n      0x20\n        /* \"#utility.yul\":5985:5994   */\n      dup3\n        /* \"#utility.yul\":5981:5999   */\n      add\n        /* \"#utility.yul\":5973:5999   */\n      swap1\n      pop\n        /* \"#utility.yul\":6045:6054   */\n      dup2\n        /* \"#utility.yul\":6039:6043   */\n      dup2\n        /* \"#utility.yul\":6035:6055   */\n      sub\n        /* \"#utility.yul\":6031:6032   */\n      0x00\n        /* \"#utility.yul\":6020:6029   */\n      dup4\n        /* \"#utility.yul\":6016:6033   */\n      add\n        /* \"#utility.yul\":6009:6056   */\n      mstore\n        /* \"#utility.yul\":6073:6204   */\n      tag_290\n        /* \"#utility.yul\":6199:6203   */\n      dup2\n        /* \"#utility.yul\":6073:6204   */\n      tag_206\n      jump\t// in\n    tag_290:\n        /* \"#utility.yul\":6065:6204   */\n      swap1\n      pop\n        /* \"#utility.yul\":5792:6211   */\n      swap2\n      swap1\n      pop\n      jump\t// out\n        /* \"#utility.yul\":6217:6392   */\n    tag_207:\n        /* \"#utility.yul\":6357:6384   */\n      0x53656c6620726566657272616c206e6f7420616c6c6f77656400000000000000\n        /* \"#utility.yul\":6353:6354   */\n      0x00\n        /* \"#utility.yul\":6345:6351   */\n      dup3\n        /* \"#utility.yul\":6341:6355   */\n      add\n        /* \"#utility.yul\":6334:6385   */\n      mstore\n        /* \"#utility.yul\":6217:6392   */\n      pop\n      jump\t// out\n        /* \"#utility.yul\":6398:6764   */\n    tag_208:\n        /* \"#utility.yul\":6540:6543   */\n      0x00\n        /* \"#utility.yul\":6561:6628   */\n      tag_293\n        /* \"#utility.yul\":6625:6627   */\n      0x19\n        /* \"#utility.yul\":6620:6623   */\n      dup4\n        /* \"#utility.yul\":6561:6628   */\n      tag_204\n      jump\t// in\n    tag_293:\n        /* \"#utility.yul\":6554:6628   */\n      swap2\n      pop\n        /* \"#utility.yul\":6637:6730   */\n      tag_294\n        /* \"#utility.yul\":6726:6729   */\n      dup3\n        /* \"#utility.yul\":6637:6730   */\n      tag_207\n      jump\t// in\n    tag_294:\n        /* \"#utility.yul\":6755:6757   */\n      0x20\n        /* \"#utility.yul\":6750:6753   */\n      dup3\n        /* \"#utility.yul\":6746:6758   */\n      add\n        /* \"#utility.yul\":6739:6758   */\n      swap1\n      pop\n        /* \"#utility.yul\":6398:6764   */\n      swap2\n      swap1\n      pop\n      jump\t// out\n        /* \"#utility.yul\":6770:7189   */\n    tag_80:\n        /* \"#utility.yul\":6936:6940   */\n      0x00\n        /* \"#utility.yul\":6974:6976   */\n      0x20\n        /* \"#utility.yul\":6963:6972   */\n      dup3\n        /* \"#utility.yul\":6959:6977   */\n      add\n        /* \"#utility.yul\":6951:6977   */\n      swap1\n      pop\n        /* \"#utility.yul\":7023:7032   */\n      dup2\n        /* \"#utility.yul\":7017:7021   */\n      dup2\n        /* \"#utility.yul\":7013:7033   */\n      sub\n        /* \"#utility.yul\":7009:7010   */\n      0x00\n        /* \"#utility.yul\":6998:7007   */\n      dup4\n        /* \"#utility.yul\":6994:7011   */\n      add\n        /* \"#utility.yul\":6987:7034   */\n      mstore\n        /* \"#utility.yul\":7051:7182   */\n      tag_296\n        /* \"#utility.yul\":7177:7181   */\n      dup2\n        /* \"#utility.yul\":7051:7182   */\n      tag_208\n      jump\t// in\n    tag_296:\n        /* \"#utility.yul\":7043:7182   */\n      swap1\n      pop\n        /* \"#utility.yul\":6770:7189   */\n      swap2\n      swap1\n      pop\n      jump\t// out\n        /* \"#utility.yul\":7195:7375   */\n    tag_209:\n        /* \"#utility.yul\":7243:7320   */\n      0x4e487b7100000000000000000000000000000000000000000000000000000000\n        /* \"#utility.yul\":7240:7241   */\n      0x00\n        /* \"#utility.yul\":7233:7321   */\n      mstore\n        /* \"#utility.yul\":7340:7344   */\n      0x11\n        /* \"#utility.yul\":7337:7338   */\n      0x04\n        /* \"#utility.yul\":7330:7345   */\n      mstore\n        /* \"#utility.yul\":7364:7368   */\n      0x24\n        /* \"#utility.yul\":7361:7362   */\n      0x00\n        /* \"#utility.yul\":7354:7369   */\n      revert\n        /* \"#utility.yul\":7381:7791   */\n    tag_86:\n        /* \"#utility.yul\":7421:7428   */\n      0x00\n        /* \"#utility.yul\":7444:7464   */\n      tag_299\n        /* \"#utility.yul\":7462:7463   */\n      dup3\n        /* \"#utility.yul\":7444:7464   */\n      tag_185\n      jump\t// in\n    tag_299:\n        /* \"#utility.yul\":7439:7464   */\n      swap2\n      pop\n        /* \"#utility.yul\":7478:7498   */\n      tag_300\n        /* \"#utility.yul\":7496:7497   */\n      dup4\n        /* \"#utility.yul\":7478:7498   */\n      tag_185\n      jump\t// in\n    tag_300:\n        /* \"#utility.yul\":7473:7498   */\n      swap3\n      pop\n        /* \"#utility.yul\":7533:7534   */\n      dup3\n        /* \"#utility.yul\":7530:7531   */\n      dup3\n        /* \"#utility.yul\":7526:7535   */\n      mul\n        /* \"#utility.yul\":7555:7585   */\n      tag_301\n        /* \"#utility.yul\":7573:7584   */\n      dup2\n        /* \"#utility.yul\":7555:7585   */\n      tag_185\n      jump\t// in\n    tag_301:\n        /* \"#utility.yul\":7544:7585   */\n      swap2\n      pop\n        /* \"#utility.yul\":7734:7735   */\n      dup3\n        /* \"#utility.yul\":7725:7732   */\n      dup3\n        /* \"#utility.yul\":7721:7736   */\n      div\n        /* \"#utility.yul\":7718:7719   */\n      dup5\n        /* \"#utility.yul\":7715:7737   */\n      eq\n        /* \"#utility.yul\":7695:7696   */\n      dup4\n        /* \"#utility.yul\":7688:7697   */\n      iszero\n        /* \"#utility.yul\":7668:7751   */\n      or\n        /* \"#utility.yul\":7645:7784   */\n      tag_302\n      jumpi\n        /* \"#utility.yul\":7764:7782   */\n      tag_303\n      tag_209\n      jump\t// in\n    tag_303:\n        /* \"#utility.yul\":7645:7784   */\n    tag_302:\n        /* \"#utility.yul\":7429:7791   */\n      pop\n        /* \"#utility.yul\":7381:7791   */\n      swap3\n      swap2\n      pop\n      pop\n      jump\t// out\n        /* \"#utility.yul\":7797:7977   */\n    tag_210:\n        /* \"#utility.yul\":7845:7922   */\n      0x4e487b7100000000000000000000000000000000000000000000000000000000\n        /* \"#utility.yul\":7842:7843   */\n      0x00\n        /* \"#utility.yul\":7835:7923   */\n      mstore\n        /* \"#utility.yul\":7942:7946   */\n      0x12\n        /* \"#utility.yul\":7939:7940   */\n      0x04\n        /* \"#utility.yul\":7932:7947   */\n      mstore\n        /* \"#utility.yul\":7966:7970   */\n      0x24\n        /* \"#utility.yul\":7963:7964   */\n      0x00\n        /* \"#utility.yul\":7956:7971   */\n      revert\n        /* \"#utility.yul\":7983:8168   */\n    tag_88:\n        /* \"#utility.yul\":8023:8024   */\n      0x00\n        /* \"#utility.yul\":8040:8060   */\n      tag_306\n        /* \"#utility.yul\":8058:8059   */\n      dup3\n        /* \"#utility.yul\":8040:8060   */\n      tag_185\n      jump\t// in\n    tag_306:\n        /* \"#utility.yul\":8035:8060   */\n      swap2\n      pop\n        /* \"#utility.yul\":8074:8094   */\n      tag_307\n        /* \"#utility.yul\":8092:8093   */\n      dup4\n        /* \"#utility.yul\":8074:8094   */\n      tag_185\n      jump\t// in\n    tag_307:\n        /* \"#utility.yul\":8069:8094   */\n      swap3\n      pop\n        /* \"#utility.yul\":8113:8114   */\n      dup3\n        /* \"#utility.yul\":8103:8138   */\n      tag_308\n      jumpi\n        /* \"#utility.yul\":8118:8136   */\n      tag_309\n      tag_210\n      jump\t// in\n    tag_309:\n        /* \"#utility.yul\":8103:8138   */\n    tag_308:\n        /* \"#utility.yul\":8160:8161   */\n      dup3\n        /* \"#utility.yul\":8157:8158   */\n      dup3\n        /* \"#utility.yul\":8153:8162   */\n      div\n        /* \"#utility.yul\":8148:8162   */\n      swap1\n      pop\n        /* \"#utility.yul\":7983:8168   */\n      swap3\n      swap2\n      pop\n      pop\n      jump\t// out\n        /* \"#utility.yul\":8174:8365   */\n    tag_90:\n        /* \"#utility.yul\":8214:8217   */\n      0x00\n        /* \"#utility.yul\":8233:8253   */\n      tag_311\n        /* \"#utility.yul\":8251:8252   */\n      dup3\n        /* \"#utility.yul\":8233:8253   */\n      tag_185\n      jump\t// in\n    tag_311:\n        /* \"#utility.yul\":8228:8253   */\n      swap2\n      pop\n        /* \"#utility.yul\":8267:8287   */\n      tag_312\n        /* \"#utility.yul\":8285:8286   */\n      dup4\n        /* \"#utility.yul\":8267:8287   */\n      tag_185\n      jump\t// in\n    tag_312:\n        /* \"#utility.yul\":8262:8287   */\n      swap3\n      pop\n        /* \"#utility.yul\":8310:8311   */\n      dup3\n        /* \"#utility.yul\":8307:8308   */\n      dup3\n        /* \"#utility.yul\":8303:8312   */\n      add\n        /* \"#utility.yul\":8296:8312   */\n      swap1\n      pop\n        /* \"#utility.yul\":8331:8334   */\n      dup1\n        /* \"#utility.yul\":8328:8329   */\n      dup3\n        /* \"#utility.yul\":8325:8335   */\n      gt\n        /* \"#utility.yul\":8322:8358   */\n      iszero\n      tag_313\n      jumpi\n        /* \"#utility.yul\":8338:8356   */\n      tag_314\n      tag_209\n      jump\t// in\n    tag_314:\n        /* \"#utility.yul\":8322:8358   */\n    tag_313:\n        /* \"#utility.yul\":8174:8365   */\n      swap3\n      swap2\n      pop\n      pop\n      jump\t// out\n        /* \"#utility.yul\":8371:8551   */\n    tag_99:\n        /* \"#utility.yul\":8419:8496   */\n      0x4e487b7100000000000000000000000000000000000000000000000000000000\n        /* \"#utility.yul\":8416:8417   */\n      0x00\n        /* \"#utility.yul\":8409:8497   */\n      mstore\n        /* \"#utility.yul\":8516:8520   */\n      0x32\n        /* \"#utility.yul\":8513:8514   */\n      0x04\n        /* \"#utility.yul\":8506:8521   */\n      mstore\n        /* \"#utility.yul\":8540:8544   */\n      0x24\n        /* \"#utility.yul\":8537:8538   */\n      0x00\n        /* \"#utility.yul\":8530:8545   */\n      revert\n        /* \"#utility.yul\":8557:8751   */\n    tag_104:\n        /* \"#utility.yul\":8597:8601   */\n      0x00\n        /* \"#utility.yul\":8617:8637   */\n      tag_317\n        /* \"#utility.yul\":8635:8636   */\n      dup3\n        /* \"#utility.yul\":8617:8637   */\n      tag_185\n      jump\t// in\n    tag_317:\n        /* \"#utility.yul\":8612:8637   */\n      swap2\n      pop\n        /* \"#utility.yul\":8651:8671   */\n      tag_318\n        /* \"#utility.yul\":8669:8670   */\n      dup4\n        /* \"#utility.yul\":8651:8671   */\n      tag_185\n      jump\t// in\n    tag_318:\n        /* \"#utility.yul\":8646:8671   */\n      swap3\n      pop\n        /* \"#utility.yul\":8695:8696   */\n      dup3\n        /* \"#utility.yul\":8692:8693   */\n      dup3\n        /* \"#utility.yul\":8688:8697   */\n      sub\n        /* \"#utility.yul\":8680:8697   */\n      swap1\n      pop\n        /* \"#utility.yul\":8719:8720   */\n      dup2\n        /* \"#utility.yul\":8713:8717   */\n      dup2\n        /* \"#utility.yul\":8710:8721   */\n      gt\n        /* \"#utility.yul\":8707:8744   */\n      iszero\n      tag_319\n      jumpi\n        /* \"#utility.yul\":8724:8742   */\n      tag_320\n      tag_209\n      jump\t// in\n    tag_320:\n        /* \"#utility.yul\":8707:8744   */\n    tag_319:\n        /* \"#utility.yul\":8557:8751   */\n      swap3\n      swap2\n      pop\n      pop\n      jump\t// out\n        /* \"#utility.yul\":8757:8935   */\n    tag_211:\n        /* \"#utility.yul\":8897:8927   */\n      0x4e6f20746f6b656e7320617661696c61626c6520746f20636c61696d00000000\n        /* \"#utility.yul\":8893:8894   */\n      0x00\n        /* \"#utility.yul\":8885:8891   */\n      dup3\n        /* \"#utility.yul\":8881:8895   */\n      add\n        /* \"#utility.yul\":8874:8928   */\n      mstore\n        /* \"#utility.yul\":8757:8935   */\n      pop\n      jump\t// out\n        /* \"#utility.yul\":8941:9307   */\n    tag_212:\n        /* \"#utility.yul\":9083:9086   */\n      0x00\n        /* \"#utility.yul\":9104:9171   */\n      tag_323\n        /* \"#utility.yul\":9168:9170   */\n      0x1c\n        /* \"#utility.yul\":9163:9166   */\n      dup4\n        /* \"#utility.yul\":9104:9171   */\n      tag_204\n      jump\t// in\n    tag_323:\n        /* \"#utility.yul\":9097:9171   */\n      swap2\n      pop\n        /* \"#utility.yul\":9180:9273   */\n      tag_324\n        /* \"#utility.yul\":9269:9272   */\n      dup3\n        /* \"#utility.yul\":9180:9273   */\n      tag_211\n      jump\t// in\n    tag_324:\n        /* \"#utility.yul\":9298:9300   */\n      0x20\n        /* \"#utility.yul\":9293:9296   */\n      dup3\n        /* \"#utility.yul\":9289:9301   */\n      add\n        /* \"#utility.yul\":9282:9301   */\n      swap1\n      pop\n        /* \"#utility.yul\":8941:9307   */\n      swap2\n      swap1\n      pop\n      jump\t// out\n        /* \"#utility.yul\":9313:9732   */\n    tag_119:\n        /* \"#utility.yul\":9479:9483   */\n      0x00\n        /* \"#utility.yul\":9517:9519   */\n      0x20\n        /* \"#utility.yul\":9506:9515   */\n      dup3\n        /* \"#utility.yul\":9502:9520   */\n      add\n        /* \"#utility.yul\":9494:9520   */\n      swap1\n      pop\n        /* \"#utility.yul\":9566:9575   */\n      dup2\n        /* \"#utility.yul\":9560:9564   */\n      dup2\n        /* \"#utility.yul\":9556:9576   */\n      sub\n        /* \"#utility.yul\":9552:9553   */\n      0x00\n        /* \"#utility.yul\":9541:9550   */\n      dup4\n        /* \"#utility.yul\":9537:9554   */\n      add\n        /* \"#utility.yul\":9530:9577   */\n      mstore\n        /* \"#utility.yul\":9594:9725   */\n      tag_326\n        /* \"#utility.yul\":9720:9724   */\n      dup2\n        /* \"#utility.yul\":9594:9725   */\n      tag_212\n      jump\t// in\n    tag_326:\n        /* \"#utility.yul\":9586:9725   */\n      swap1\n      pop\n        /* \"#utility.yul\":9313:9732   */\n      swap2\n      swap1\n      pop\n      jump\t// out\n        /* \"#utility.yul\":9738:9958   */\n    tag_213:\n        /* \"#utility.yul\":9878:9912   */\n      0x4f6e6c792061646d696e2063616e2063616c6c20746869732066756e6374696f\n        /* \"#utility.yul\":9874:9875   */\n      0x00\n        /* \"#utility.yul\":9866:9872   */\n      dup3\n        /* \"#utility.yul\":9862:9876   */\n      add\n        /* \"#utility.yul\":9855:9913   */\n      mstore\n        /* \"#utility.yul\":9947:9950   */\n      0x6e00000000000000000000000000000000000000000000000000000000000000\n        /* \"#utility.yul\":9942:9944   */\n      0x20\n        /* \"#utility.yul\":9934:9940   */\n      dup3\n        /* \"#utility.yul\":9930:9945   */\n      add\n        /* \"#utility.yul\":9923:9951   */\n      mstore\n        /* \"#utility.yul\":9738:9958   */\n      pop\n      jump\t// out\n        /* \"#utility.yul\":9964:10330   */\n    tag_214:\n        /* \"#utility.yul\":10106:10109   */\n      0x00\n        /* \"#utility.yul\":10127:10194   */\n      tag_329\n        /* \"#utility.yul\":10191:10193   */\n      0x21\n        /* \"#utility.yul\":10186:10189   */\n      dup4\n        /* \"#utility.yul\":10127:10194   */\n      tag_204\n      jump\t// in\n    tag_329:\n        /* \"#utility.yul\":10120:10194   */\n      swap2\n      pop\n        /* \"#utility.yul\":10203:10296   */\n      tag_330\n        /* \"#utility.yul\":10292:10295   */\n      dup3\n        /* \"#utility.yul\":10203:10296   */\n      tag_213\n      jump\t// in\n    tag_330:\n        /* \"#utility.yul\":10321:10323   */\n      0x40\n        /* \"#utility.yul\":10316:10319   */\n      dup3\n        /* \"#utility.yul\":10312:10324   */\n      add\n        /* \"#utility.yul\":10305:10324   */\n      swap1\n      pop\n        /* \"#utility.yul\":9964:10330   */\n      swap2\n      swap1\n      pop\n      jump\t// out\n        /* \"#utility.yul\":10336:10755   */\n    tag_126:\n        /* \"#utility.yul\":10502:10506   */\n      0x00\n        /* \"#utility.yul\":10540:10542   */\n      0x20\n        /* \"#utility.yul\":10529:10538   */\n      dup3\n        /* \"#utility.yul\":10525:10543   */\n      add\n        /* \"#utility.yul\":10517:10543   */\n      swap1\n      pop\n        /* \"#utility.yul\":10589:10598   */\n      dup2\n        /* \"#utility.yul\":10583:10587   */\n      dup2\n        /* \"#utility.yul\":10579:10599   */\n      sub\n        /* \"#utility.yul\":10575:10576   */\n      0x00\n        /* \"#utility.yul\":10564:10573   */\n      dup4\n        /* \"#utility.yul\":10560:10577   */\n      add\n        /* \"#utility.yul\":10553:10600   */\n      mstore\n        /* \"#utility.yul\":10617:10748   */\n      tag_332\n        /* \"#utility.yul\":10743:10747   */\n      dup2\n        /* \"#utility.yul\":10617:10748   */\n      tag_214\n      jump\t// in\n    tag_332:\n        /* \"#utility.yul\":10609:10748   */\n      swap1\n      pop\n        /* \"#utility.yul\":10336:10755   */\n      swap2\n      swap1\n      pop\n      jump\t// out\n        /* \"#utility.yul\":10761:10926   */\n    tag_215:\n        /* \"#utility.yul\":10901:10918   */\n      0x4e6f207374616b657320666f756e640000000000000000000000000000000000\n        /* \"#utility.yul\":10897:10898   */\n      0x00\n        /* \"#utility.yul\":10889:10895   */\n      dup3\n        /* \"#utility.yul\":10885:10899   */\n      add\n        /* \"#utility.yul\":10878:10919   */\n      mstore\n        /* \"#utility.yul\":10761:10926   */\n      pop\n      jump\t// out\n        /* \"#utility.yul\":10932:11298   */\n    tag_216:\n        /* \"#utility.yul\":11074:11077   */\n      0x00\n        /* \"#utility.yul\":11095:11162   */\n      tag_335\n        /* \"#utility.yul\":11159:11161   */\n      0x0f\n        /* \"#utility.yul\":11154:11157   */\n      dup4\n        /* \"#utility.yul\":11095:11162   */\n      tag_204\n      jump\t// in\n    tag_335:\n        /* \"#utility.yul\":11088:11162   */\n      swap2\n      pop\n        /* \"#utility.yul\":11171:11264   */\n      tag_336\n        /* \"#utility.yul\":11260:11263   */\n      dup3\n        /* \"#utility.yul\":11171:11264   */\n      tag_215\n      jump\t// in\n    tag_336:\n        /* \"#utility.yul\":11289:11291   */\n      0x20\n        /* \"#utility.yul\":11284:11287   */\n      dup3\n        /* \"#utility.yul\":11280:11292   */\n      add\n        /* \"#utility.yul\":11273:11292   */\n      swap1\n      pop\n        /* \"#utility.yul\":10932:11298   */\n      swap2\n      swap1\n      pop\n      jump\t// out\n        /* \"#utility.yul\":11304:11723   */\n    tag_133:\n        /* \"#utility.yul\":11470:11474   */\n      0x00\n        /* \"#utility.yul\":11508:11510   */\n      0x20\n        /* \"#utility.yul\":11497:11506   */\n      dup3\n        /* \"#utility.yul\":11493:11511   */\n      add\n        /* \"#utility.yul\":11485:11511   */\n      swap1\n      pop\n        /* \"#utility.yul\":11557:11566   */\n      dup2\n        /* \"#utility.yul\":11551:11555   */\n      dup2\n        /* \"#utility.yul\":11547:11567   */\n      sub\n        /* \"#utility.yul\":11543:11544   */\n      0x00\n        /* \"#utility.yul\":11532:11541   */\n      dup4\n        /* \"#utility.yul\":11528:11545   */\n      add\n        /* \"#utility.yul\":11521:11568   */\n      mstore\n        /* \"#utility.yul\":11585:11716   */\n      tag_338\n        /* \"#utility.yul\":11711:11715   */\n      dup2\n        /* \"#utility.yul\":11585:11716   */\n      tag_216\n      jump\t// in\n    tag_338:\n        /* \"#utility.yul\":11577:11716   */\n      swap1\n      pop\n        /* \"#utility.yul\":11304:11723   */\n      swap2\n      swap1\n      pop\n      jump\t// out\n        /* \"#utility.yul\":11729:11903   */\n    tag_217:\n        /* \"#utility.yul\":11869:11895   */\n      0x4e6f206c6576656c20696e636f6d6520746f20636c61696d0000000000000000\n        /* \"#utility.yul\":11865:11866   */\n      0x00\n        /* \"#utility.yul\":11857:11863   */\n      dup3\n        /* \"#utility.yul\":11853:11867   */\n      add\n        /* \"#utility.yul\":11846:11896   */\n      mstore\n        /* \"#utility.yul\":11729:11903   */\n      pop\n      jump\t// out\n        /* \"#utility.yul\":11909:12275   */\n    tag_218:\n        /* \"#utility.yul\":12051:12054   */\n      0x00\n        /* \"#utility.yul\":12072:12139   */\n      tag_341\n        /* \"#utility.yul\":12136:12138   */\n      0x18\n        /* \"#utility.yul\":12131:12134   */\n      dup4\n        /* \"#utility.yul\":12072:12139   */\n      tag_204\n      jump\t// in\n    tag_341:\n        /* \"#utility.yul\":12065:12139   */\n      swap2\n      pop\n        /* \"#utility.yul\":12148:12241   */\n      tag_342\n        /* \"#utility.yul\":12237:12240   */\n      dup3\n        /* \"#utility.yul\":12148:12241   */\n      tag_217\n      jump\t// in\n    tag_342:\n        /* \"#utility.yul\":12266:12268   */\n      0x20\n        /* \"#utility.yul\":12261:12264   */\n      dup3\n        /* \"#utility.yul\":12257:12269   */\n      add\n        /* \"#utility.yul\":12250:12269   */\n      swap1\n      pop\n        /* \"#utility.yul\":11909:12275   */\n      swap2\n      swap1\n      pop\n      jump\t// out\n        /* \"#utility.yul\":12281:12700   */\n    tag_139:\n        /* \"#utility.yul\":12447:12451   */\n      0x00\n        /* \"#utility.yul\":12485:12487   */\n      0x20\n        /* \"#utility.yul\":12474:12483   */\n      dup3\n        /* \"#utility.yul\":12470:12488   */\n      add\n        /* \"#utility.yul\":12462:12488   */\n      swap1\n      pop\n        /* \"#utility.yul\":12534:12543   */\n      dup2\n        /* \"#utility.yul\":12528:12532   */\n      dup2\n        /* \"#utility.yul\":12524:12544   */\n      sub\n        /* \"#utility.yul\":12520:12521   */\n      0x00\n        /* \"#utility.yul\":12509:12518   */\n      dup4\n        /* \"#utility.yul\":12505:12522   */\n      add\n        /* \"#utility.yul\":12498:12545   */\n      mstore\n        /* \"#utility.yul\":12562:12693   */\n      tag_344\n        /* \"#utility.yul\":12688:12692   */\n      dup2\n        /* \"#utility.yul\":12562:12693   */\n      tag_218\n      jump\t// in\n    tag_344:\n        /* \"#utility.yul\":12554:12693   */\n      swap1\n      pop\n        /* \"#utility.yul\":12281:12700   */\n      swap2\n      swap1\n      pop\n      jump\t// out\n        /* \"#utility.yul\":12706:12884   */\n    tag_219:\n        /* \"#utility.yul\":12846:12876   */\n      0x4e6f20726566657272616c2072657761726420617661696c61626c6500000000\n        /* \"#utility.yul\":12842:12843   */\n      0x00\n        /* \"#utility.yul\":12834:12840   */\n      dup3\n        /* \"#utility.yul\":12830:12844   */\n      add\n        /* \"#utility.yul\":12823:12877   */\n      mstore\n        /* \"#utility.yul\":12706:12884   */\n      pop\n      jump\t// out\n        /* \"#utility.yul\":12890:13256   */\n    tag_220:\n        /* \"#utility.yul\":13032:13035   */\n      0x00\n        /* \"#utility.yul\":13053:13120   */\n      tag_347\n        /* \"#utility.yul\":13117:13119   */\n      0x1c\n        /* \"#utility.yul\":13112:13115   */\n      dup4\n        /* \"#utility.yul\":13053:13120   */\n      tag_204\n      jump\t// in\n    tag_347:\n        /* \"#utility.yul\":13046:13120   */\n      swap2\n      pop\n        /* \"#utility.yul\":13129:13222   */\n      tag_348\n        /* \"#utility.yul\":13218:13221   */\n      dup3\n        /* \"#utility.yul\":13129:13222   */\n      tag_219\n      jump\t// in\n    tag_348:\n        /* \"#utility.yul\":13247:13249   */\n      0x20\n        /* \"#utility.yul\":13242:13245   */\n      dup3\n        /* \"#utility.yul\":13238:13250   */\n      add\n        /* \"#utility.yul\":13231:13250   */\n      swap1\n      pop\n        /* \"#utility.yul\":12890:13256   */\n      swap2\n      swap1\n      pop\n      jump\t// out\n        /* \"#utility.yul\":13262:13681   */\n    tag_148:\n        /* \"#utility.yul\":13428:13432   */\n      0x00\n        /* \"#utility.yul\":13466:13468   */\n      0x20\n        /* \"#utility.yul\":13455:13464   */\n      dup3\n        /* \"#utility.yul\":13451:13469   */\n      add\n        /* \"#utility.yul\":13443:13469   */\n      swap1\n      pop\n        /* \"#utility.yul\":13515:13524   */\n      dup2\n        /* \"#utility.yul\":13509:13513   */\n      dup2\n        /* \"#utility.yul\":13505:13525   */\n      sub\n        /* \"#utility.yul\":13501:13502   */\n      0x00\n        /* \"#utility.yul\":13490:13499   */\n      dup4\n        /* \"#utility.yul\":13486:13503   */\n      add\n        /* \"#utility.yul\":13479:13526   */\n      mstore\n        /* \"#utility.yul\":13543:13674   */\n      tag_350\n        /* \"#utility.yul\":13669:13673   */\n      dup2\n        /* \"#utility.yul\":13543:13674   */\n      tag_220\n      jump\t// in\n    tag_350:\n        /* \"#utility.yul\":13535:13674   */\n      swap1\n      pop\n        /* \"#utility.yul\":13262:13681   */\n      swap2\n      swap1\n      pop\n      jump\t// out\n        /* \"#utility.yul\":13687:14129   */\n    tag_156:\n        /* \"#utility.yul\":13836:13840   */\n      0x00\n        /* \"#utility.yul\":13874:13876   */\n      0x60\n        /* \"#utility.yul\":13863:13872   */\n      dup3\n        /* \"#utility.yul\":13859:13877   */\n      add\n        /* \"#utility.yul\":13851:13877   */\n      swap1\n      pop\n        /* \"#utility.yul\":13887:13958   */\n      tag_352\n        /* \"#utility.yul\":13955:13956   */\n      0x00\n        /* \"#utility.yul\":13944:13953   */\n      dup4\n        /* \"#utility.yul\":13940:13957   */\n      add\n        /* \"#utility.yul\":13931:13937   */\n      dup7\n        /* \"#utility.yul\":13887:13958   */\n      tag_203\n      jump\t// in\n    tag_352:\n        /* \"#utility.yul\":13968:14040   */\n      tag_353\n        /* \"#utility.yul\":14036:14038   */\n      0x20\n        /* \"#utility.yul\":14025:14034   */\n      dup4\n        /* \"#utility.yul\":14021:14039   */\n      add\n        /* \"#utility.yul\":14012:14018   */\n      dup6\n        /* \"#utility.yul\":13968:14040   */\n      tag_203\n      jump\t// in\n    tag_353:\n        /* \"#utility.yul\":14050:14122   */\n      tag_354\n        /* \"#utility.yul\":14118:14120   */\n      0x40\n        /* \"#utility.yul\":14107:14116   */\n      dup4\n        /* \"#utility.yul\":14103:14121   */\n      add\n        /* \"#utility.yul\":14094:14100   */\n      dup5\n        /* \"#utility.yul\":14050:14122   */\n      tag_186\n      jump\t// in\n    tag_354:\n        /* \"#utility.yul\":13687:14129   */\n      swap5\n      swap4\n      pop\n      pop\n      pop\n      pop\n      jump\t// out\n        /* \"#utility.yul\":14135:14467   */\n    tag_178:\n        /* \"#utility.yul\":14256:14260   */\n      0x00\n        /* \"#utility.yul\":14294:14296   */\n      0x40\n        /* \"#utility.yul\":14283:14292   */\n      dup3\n        /* \"#utility.yul\":14279:14297   */\n      add\n        /* \"#utility.yul\":14271:14297   */\n      swap1\n      pop\n        /* \"#utility.yul\":14307:14378   */\n      tag_356\n        /* \"#utility.yul\":14375:14376   */\n      0x00\n        /* \"#utility.yul\":14364:14373   */\n      dup4\n        /* \"#utility.yul\":14360:14377   */\n      add\n        /* \"#utility.yul\":14351:14357   */\n      dup6\n        /* \"#utility.yul\":14307:14378   */\n      tag_203\n      jump\t// in\n    tag_356:\n        /* \"#utility.yul\":14388:14460   */\n      tag_357\n        /* \"#utility.yul\":14456:14458   */\n      0x20\n        /* \"#utility.yul\":14445:14454   */\n      dup4\n        /* \"#utility.yul\":14441:14459   */\n      add\n        /* \"#utility.yul\":14432:14438   */\n      dup5\n        /* \"#utility.yul\":14388:14460   */\n      tag_186\n      jump\t// in\n    tag_357:\n        /* \"#utility.yul\":14135:14467   */\n      swap4\n      swap3\n      pop\n      pop\n      pop\n      jump\t// out\n\n    auxdata: 0xa26469706673582212204b412252bdf208e52d79d66c28d09ac283da7130a0753fd725ebdd08ef642bed64736f6c634300081a0033\n}\n",
				"bytecode": {
					"linkReferences": {},
					"object": "608060405234801561000f575f80fd5b506040516119b53803806119b583398181016040528101906100319190610114565b805f806101000a81548173ffffffffffffffffffffffffffffffffffffffff021916908373ffffffffffffffffffffffffffffffffffffffff1602179055503360015f6101000a81548173ffffffffffffffffffffffffffffffffffffffff021916908373ffffffffffffffffffffffffffffffffffffffff1602179055505061013f565b5f80fd5b5f73ffffffffffffffffffffffffffffffffffffffff82169050919050565b5f6100e3826100ba565b9050919050565b6100f3816100d9565b81146100fd575f80fd5b50565b5f8151905061010e816100ea565b92915050565b5f60208284031215610129576101286100b6565b5b5f61013684828501610100565b91505092915050565b6118698061014c5f395ff3fe608060405234801561000f575f80fd5b50600436106100f3575f3560e01c806360f43fd2116100955780639b4b2c9c116100645780639b4b2c9c14610227578063aa03875e14610231578063e1ba51fb1461024f578063f851a44014610283576100f3565b806360f43fd2146101c35780637e2bc224146101cd5780638af6c259146101eb5780639b2cb5d814610209576100f3565b80635312ea8e116100d15780635312ea8e1461013b57806353aaa63b146101575780635e9d2f90146101875780635f48f393146101a5576100f3565b806313d033c0146100f757806317be3fa51461011557806348c54b9d14610131575b5f80fd5b6100ff6102a1565b60405161010c9190611115565b60405180910390f35b61012f600480360381019061012a91906111b6565b6102a8565b005b610139610606565b005b610155600480360381019061015091906111f4565b610877565b005b610171600480360381019061016c919061121f565b6109e3565b60405161017e9190611115565b60405180910390f35b61018f6109f8565b60405161019c9190611265565b60405180910390f35b6101ad6109fd565b6040516101ba9190611115565b60405180910390f35b6101cb610a03565b005b6101d5610bb4565b6040516101e29190611115565b60405180910390f35b6101f3610bb9565b6040516102009190611115565b60405180910390f35b610211610bc1565b60405161021e9190611115565b60405180910390f35b61022f610bc6565b005b610239610d26565b60405161024691906112d9565b60405180910390f35b610269600480360381019061026491906111b6565b610d49565b60405161027a959493929190611301565b60405180910390f35b61028b610db4565b6040516102989190611352565b60405180910390f35b624f1a0081565b606481101580156102bb57506127108111155b6102fa576040517f08c379a00000000000000000000000000000000000000000000000000000000081526004016102f1906113c5565b60405180910390fd5b3373ffffffffffffffffffffffffffffffffffffffff168273ffffffffffffffffffffffffffffffffffffffff1603610368576040517f08c379a000000000000000000000000000000000000000000000000000000000815260040161035f9061142d565b60405180910390fd5b6103b43330835f8054906101000a900473ffffffffffffffffffffffffffffffffffffffff1673ffffffffffffffffffffffffffffffffffffffff16610dd9909392919063ffffffff16565b5f73ffffffffffffffffffffffffffffffffffffffff168273ffffffffffffffffffffffffffffffffffffffff16146104a6575f60025f8473ffffffffffffffffffffffffffffffffffffffff1673ffffffffffffffffffffffffffffffffffffffff1681526020019081526020015f2090505f818054905011156104a4575f60646005846104439190611478565b61044d91906114e6565b90508060035f8673ffffffffffffffffffffffffffffffffffffffff1673ffffffffffffffffffffffffffffffffffffffff1681526020019081526020015f205f82825461049b9190611516565b92505081905550505b505b60025f3373ffffffffffffffffffffffffffffffffffffffff1673ffffffffffffffffffffffffffffffffffffffff1681526020019081526020015f206040518060a001604052808381526020014281526020015f81526020015f81526020018473ffffffffffffffffffffffffffffffffffffffff16815250908060018154018082558091505060019003905f5260205f2090600502015f909190919091505f820151815f01556020820151816001015560408201518160020155606082015181600301556080820151816004015f6101000a81548173ffffffffffffffffffffffffffffffffffffffff021916908373ffffffffffffffffffffffffffffffffffffffff16021790555050503373ffffffffffffffffffffffffffffffffffffffff167ff9626bca62c59d77fa45a204dc096874ee066a5c5e124aa9ce6c438dbdf7387a826040516105fa9190611115565b60405180910390a25050565b5f60025f3373ffffffffffffffffffffffffffffffffffffffff1673ffffffffffffffffffffffffffffffffffffffff1681526020019081526020015f2090505f805f90505b8280549050811015610798575f83828154811061066c5761066b611549565b5b905f5260205f2090600502019050624f1a00816001015461068d9190611516565b42101561069a575061078b565b5f8160010154426106ab9190611576565b90506301e133808111156106c1576301e1338090505b5f624f1a00826106d19190611576565b90505f62278d00826106e391906114e6565b90505f606482600a875f01546106f99190611478565b6107039190611478565b61070d91906114e6565b90508460020154811115610785575f85600201548261072c9190611576565b905080866002015f8282546107419190611516565b9250508190555080886107549190611516565b9750610783866004015f9054906101000a900473ffffffffffffffffffffffffffffffffffffffff1682610e5b565b505b50505050505b808060010191505061064c565b505f81116107db576040517f08c379a00000000000000000000000000000000000000000000000000000000081526004016107d2906115f3565b60405180910390fd5b61082533825f8054906101000a900473ffffffffffffffffffffffffffffffffffffffff1673ffffffffffffffffffffffffffffffffffffffff16610fe39092919063ffffffff16565b3373ffffffffffffffffffffffffffffffffffffffff167f896e034966eaaf1adc54acc0f257056febbd300c9e47182cf761982cf1f5e4308260405161086b9190611115565b60405180910390a25050565b60015f9054906101000a900473ffffffffffffffffffffffffffffffffffffffff1673ffffffffffffffffffffffffffffffffffffffff163373ffffffffffffffffffffffffffffffffffffffff1614610906576040517f08c379a00000000000000000000000000000000000000000000000000000000081526004016108fd90611681565b60405180910390fd5b61097160015f9054906101000a900473ffffffffffffffffffffffffffffffffffffffff16825f8054906101000a900473ffffffffffffffffffffffffffffffffffffffff1673ffffffffffffffffffffffffffffffffffffffff16610fe39092919063ffffffff16565b60015f9054906101000a900473ffffffffffffffffffffffffffffffffffffffff1673ffffffffffffffffffffffffffffffffffffffff167f5fafa99d0643513820be26656b45130b01e1c03062e1266bf36f88cbd3bd9695826040516109d89190611115565b60405180910390a250565b6003602052805f5260405f205f915090505481565b600381565b61271081565b5f60025f3373ffffffffffffffffffffffffffffffffffffffff1673ffffffffffffffffffffffffffffffffffffffff1681526020019081526020015f2090505f818054905011610a89576040517f08c379a0000000000000000000000000000000000000000000000000000000008152600401610a80906116e9565b60405180910390fd5b5f815f81548110610a9d57610a9c611549565b5b905f5260205f2090600502016003015490505f8111610af1576040517f08c379a0000000000000000000000000000000000000000000000000000000008152600401610ae890611751565b60405180910390fd5b5f825f81548110610b0557610b04611549565b5b905f5260205f20906005020160030181905550610b6233825f8054906101000a900473ffffffffffffffffffffffffffffffffffffffff1673ffffffffffffffffffffffffffffffffffffffff16610fe39092919063ffffffff16565b3373ffffffffffffffffffffffffffffffffffffffff167f8830fd27a530b5f90e62adf0b2d34e36b25aa4f956359df6db4bcdec067f75b182604051610ba89190611115565b60405180910390a25050565b600581565b6301e1338081565b606481565b5f60035f3373ffffffffffffffffffffffffffffffffffffffff1673ffffffffffffffffffffffffffffffffffffffff1681526020019081526020015f205490505f8111610c49576040517f08c379a0000000000000000000000000000000000000000000000000000000008152600401610c40906117b9565b60405180910390fd5b5f60035f3373ffffffffffffffffffffffffffffffffffffffff1673ffffffffffffffffffffffffffffffffffffffff1681526020019081526020015f2081905550610cd533825f8054906101000a900473ffffffffffffffffffffffffffffffffffffffff1673ffffffffffffffffffffffffffffffffffffffff16610fe39092919063ffffffff16565b3373ffffffffffffffffffffffffffffffffffffffff167f5be4d22009fea85381595ed91090bc5c0bc92a93fe07ed7472c5888eb1993f8382604051610d1b9190611115565b60405180910390a250565b5f8054906101000a900473ffffffffffffffffffffffffffffffffffffffff1681565b6002602052815f5260405f208181548110610d62575f80fd5b905f5260205f2090600502015f9150915050805f015490806001015490806002015490806003015490806004015f9054906101000a900473ffffffffffffffffffffffffffffffffffffffff16905085565b60015f9054906101000a900473ffffffffffffffffffffffffffffffffffffffff1681565b610e55848573ffffffffffffffffffffffffffffffffffffffff166323b872dd868686604051602401610e0e939291906117d7565b604051602081830303815290604052915060e01b6020820180517bffffffffffffffffffffffffffffffffffffffffffffffffffffffff8381831617835250505050611062565b50505050565b5f6040518060600160405280600f60ff168152602001600a60ff168152602001600560ff1681525090505f8390505f5b600360ff16811015610fdc575f73ffffffffffffffffffffffffffffffffffffffff168273ffffffffffffffffffffffffffffffffffffffff160315610fdc575f60025f8473ffffffffffffffffffffffffffffffffffffffff1673ffffffffffffffffffffffffffffffffffffffff1681526020019081526020015f2090505f818054905003610f1c5750610fdc565b5f6064858460038110610f3257610f31611549565b5b602002015160ff1687610f459190611478565b610f4f91906114e6565b905080825f81548110610f6557610f64611549565b5b905f5260205f2090600502016003015f828254610f829190611516565b92505081905550815f81548110610f9c57610f9b611549565b5b905f5260205f2090600502016004015f9054906101000a900473ffffffffffffffffffffffffffffffffffffffff16935050508080600101915050610e8b565b5050505050565b61105d838473ffffffffffffffffffffffffffffffffffffffff1663a9059cbb858560405160240161101692919061180c565b604051602081830303815290604052915060e01b6020820180517bffffffffffffffffffffffffffffffffffffffffffffffffffffffff8381831617835250505050611062565b505050565b5f8060205f8451602086015f885af180611081576040513d5f823e3d81fd5b3d92505f519150505f821461109a5760018114156110b5565b5f8473ffffffffffffffffffffffffffffffffffffffff163b145b156110f757836040517f5274afe70000000000000000000000000000000000000000000000000000000081526004016110ee9190611352565b60405180910390fd5b50505050565b5f819050919050565b61110f816110fd565b82525050565b5f6020820190506111285f830184611106565b92915050565b5f80fd5b5f73ffffffffffffffffffffffffffffffffffffffff82169050919050565b5f61115b82611132565b9050919050565b61116b81611151565b8114611175575f80fd5b50565b5f8135905061118681611162565b92915050565b611195816110fd565b811461119f575f80fd5b50565b5f813590506111b08161118c565b92915050565b5f80604083850312156111cc576111cb61112e565b5b5f6111d985828601611178565b92505060206111ea858286016111a2565b9150509250929050565b5f602082840312156112095761120861112e565b5b5f611216848285016111a2565b91505092915050565b5f602082840312156112345761123361112e565b5b5f61124184828501611178565b91505092915050565b5f60ff82169050919050565b61125f8161124a565b82525050565b5f6020820190506112785f830184611256565b92915050565b5f819050919050565b5f6112a161129c61129784611132565b61127e565b611132565b9050919050565b5f6112b282611287565b9050919050565b5f6112c3826112a8565b9050919050565b6112d3816112b9565b82525050565b5f6020820190506112ec5f8301846112ca565b92915050565b6112fb81611151565b82525050565b5f60a0820190506113145f830188611106565b6113216020830187611106565b61132e6040830186611106565b61133b6060830185611106565b61134860808301846112f2565b9695505050505050565b5f6020820190506113655f8301846112f2565b92915050565b5f82825260208201905092915050565b7f5374616b6520616d6f756e74206f7574206f662072616e6765000000000000005f82015250565b5f6113af60198361136b565b91506113ba8261137b565b602082019050919050565b5f6020820190508181035f8301526113dc816113a3565b9050919050565b7f53656c6620726566657272616c206e6f7420616c6c6f776564000000000000005f82015250565b5f61141760198361136b565b9150611422826113e3565b602082019050919050565b5f6020820190508181035f8301526114448161140b565b9050919050565b7f4e487b71000000000000000000000000000000000000000000000000000000005f52601160045260245ffd5b5f611482826110fd565b915061148d836110fd565b925082820261149b816110fd565b915082820484148315176114b2576114b161144b565b5b5092915050565b7f4e487b71000000000000000000000000000000000000000000000000000000005f52601260045260245ffd5b5f6114f0826110fd565b91506114fb836110fd565b92508261150b5761150a6114b9565b5b828204905092915050565b5f611520826110fd565b915061152b836110fd565b92508282019050808211156115435761154261144b565b5b92915050565b7f4e487b71000000000000000000000000000000000000000000000000000000005f52603260045260245ffd5b5f611580826110fd565b915061158b836110fd565b92508282039050818111156115a3576115a261144b565b5b92915050565b7f4e6f20746f6b656e7320617661696c61626c6520746f20636c61696d000000005f82015250565b5f6115dd601c8361136b565b91506115e8826115a9565b602082019050919050565b5f6020820190508181035f83015261160a816115d1565b9050919050565b7f4f6e6c792061646d696e2063616e2063616c6c20746869732066756e6374696f5f8201527f6e00000000000000000000000000000000000000000000000000000000000000602082015250565b5f61166b60218361136b565b915061167682611611565b604082019050919050565b5f6020820190508181035f8301526116988161165f565b9050919050565b7f4e6f207374616b657320666f756e6400000000000000000000000000000000005f82015250565b5f6116d3600f8361136b565b91506116de8261169f565b602082019050919050565b5f6020820190508181035f830152611700816116c7565b9050919050565b7f4e6f206c6576656c20696e636f6d6520746f20636c61696d00000000000000005f82015250565b5f61173b60188361136b565b915061174682611707565b602082019050919050565b5f6020820190508181035f8301526117688161172f565b9050919050565b7f4e6f20726566657272616c2072657761726420617661696c61626c65000000005f82015250565b5f6117a3601c8361136b565b91506117ae8261176f565b602082019050919050565b5f6020820190508181035f8301526117d081611797565b9050919050565b5f6060820190506117ea5f8301866112f2565b6117f760208301856112f2565b6118046040830184611106565b949350505050565b5f60408201905061181f5f8301856112f2565b61182c6020830184611106565b939250505056fea26469706673582212204b412252bdf208e52d79d66c28d09ac283da7130a0753fd725ebdd08ef642bed64736f6c634300081a0033",
					"opcodes": "PUSH1 0x80 PUSH1 0x40 MSTORE CALLVALUE DUP1 ISZERO PUSH2 0xF JUMPI PUSH0 DUP1 REVERT JUMPDEST POP PUSH1 0x40 MLOAD PUSH2 0x19B5 CODESIZE SUB DUP1 PUSH2 0x19B5 DUP4 CODECOPY DUP2 DUP2 ADD PUSH1 0x40 MSTORE DUP2 ADD SWAP1 PUSH2 0x31 SWAP2 SWAP1 PUSH2 0x114 JUMP JUMPDEST DUP1 PUSH0 DUP1 PUSH2 0x100 EXP DUP2 SLOAD DUP2 PUSH20 0xFFFFFFFFFFFFFFFFFFFFFFFFFFFFFFFFFFFFFFFF MUL NOT AND SWAP1 DUP4 PUSH20 0xFFFFFFFFFFFFFFFFFFFFFFFFFFFFFFFFFFFFFFFF AND MUL OR SWAP1 SSTORE POP CALLER PUSH1 0x1 PUSH0 PUSH2 0x100 EXP DUP2 SLOAD DUP2 PUSH20 0xFFFFFFFFFFFFFFFFFFFFFFFFFFFFFFFFFFFFFFFF MUL NOT AND SWAP1 DUP4 PUSH20 0xFFFFFFFFFFFFFFFFFFFFFFFFFFFFFFFFFFFFFFFF AND MUL OR SWAP1 SSTORE POP POP PUSH2 0x13F JUMP JUMPDEST PUSH0 DUP1 REVERT JUMPDEST PUSH0 PUSH20 0xFFFFFFFFFFFFFFFFFFFFFFFFFFFFFFFFFFFFFFFF DUP3 AND SWAP1 POP SWAP2 SWAP1 POP JUMP JUMPDEST PUSH0 PUSH2 0xE3 DUP3 PUSH2 0xBA JUMP JUMPDEST SWAP1 POP SWAP2 SWAP1 POP JUMP JUMPDEST PUSH2 0xF3 DUP2 PUSH2 0xD9 JUMP JUMPDEST DUP2 EQ PUSH2 0xFD JUMPI PUSH0 DUP1 REVERT JUMPDEST POP JUMP JUMPDEST PUSH0 DUP2 MLOAD SWAP1 POP PUSH2 0x10E DUP2 PUSH2 0xEA JUMP JUMPDEST SWAP3 SWAP2 POP POP JUMP JUMPDEST PUSH0 PUSH1 0x20 DUP3 DUP5 SUB SLT ISZERO PUSH2 0x129 JUMPI PUSH2 0x128 PUSH2 0xB6 JUMP JUMPDEST JUMPDEST PUSH0 PUSH2 0x136 DUP5 DUP3 DUP6 ADD PUSH2 0x100 JUMP JUMPDEST SWAP2 POP POP SWAP3 SWAP2 POP POP JUMP JUMPDEST PUSH2 0x1869 DUP1 PUSH2 0x14C PUSH0 CODECOPY PUSH0 RETURN INVALID PUSH1 0x80 PUSH1 0x40 MSTORE CALLVALUE DUP1 ISZERO PUSH2 0xF JUMPI PUSH0 DUP1 REVERT JUMPDEST POP PUSH1 0x4 CALLDATASIZE LT PUSH2 0xF3 JUMPI PUSH0 CALLDATALOAD PUSH1 0xE0 SHR DUP1 PUSH4 0x60F43FD2 GT PUSH2 0x95 JUMPI DUP1 PUSH4 0x9B4B2C9C GT PUSH2 0x64 JUMPI DUP1 PUSH4 0x9B4B2C9C EQ PUSH2 0x227 JUMPI DUP1 PUSH4 0xAA03875E EQ PUSH2 0x231 JUMPI DUP1 PUSH4 0xE1BA51FB EQ PUSH2 0x24F JUMPI DUP1 PUSH4 0xF851A440 EQ PUSH2 0x283 JUMPI PUSH2 0xF3 JUMP JUMPDEST DUP1 PUSH4 0x60F43FD2 EQ PUSH2 0x1C3 JUMPI DUP1 PUSH4 0x7E2BC224 EQ PUSH2 0x1CD JUMPI DUP1 PUSH4 0x8AF6C259 EQ PUSH2 0x1EB JUMPI DUP1 PUSH4 0x9B2CB5D8 EQ PUSH2 0x209 JUMPI PUSH2 0xF3 JUMP JUMPDEST DUP1 PUSH4 0x5312EA8E GT PUSH2 0xD1 JUMPI DUP1 PUSH4 0x5312EA8E EQ PUSH2 0x13B JUMPI DUP1 PUSH4 0x53AAA63B EQ PUSH2 0x157 JUMPI DUP1 PUSH4 0x5E9D2F90 EQ PUSH2 0x187 JUMPI DUP1 PUSH4 0x5F48F393 EQ PUSH2 0x1A5 JUMPI PUSH2 0xF3 JUMP JUMPDEST DUP1 PUSH4 0x13D033C0 EQ PUSH2 0xF7 JUMPI DUP1 PUSH4 0x17BE3FA5 EQ PUSH2 0x115 JUMPI DUP1 PUSH4 0x48C54B9D EQ PUSH2 0x131 JUMPI JUMPDEST PUSH0 DUP1 REVERT JUMPDEST PUSH2 0xFF PUSH2 0x2A1 JUMP JUMPDEST PUSH1 0x40 MLOAD PUSH2 0x10C SWAP2 SWAP1 PUSH2 0x1115 JUMP JUMPDEST PUSH1 0x40 MLOAD DUP1 SWAP2 SUB SWAP1 RETURN JUMPDEST PUSH2 0x12F PUSH1 0x4 DUP1 CALLDATASIZE SUB DUP2 ADD SWAP1 PUSH2 0x12A SWAP2 SWAP1 PUSH2 0x11B6 JUMP JUMPDEST PUSH2 0x2A8 JUMP JUMPDEST STOP JUMPDEST PUSH2 0x139 PUSH2 0x606 JUMP JUMPDEST STOP JUMPDEST PUSH2 0x155 PUSH1 0x4 DUP1 CALLDATASIZE SUB DUP2 ADD SWAP1 PUSH2 0x150 SWAP2 SWAP1 PUSH2 0x11F4 JUMP JUMPDEST PUSH2 0x877 JUMP JUMPDEST STOP JUMPDEST PUSH2 0x171 PUSH1 0x4 DUP1 CALLDATASIZE SUB DUP2 ADD SWAP1 PUSH2 0x16C SWAP2 SWAP1 PUSH2 0x121F JUMP JUMPDEST PUSH2 0x9E3 JUMP JUMPDEST PUSH1 0x40 MLOAD PUSH2 0x17E SWAP2 SWAP1 PUSH2 0x1115 JUMP JUMPDEST PUSH1 0x40 MLOAD DUP1 SWAP2 SUB SWAP1 RETURN JUMPDEST PUSH2 0x18F PUSH2 0x9F8 JUMP JUMPDEST PUSH1 0x40 MLOAD PUSH2 0x19C SWAP2 SWAP1 PUSH2 0x1265 JUMP JUMPDEST PUSH1 0x40 MLOAD DUP1 SWAP2 SUB SWAP1 RETURN JUMPDEST PUSH2 0x1AD PUSH2 0x9FD JUMP JUMPDEST PUSH1 0x40 MLOAD PUSH2 0x1BA SWAP2 SWAP1 PUSH2 0x1115 JUMP JUMPDEST PUSH1 0x40 MLOAD DUP1 SWAP2 SUB SWAP1 RETURN JUMPDEST PUSH2 0x1CB PUSH2 0xA03 JUMP JUMPDEST STOP JUMPDEST PUSH2 0x1D5 PUSH2 0xBB4 JUMP JUMPDEST PUSH1 0x40 MLOAD PUSH2 0x1E2 SWAP2 SWAP1 PUSH2 0x1115 JUMP JUMPDEST PUSH1 0x40 MLOAD DUP1 SWAP2 SUB SWAP1 RETURN JUMPDEST PUSH2 0x1F3 PUSH2 0xBB9 JUMP JUMPDEST PUSH1 0x40 MLOAD PUSH2 0x200 SWAP2 SWAP1 PUSH2 0x1115 JUMP JUMPDEST PUSH1 0x40 MLOAD DUP1 SWAP2 SUB SWAP1 RETURN JUMPDEST PUSH2 0x211 PUSH2 0xBC1 JUMP JUMPDEST PUSH1 0x40 MLOAD PUSH2 0x21E SWAP2 SWAP1 PUSH2 0x1115 JUMP JUMPDEST PUSH1 0x40 MLOAD DUP1 SWAP2 SUB SWAP1 RETURN JUMPDEST PUSH2 0x22F PUSH2 0xBC6 JUMP JUMPDEST STOP JUMPDEST PUSH2 0x239 PUSH2 0xD26 JUMP JUMPDEST PUSH1 0x40 MLOAD PUSH2 0x246 SWAP2 SWAP1 PUSH2 0x12D9 JUMP JUMPDEST PUSH1 0x40 MLOAD DUP1 SWAP2 SUB SWAP1 RETURN JUMPDEST PUSH2 0x269 PUSH1 0x4 DUP1 CALLDATASIZE SUB DUP2 ADD SWAP1 PUSH2 0x264 SWAP2 SWAP1 PUSH2 0x11B6 JUMP JUMPDEST PUSH2 0xD49 JUMP JUMPDEST PUSH1 0x40 MLOAD PUSH2 0x27A SWAP6 SWAP5 SWAP4 SWAP3 SWAP2 SWAP1 PUSH2 0x1301 JUMP JUMPDEST PUSH1 0x40 MLOAD DUP1 SWAP2 SUB SWAP1 RETURN JUMPDEST PUSH2 0x28B PUSH2 0xDB4 JUMP JUMPDEST PUSH1 0x40 MLOAD PUSH2 0x298 SWAP2 SWAP1 PUSH2 0x1352 JUMP JUMPDEST PUSH1 0x40 MLOAD DUP1 SWAP2 SUB SWAP1 RETURN JUMPDEST PUSH3 0x4F1A00 DUP2 JUMP JUMPDEST PUSH1 0x64 DUP2 LT ISZERO DUP1 ISZERO PUSH2 0x2BB JUMPI POP PUSH2 0x2710 DUP2 GT ISZERO JUMPDEST PUSH2 0x2FA JUMPI PUSH1 0x40 MLOAD PUSH32 0x8C379A000000000000000000000000000000000000000000000000000000000 DUP2 MSTORE PUSH1 0x4 ADD PUSH2 0x2F1 SWAP1 PUSH2 0x13C5 JUMP JUMPDEST PUSH1 0x40 MLOAD DUP1 SWAP2 SUB SWAP1 REVERT JUMPDEST CALLER PUSH20 0xFFFFFFFFFFFFFFFFFFFFFFFFFFFFFFFFFFFFFFFF AND DUP3 PUSH20 0xFFFFFFFFFFFFFFFFFFFFFFFFFFFFFFFFFFFFFFFF AND SUB PUSH2 0x368 JUMPI PUSH1 0x40 MLOAD PUSH32 0x8C379A000000000000000000000000000000000000000000000000000000000 DUP2 MSTORE PUSH1 0x4 ADD PUSH2 0x35F SWAP1 PUSH2 0x142D JUMP JUMPDEST PUSH1 0x40 MLOAD DUP1 SWAP2 SUB SWAP1 REVERT JUMPDEST PUSH2 0x3B4 CALLER ADDRESS DUP4 PUSH0 DUP1 SLOAD SWAP1 PUSH2 0x100 EXP SWAP1 DIV PUSH20 0xFFFFFFFFFFFFFFFFFFFFFFFFFFFFFFFFFFFFFFFF AND PUSH20 0xFFFFFFFFFFFFFFFFFFFFFFFFFFFFFFFFFFFFFFFF AND PUSH2 0xDD9 SWAP1 SWAP4 SWAP3 SWAP2 SWAP1 PUSH4 0xFFFFFFFF AND JUMP JUMPDEST PUSH0 PUSH20 0xFFFFFFFFFFFFFFFFFFFFFFFFFFFFFFFFFFFFFFFF AND DUP3 PUSH20 0xFFFFFFFFFFFFFFFFFFFFFFFFFFFFFFFFFFFFFFFF AND EQ PUSH2 0x4A6 JUMPI PUSH0 PUSH1 0x2 PUSH0 DUP5 PUSH20 0xFFFFFFFFFFFFFFFFFFFFFFFFFFFFFFFFFFFFFFFF AND PUSH20 0xFFFFFFFFFFFFFFFFFFFFFFFFFFFFFFFFFFFFFFFF AND DUP2 MSTORE PUSH1 0x20 ADD SWAP1 DUP2 MSTORE PUSH1 0x20 ADD PUSH0 KECCAK256 SWAP1 POP PUSH0 DUP2 DUP1 SLOAD SWAP1 POP GT ISZERO PUSH2 0x4A4 JUMPI PUSH0 PUSH1 0x64 PUSH1 0x5 DUP5 PUSH2 0x443 SWAP2 SWAP1 PUSH2 0x1478 JUMP JUMPDEST PUSH2 0x44D SWAP2 SWAP1 PUSH2 0x14E6 JUMP JUMPDEST SWAP1 POP DUP1 PUSH1 0x3 PUSH0 DUP7 PUSH20 0xFFFFFFFFFFFFFFFFFFFFFFFFFFFFFFFFFFFFFFFF AND PUSH20 0xFFFFFFFFFFFFFFFFFFFFFFFFFFFFFFFFFFFFFFFF AND DUP2 MSTORE PUSH1 0x20 ADD SWAP1 DUP2 MSTORE PUSH1 0x20 ADD PUSH0 KECCAK256 PUSH0 DUP3 DUP3 SLOAD PUSH2 0x49B SWAP2 SWAP1 PUSH2 0x1516 JUMP JUMPDEST SWAP3 POP POP DUP2 SWAP1 SSTORE POP POP JUMPDEST POP JUMPDEST PUSH1 0x2 PUSH0 CALLER PUSH20 0xFFFFFFFFFFFFFFFFFFFFFFFFFFFFFFFFFFFFFFFF AND PUSH20 0xFFFFFFFFFFFFFFFFFFFFFFFFFFFFFFFFFFFFFFFF AND DUP2 MSTORE PUSH1 0x20 ADD SWAP1 DUP2 MSTORE PUSH1 0x20 ADD PUSH0 KECCAK256 PUSH1 0x40 MLOAD DUP1 PUSH1 0xA0 ADD PUSH1 0x40 MSTORE DUP1 DUP4 DUP2 MSTORE PUSH1 0x20 ADD TIMESTAMP DUP2 MSTORE PUSH1 0x20 ADD PUSH0 DUP2 MSTORE PUSH1 0x20 ADD PUSH0 DUP2 MSTORE PUSH1 0x20 ADD DUP5 PUSH20 0xFFFFFFFFFFFFFFFFFFFFFFFFFFFFFFFFFFFFFFFF AND DUP2 MSTORE POP SWAP1 DUP1 PUSH1 0x1 DUP2 SLOAD ADD DUP1 DUP3 SSTORE DUP1 SWAP2 POP POP PUSH1 0x1 SWAP1 SUB SWAP1 PUSH0 MSTORE PUSH1 0x20 PUSH0 KECCAK256 SWAP1 PUSH1 0x5 MUL ADD PUSH0 SWAP1 SWAP2 SWAP1 SWAP2 SWAP1 SWAP2 POP PUSH0 DUP3 ADD MLOAD DUP2 PUSH0 ADD SSTORE PUSH1 0x20 DUP3 ADD MLOAD DUP2 PUSH1 0x1 ADD SSTORE PUSH1 0x40 DUP3 ADD MLOAD DUP2 PUSH1 0x2 ADD SSTORE PUSH1 0x60 DUP3 ADD MLOAD DUP2 PUSH1 0x3 ADD SSTORE PUSH1 0x80 DUP3 ADD MLOAD DUP2 PUSH1 0x4 ADD PUSH0 PUSH2 0x100 EXP DUP2 SLOAD DUP2 PUSH20 0xFFFFFFFFFFFFFFFFFFFFFFFFFFFFFFFFFFFFFFFF MUL NOT AND SWAP1 DUP4 PUSH20 0xFFFFFFFFFFFFFFFFFFFFFFFFFFFFFFFFFFFFFFFF AND MUL OR SWAP1 SSTORE POP POP POP CALLER PUSH20 0xFFFFFFFFFFFFFFFFFFFFFFFFFFFFFFFFFFFFFFFF AND PUSH32 0xF9626BCA62C59D77FA45A204DC096874EE066A5C5E124AA9CE6C438DBDF7387A DUP3 PUSH1 0x40 MLOAD PUSH2 0x5FA SWAP2 SWAP1 PUSH2 0x1115 JUMP JUMPDEST PUSH1 0x40 MLOAD DUP1 SWAP2 SUB SWAP1 LOG2 POP POP JUMP JUMPDEST PUSH0 PUSH1 0x2 PUSH0 CALLER PUSH20 0xFFFFFFFFFFFFFFFFFFFFFFFFFFFFFFFFFFFFFFFF AND PUSH20 0xFFFFFFFFFFFFFFFFFFFFFFFFFFFFFFFFFFFFFFFF AND DUP2 MSTORE PUSH1 0x20 ADD SWAP1 DUP2 MSTORE PUSH1 0x20 ADD PUSH0 KECCAK256 SWAP1 POP PUSH0 DUP1 PUSH0 SWAP1 POP JUMPDEST DUP3 DUP1 SLOAD SWAP1 POP DUP2 LT ISZERO PUSH2 0x798 JUMPI PUSH0 DUP4 DUP3 DUP2 SLOAD DUP2 LT PUSH2 0x66C JUMPI PUSH2 0x66B PUSH2 0x1549 JUMP JUMPDEST JUMPDEST SWAP1 PUSH0 MSTORE PUSH1 0x20 PUSH0 KECCAK256 SWAP1 PUSH1 0x5 MUL ADD SWAP1 POP PUSH3 0x4F1A00 DUP2 PUSH1 0x1 ADD SLOAD PUSH2 0x68D SWAP2 SWAP1 PUSH2 0x1516 JUMP JUMPDEST TIMESTAMP LT ISZERO PUSH2 0x69A JUMPI POP PUSH2 0x78B JUMP JUMPDEST PUSH0 DUP2 PUSH1 0x1 ADD SLOAD TIMESTAMP PUSH2 0x6AB SWAP2 SWAP1 PUSH2 0x1576 JUMP JUMPDEST SWAP1 POP PUSH4 0x1E13380 DUP2 GT ISZERO PUSH2 0x6C1 JUMPI PUSH4 0x1E13380 SWAP1 POP JUMPDEST PUSH0 PUSH3 0x4F1A00 DUP3 PUSH2 0x6D1 SWAP2 SWAP1 PUSH2 0x1576 JUMP JUMPDEST SWAP1 POP PUSH0 PUSH3 0x278D00 DUP3 PUSH2 0x6E3 SWAP2 SWAP1 PUSH2 0x14E6 JUMP JUMPDEST SWAP1 POP PUSH0 PUSH1 0x64 DUP3 PUSH1 0xA DUP8 PUSH0 ADD SLOAD PUSH2 0x6F9 SWAP2 SWAP1 PUSH2 0x1478 JUMP JUMPDEST PUSH2 0x703 SWAP2 SWAP1 PUSH2 0x1478 JUMP JUMPDEST PUSH2 0x70D SWAP2 SWAP1 PUSH2 0x14E6 JUMP JUMPDEST SWAP1 POP DUP5 PUSH1 0x2 ADD SLOAD DUP2 GT ISZERO PUSH2 0x785 JUMPI PUSH0 DUP6 PUSH1 0x2 ADD SLOAD DUP3 PUSH2 0x72C SWAP2 SWAP1 PUSH2 0x1576 JUMP JUMPDEST SWAP1 POP DUP1 DUP7 PUSH1 0x2 ADD PUSH0 DUP3 DUP3 SLOAD PUSH2 0x741 SWAP2 SWAP1 PUSH2 0x1516 JUMP JUMPDEST SWAP3 POP POP DUP2 SWAP1 SSTORE POP DUP1 DUP9 PUSH2 0x754 SWAP2 SWAP1 PUSH2 0x1516 JUMP JUMPDEST SWAP8 POP PUSH2 0x783 DUP7 PUSH1 0x4 ADD PUSH0 SWAP1 SLOAD SWAP1 PUSH2 0x100 EXP SWAP1 DIV PUSH20 0xFFFFFFFFFFFFFFFFFFFFFFFFFFFFFFFFFFFFFFFF AND DUP3 PUSH2 0xE5B JUMP JUMPDEST POP JUMPDEST POP POP POP POP POP JUMPDEST DUP1 DUP1 PUSH1 0x1 ADD SWAP2 POP POP PUSH2 0x64C JUMP JUMPDEST POP PUSH0 DUP2 GT PUSH2 0x7DB JUMPI PUSH1 0x40 MLOAD PUSH32 0x8C379A000000000000000000000000000000000000000000000000000000000 DUP2 MSTORE PUSH1 0x4 ADD PUSH2 0x7D2 SWAP1 PUSH2 0x15F3 JUMP JUMPDEST PUSH1 0x40 MLOAD DUP1 SWAP2 SUB SWAP1 REVERT JUMPDEST PUSH2 0x825 CALLER DUP3 PUSH0 DUP1 SLOAD SWAP1 PUSH2 0x100 EXP SWAP1 DIV PUSH20 0xFFFFFFFFFFFFFFFFFFFFFFFFFFFFFFFFFFFFFFFF AND PUSH20 0xFFFFFFFFFFFFFFFFFFFFFFFFFFFFFFFFFFFFFFFF AND PUSH2 0xFE3 SWAP1 SWAP3 SWAP2 SWAP1 PUSH4 0xFFFFFFFF AND JUMP JUMPDEST CALLER PUSH20 0xFFFFFFFFFFFFFFFFFFFFFFFFFFFFFFFFFFFFFFFF AND PUSH32 0x896E034966EAAF1ADC54ACC0F257056FEBBD300C9E47182CF761982CF1F5E430 DUP3 PUSH1 0x40 MLOAD PUSH2 0x86B SWAP2 SWAP1 PUSH2 0x1115 JUMP JUMPDEST PUSH1 0x40 MLOAD DUP1 SWAP2 SUB SWAP1 LOG2 POP POP JUMP JUMPDEST PUSH1 0x1 PUSH0 SWAP1 SLOAD SWAP1 PUSH2 0x100 EXP SWAP1 DIV PUSH20 0xFFFFFFFFFFFFFFFFFFFFFFFFFFFFFFFFFFFFFFFF AND PUSH20 0xFFFFFFFFFFFFFFFFFFFFFFFFFFFFFFFFFFFFFFFF AND CALLER PUSH20 0xFFFFFFFFFFFFFFFFFFFFFFFFFFFFFFFFFFFFFFFF AND EQ PUSH2 0x906 JUMPI PUSH1 0x40 MLOAD PUSH32 0x8C379A000000000000000000000000000000000000000000000000000000000 DUP2 MSTORE PUSH1 0x4 ADD PUSH2 0x8FD SWAP1 PUSH2 0x1681 JUMP JUMPDEST PUSH1 0x40 MLOAD DUP1 SWAP2 SUB SWAP1 REVERT JUMPDEST PUSH2 0x971 PUSH1 0x1 PUSH0 SWAP1 SLOAD SWAP1 PUSH2 0x100 EXP SWAP1 DIV PUSH20 0xFFFFFFFFFFFFFFFFFFFFFFFFFFFFFFFFFFFFFFFF AND DUP3 PUSH0 DUP1 SLOAD SWAP1 PUSH2 0x100 EXP SWAP1 DIV PUSH20 0xFFFFFFFFFFFFFFFFFFFFFFFFFFFFFFFFFFFFFFFF AND PUSH20 0xFFFFFFFFFFFFFFFFFFFFFFFFFFFFFFFFFFFFFFFF AND PUSH2 0xFE3 SWAP1 SWAP3 SWAP2 SWAP1 PUSH4 0xFFFFFFFF AND JUMP JUMPDEST PUSH1 0x1 PUSH0 SWAP1 SLOAD SWAP1 PUSH2 0x100 EXP SWAP1 DIV PUSH20 0xFFFFFFFFFFFFFFFFFFFFFFFFFFFFFFFFFFFFFFFF AND PUSH20 0xFFFFFFFFFFFFFFFFFFFFFFFFFFFFFFFFFFFFFFFF AND PUSH32 0x5FAFA99D0643513820BE26656B45130B01E1C03062E1266BF36F88CBD3BD9695 DUP3 PUSH1 0x40 MLOAD PUSH2 0x9D8 SWAP2 SWAP1 PUSH2 0x1115 JUMP JUMPDEST PUSH1 0x40 MLOAD DUP1 SWAP2 SUB SWAP1 LOG2 POP JUMP JUMPDEST PUSH1 0x3 PUSH1 0x20 MSTORE DUP1 PUSH0 MSTORE PUSH1 0x40 PUSH0 KECCAK256 PUSH0 SWAP2 POP SWAP1 POP SLOAD DUP2 JUMP JUMPDEST PUSH1 0x3 DUP2 JUMP JUMPDEST PUSH2 0x2710 DUP2 JUMP JUMPDEST PUSH0 PUSH1 0x2 PUSH0 CALLER PUSH20 0xFFFFFFFFFFFFFFFFFFFFFFFFFFFFFFFFFFFFFFFF AND PUSH20 0xFFFFFFFFFFFFFFFFFFFFFFFFFFFFFFFFFFFFFFFF AND DUP2 MSTORE PUSH1 0x20 ADD SWAP1 DUP2 MSTORE PUSH1 0x20 ADD PUSH0 KECCAK256 SWAP1 POP PUSH0 DUP2 DUP1 SLOAD SWAP1 POP GT PUSH2 0xA89 JUMPI PUSH1 0x40 MLOAD PUSH32 0x8C379A000000000000000000000000000000000000000000000000000000000 DUP2 MSTORE PUSH1 0x4 ADD PUSH2 0xA80 SWAP1 PUSH2 0x16E9 JUMP JUMPDEST PUSH1 0x40 MLOAD DUP1 SWAP2 SUB SWAP1 REVERT JUMPDEST PUSH0 DUP2 PUSH0 DUP2 SLOAD DUP2 LT PUSH2 0xA9D JUMPI PUSH2 0xA9C PUSH2 0x1549 JUMP JUMPDEST JUMPDEST SWAP1 PUSH0 MSTORE PUSH1 0x20 PUSH0 KECCAK256 SWAP1 PUSH1 0x5 MUL ADD PUSH1 0x3 ADD SLOAD SWAP1 POP PUSH0 DUP2 GT PUSH2 0xAF1 JUMPI PUSH1 0x40 MLOAD PUSH32 0x8C379A000000000000000000000000000000000000000000000000000000000 DUP2 MSTORE PUSH1 0x4 ADD PUSH2 0xAE8 SWAP1 PUSH2 0x1751 JUMP JUMPDEST PUSH1 0x40 MLOAD DUP1 SWAP2 SUB SWAP1 REVERT JUMPDEST PUSH0 DUP3 PUSH0 DUP2 SLOAD DUP2 LT PUSH2 0xB05 JUMPI PUSH2 0xB04 PUSH2 0x1549 JUMP JUMPDEST JUMPDEST SWAP1 PUSH0 MSTORE PUSH1 0x20 PUSH0 KECCAK256 SWAP1 PUSH1 0x5 MUL ADD PUSH1 0x3 ADD DUP2 SWAP1 SSTORE POP PUSH2 0xB62 CALLER DUP3 PUSH0 DUP1 SLOAD SWAP1 PUSH2 0x100 EXP SWAP1 DIV PUSH20 0xFFFFFFFFFFFFFFFFFFFFFFFFFFFFFFFFFFFFFFFF AND PUSH20 0xFFFFFFFFFFFFFFFFFFFFFFFFFFFFFFFFFFFFFFFF AND PUSH2 0xFE3 SWAP1 SWAP3 SWAP2 SWAP1 PUSH4 0xFFFFFFFF AND JUMP JUMPDEST CALLER PUSH20 0xFFFFFFFFFFFFFFFFFFFFFFFFFFFFFFFFFFFFFFFF AND PUSH32 0x8830FD27A530B5F90E62ADF0B2D34E36B25AA4F956359DF6DB4BCDEC067F75B1 DUP3 PUSH1 0x40 MLOAD PUSH2 0xBA8 SWAP2 SWAP1 PUSH2 0x1115 JUMP JUMPDEST PUSH1 0x40 MLOAD DUP1 SWAP2 SUB SWAP1 LOG2 POP POP JUMP JUMPDEST PUSH1 0x5 DUP2 JUMP JUMPDEST PUSH4 0x1E13380 DUP2 JUMP JUMPDEST PUSH1 0x64 DUP2 JUMP JUMPDEST PUSH0 PUSH1 0x3 PUSH0 CALLER PUSH20 0xFFFFFFFFFFFFFFFFFFFFFFFFFFFFFFFFFFFFFFFF AND PUSH20 0xFFFFFFFFFFFFFFFFFFFFFFFFFFFFFFFFFFFFFFFF AND DUP2 MSTORE PUSH1 0x20 ADD SWAP1 DUP2 MSTORE PUSH1 0x20 ADD PUSH0 KECCAK256 SLOAD SWAP1 POP PUSH0 DUP2 GT PUSH2 0xC49 JUMPI PUSH1 0x40 MLOAD PUSH32 0x8C379A000000000000000000000000000000000000000000000000000000000 DUP2 MSTORE PUSH1 0x4 ADD PUSH2 0xC40 SWAP1 PUSH2 0x17B9 JUMP JUMPDEST PUSH1 0x40 MLOAD DUP1 SWAP2 SUB SWAP1 REVERT JUMPDEST PUSH0 PUSH1 0x3 PUSH0 CALLER PUSH20 0xFFFFFFFFFFFFFFFFFFFFFFFFFFFFFFFFFFFFFFFF AND PUSH20 0xFFFFFFFFFFFFFFFFFFFFFFFFFFFFFFFFFFFFFFFF AND DUP2 MSTORE PUSH1 0x20 ADD SWAP1 DUP2 MSTORE PUSH1 0x20 ADD PUSH0 KECCAK256 DUP2 SWAP1 SSTORE POP PUSH2 0xCD5 CALLER DUP3 PUSH0 DUP1 SLOAD SWAP1 PUSH2 0x100 EXP SWAP1 DIV PUSH20 0xFFFFFFFFFFFFFFFFFFFFFFFFFFFFFFFFFFFFFFFF AND PUSH20 0xFFFFFFFFFFFFFFFFFFFFFFFFFFFFFFFFFFFFFFFF AND PUSH2 0xFE3 SWAP1 SWAP3 SWAP2 SWAP1 PUSH4 0xFFFFFFFF AND JUMP JUMPDEST CALLER PUSH20 0xFFFFFFFFFFFFFFFFFFFFFFFFFFFFFFFFFFFFFFFF AND PUSH32 0x5BE4D22009FEA85381595ED91090BC5C0BC92A93FE07ED7472C5888EB1993F83 DUP3 PUSH1 0x40 MLOAD PUSH2 0xD1B SWAP2 SWAP1 PUSH2 0x1115 JUMP JUMPDEST PUSH1 0x40 MLOAD DUP1 SWAP2 SUB SWAP1 LOG2 POP JUMP JUMPDEST PUSH0 DUP1 SLOAD SWAP1 PUSH2 0x100 EXP SWAP1 DIV PUSH20 0xFFFFFFFFFFFFFFFFFFFFFFFFFFFFFFFFFFFFFFFF AND DUP2 JUMP JUMPDEST PUSH1 0x2 PUSH1 0x20 MSTORE DUP2 PUSH0 MSTORE PUSH1 0x40 PUSH0 KECCAK256 DUP2 DUP2 SLOAD DUP2 LT PUSH2 0xD62 JUMPI PUSH0 DUP1 REVERT JUMPDEST SWAP1 PUSH0 MSTORE PUSH1 0x20 PUSH0 KECCAK256 SWAP1 PUSH1 0x5 MUL ADD PUSH0 SWAP2 POP SWAP2 POP POP DUP1 PUSH0 ADD SLOAD SWAP1 DUP1 PUSH1 0x1 ADD SLOAD SWAP1 DUP1 PUSH1 0x2 ADD SLOAD SWAP1 DUP1 PUSH1 0x3 ADD SLOAD SWAP1 DUP1 PUSH1 0x4 ADD PUSH0 SWAP1 SLOAD SWAP1 PUSH2 0x100 EXP SWAP1 DIV PUSH20 0xFFFFFFFFFFFFFFFFFFFFFFFFFFFFFFFFFFFFFFFF AND SWAP1 POP DUP6 JUMP JUMPDEST PUSH1 0x1 PUSH0 SWAP1 SLOAD SWAP1 PUSH2 0x100 EXP SWAP1 DIV PUSH20 0xFFFFFFFFFFFFFFFFFFFFFFFFFFFFFFFFFFFFFFFF AND DUP2 JUMP JUMPDEST PUSH2 0xE55 DUP5 DUP6 PUSH20 0xFFFFFFFFFFFFFFFFFFFFFFFFFFFFFFFFFFFFFFFF AND PUSH4 0x23B872DD DUP7 DUP7 DUP7 PUSH1 0x40 MLOAD PUSH1 0x24 ADD PUSH2 0xE0E SWAP4 SWAP3 SWAP2 SWAP1 PUSH2 0x17D7 JUMP JUMPDEST PUSH1 0x40 MLOAD PUSH1 0x20 DUP2 DUP4 SUB SUB DUP2 MSTORE SWAP1 PUSH1 0x40 MSTORE SWAP2 POP PUSH1 0xE0 SHL PUSH1 0x20 DUP3 ADD DUP1 MLOAD PUSH28 0xFFFFFFFFFFFFFFFFFFFFFFFFFFFFFFFFFFFFFFFFFFFFFFFFFFFFFFFF DUP4 DUP2 DUP4 AND OR DUP4 MSTORE POP POP POP POP PUSH2 0x1062 JUMP JUMPDEST POP POP POP POP JUMP JUMPDEST PUSH0 PUSH1 0x40 MLOAD DUP1 PUSH1 0x60 ADD PUSH1 0x40 MSTORE DUP1 PUSH1 0xF PUSH1 0xFF AND DUP2 MSTORE PUSH1 0x20 ADD PUSH1 0xA PUSH1 0xFF AND DUP2 MSTORE PUSH1 0x20 ADD PUSH1 0x5 PUSH1 0xFF AND DUP2 MSTORE POP SWAP1 POP PUSH0 DUP4 SWAP1 POP PUSH0 JUMPDEST PUSH1 0x3 PUSH1 0xFF AND DUP2 LT ISZERO PUSH2 0xFDC JUMPI PUSH0 PUSH20 0xFFFFFFFFFFFFFFFFFFFFFFFFFFFFFFFFFFFFFFFF AND DUP3 PUSH20 0xFFFFFFFFFFFFFFFFFFFFFFFFFFFFFFFFFFFFFFFF AND SUB ISZERO PUSH2 0xFDC JUMPI PUSH0 PUSH1 0x2 PUSH0 DUP5 PUSH20 0xFFFFFFFFFFFFFFFFFFFFFFFFFFFFFFFFFFFFFFFF AND PUSH20 0xFFFFFFFFFFFFFFFFFFFFFFFFFFFFFFFFFFFFFFFF AND DUP2 MSTORE PUSH1 0x20 ADD SWAP1 DUP2 MSTORE PUSH1 0x20 ADD PUSH0 KECCAK256 SWAP1 POP PUSH0 DUP2 DUP1 SLOAD SWAP1 POP SUB PUSH2 0xF1C JUMPI POP PUSH2 0xFDC JUMP JUMPDEST PUSH0 PUSH1 0x64 DUP6 DUP5 PUSH1 0x3 DUP2 LT PUSH2 0xF32 JUMPI PUSH2 0xF31 PUSH2 0x1549 JUMP JUMPDEST JUMPDEST PUSH1 0x20 MUL ADD MLOAD PUSH1 0xFF AND DUP8 PUSH2 0xF45 SWAP2 SWAP1 PUSH2 0x1478 JUMP JUMPDEST PUSH2 0xF4F SWAP2 SWAP1 PUSH2 0x14E6 JUMP JUMPDEST SWAP1 POP DUP1 DUP3 PUSH0 DUP2 SLOAD DUP2 LT PUSH2 0xF65 JUMPI PUSH2 0xF64 PUSH2 0x1549 JUMP JUMPDEST JUMPDEST SWAP1 PUSH0 MSTORE PUSH1 0x20 PUSH0 KECCAK256 SWAP1 PUSH1 0x5 MUL ADD PUSH1 0x3 ADD PUSH0 DUP3 DUP3 SLOAD PUSH2 0xF82 SWAP2 SWAP1 PUSH2 0x1516 JUMP JUMPDEST SWAP3 POP POP DUP2 SWAP1 SSTORE POP DUP2 PUSH0 DUP2 SLOAD DUP2 LT PUSH2 0xF9C JUMPI PUSH2 0xF9B PUSH2 0x1549 JUMP JUMPDEST JUMPDEST SWAP1 PUSH0 MSTORE PUSH1 0x20 PUSH0 KECCAK256 SWAP1 PUSH1 0x5 MUL ADD PUSH1 0x4 ADD PUSH0 SWAP1 SLOAD SWAP1 PUSH2 0x100 EXP SWAP1 DIV PUSH20 0xFFFFFFFFFFFFFFFFFFFFFFFFFFFFFFFFFFFFFFFF AND SWAP4 POP POP POP DUP1 DUP1 PUSH1 0x1 ADD SWAP2 POP POP PUSH2 0xE8B JUMP JUMPDEST POP POP POP POP POP JUMP JUMPDEST PUSH2 0x105D DUP4 DUP5 PUSH20 0xFFFFFFFFFFFFFFFFFFFFFFFFFFFFFFFFFFFFFFFF AND PUSH4 0xA9059CBB DUP6 DUP6 PUSH1 0x40 MLOAD PUSH1 0x24 ADD PUSH2 0x1016 SWAP3 SWAP2 SWAP1 PUSH2 0x180C JUMP JUMPDEST PUSH1 0x40 MLOAD PUSH1 0x20 DUP2 DUP4 SUB SUB DUP2 MSTORE SWAP1 PUSH1 0x40 MSTORE SWAP2 POP PUSH1 0xE0 SHL PUSH1 0x20 DUP3 ADD DUP1 MLOAD PUSH28 0xFFFFFFFFFFFFFFFFFFFFFFFFFFFFFFFFFFFFFFFFFFFFFFFFFFFFFFFF DUP4 DUP2 DUP4 AND OR DUP4 MSTORE POP POP POP POP PUSH2 0x1062 JUMP JUMPDEST POP POP POP JUMP JUMPDEST PUSH0 DUP1 PUSH1 0x20 PUSH0 DUP5 MLOAD PUSH1 0x20 DUP7 ADD PUSH0 DUP9 GAS CALL DUP1 PUSH2 0x1081 JUMPI PUSH1 0x40 MLOAD RETURNDATASIZE PUSH0 DUP3 RETURNDATACOPY RETURNDATASIZE DUP2 REVERT JUMPDEST RETURNDATASIZE SWAP3 POP PUSH0 MLOAD SWAP2 POP POP PUSH0 DUP3 EQ PUSH2 0x109A JUMPI PUSH1 0x1 DUP2 EQ ISZERO PUSH2 0x10B5 JUMP JUMPDEST PUSH0 DUP5 PUSH20 0xFFFFFFFFFFFFFFFFFFFFFFFFFFFFFFFFFFFFFFFF AND EXTCODESIZE EQ JUMPDEST ISZERO PUSH2 0x10F7 JUMPI DUP4 PUSH1 0x40 MLOAD PUSH32 0x5274AFE700000000000000000000000000000000000000000000000000000000 DUP2 MSTORE PUSH1 0x4 ADD PUSH2 0x10EE SWAP2 SWAP1 PUSH2 0x1352 JUMP JUMPDEST PUSH1 0x40 MLOAD DUP1 SWAP2 SUB SWAP1 REVERT JUMPDEST POP POP POP POP JUMP JUMPDEST PUSH0 DUP2 SWAP1 POP SWAP2 SWAP1 POP JUMP JUMPDEST PUSH2 0x110F DUP2 PUSH2 0x10FD JUMP JUMPDEST DUP3 MSTORE POP POP JUMP JUMPDEST PUSH0 PUSH1 0x20 DUP3 ADD SWAP1 POP PUSH2 0x1128 PUSH0 DUP4 ADD DUP5 PUSH2 0x1106 JUMP JUMPDEST SWAP3 SWAP2 POP POP JUMP JUMPDEST PUSH0 DUP1 REVERT JUMPDEST PUSH0 PUSH20 0xFFFFFFFFFFFFFFFFFFFFFFFFFFFFFFFFFFFFFFFF DUP3 AND SWAP1 POP SWAP2 SWAP1 POP JUMP JUMPDEST PUSH0 PUSH2 0x115B DUP3 PUSH2 0x1132 JUMP JUMPDEST SWAP1 POP SWAP2 SWAP1 POP JUMP JUMPDEST PUSH2 0x116B DUP2 PUSH2 0x1151 JUMP JUMPDEST DUP2 EQ PUSH2 0x1175 JUMPI PUSH0 DUP1 REVERT JUMPDEST POP JUMP JUMPDEST PUSH0 DUP2 CALLDATALOAD SWAP1 POP PUSH2 0x1186 DUP2 PUSH2 0x1162 JUMP JUMPDEST SWAP3 SWAP2 POP POP JUMP JUMPDEST PUSH2 0x1195 DUP2 PUSH2 0x10FD JUMP JUMPDEST DUP2 EQ PUSH2 0x119F JUMPI PUSH0 DUP1 REVERT JUMPDEST POP JUMP JUMPDEST PUSH0 DUP2 CALLDATALOAD SWAP1 POP PUSH2 0x11B0 DUP2 PUSH2 0x118C JUMP JUMPDEST SWAP3 SWAP2 POP POP JUMP JUMPDEST PUSH0 DUP1 PUSH1 0x40 DUP4 DUP6 SUB SLT ISZERO PUSH2 0x11CC JUMPI PUSH2 0x11CB PUSH2 0x112E JUMP JUMPDEST JUMPDEST PUSH0 PUSH2 0x11D9 DUP6 DUP3 DUP7 ADD PUSH2 0x1178 JUMP JUMPDEST SWAP3 POP POP PUSH1 0x20 PUSH2 0x11EA DUP6 DUP3 DUP7 ADD PUSH2 0x11A2 JUMP JUMPDEST SWAP2 POP POP SWAP3 POP SWAP3 SWAP1 POP JUMP JUMPDEST PUSH0 PUSH1 0x20 DUP3 DUP5 SUB SLT ISZERO PUSH2 0x1209 JUMPI PUSH2 0x1208 PUSH2 0x112E JUMP JUMPDEST JUMPDEST PUSH0 PUSH2 0x1216 DUP5 DUP3 DUP6 ADD PUSH2 0x11A2 JUMP JUMPDEST SWAP2 POP POP SWAP3 SWAP2 POP POP JUMP JUMPDEST PUSH0 PUSH1 0x20 DUP3 DUP5 SUB SLT ISZERO PUSH2 0x1234 JUMPI PUSH2 0x1233 PUSH2 0x112E JUMP JUMPDEST JUMPDEST PUSH0 PUSH2 0x1241 DUP5 DUP3 DUP6 ADD PUSH2 0x1178 JUMP JUMPDEST SWAP2 POP POP SWAP3 SWAP2 POP POP JUMP JUMPDEST PUSH0 PUSH1 0xFF DUP3 AND SWAP1 POP SWAP2 SWAP1 POP JUMP JUMPDEST PUSH2 0x125F DUP2 PUSH2 0x124A JUMP JUMPDEST DUP3 MSTORE POP POP JUMP JUMPDEST PUSH0 PUSH1 0x20 DUP3 ADD SWAP1 POP PUSH2 0x1278 PUSH0 DUP4 ADD DUP5 PUSH2 0x1256 JUMP JUMPDEST SWAP3 SWAP2 POP POP JUMP JUMPDEST PUSH0 DUP2 SWAP1 POP SWAP2 SWAP1 POP JUMP JUMPDEST PUSH0 PUSH2 0x12A1 PUSH2 0x129C PUSH2 0x1297 DUP5 PUSH2 0x1132 JUMP JUMPDEST PUSH2 0x127E JUMP JUMPDEST PUSH2 0x1132 JUMP JUMPDEST SWAP1 POP SWAP2 SWAP1 POP JUMP JUMPDEST PUSH0 PUSH2 0x12B2 DUP3 PUSH2 0x1287 JUMP JUMPDEST SWAP1 POP SWAP2 SWAP1 POP JUMP JUMPDEST PUSH0 PUSH2 0x12C3 DUP3 PUSH2 0x12A8 JUMP JUMPDEST SWAP1 POP SWAP2 SWAP1 POP JUMP JUMPDEST PUSH2 0x12D3 DUP2 PUSH2 0x12B9 JUMP JUMPDEST DUP3 MSTORE POP POP JUMP JUMPDEST PUSH0 PUSH1 0x20 DUP3 ADD SWAP1 POP PUSH2 0x12EC PUSH0 DUP4 ADD DUP5 PUSH2 0x12CA JUMP JUMPDEST SWAP3 SWAP2 POP POP JUMP JUMPDEST PUSH2 0x12FB DUP2 PUSH2 0x1151 JUMP JUMPDEST DUP3 MSTORE POP POP JUMP JUMPDEST PUSH0 PUSH1 0xA0 DUP3 ADD SWAP1 POP PUSH2 0x1314 PUSH0 DUP4 ADD DUP9 PUSH2 0x1106 JUMP JUMPDEST PUSH2 0x1321 PUSH1 0x20 DUP4 ADD DUP8 PUSH2 0x1106 JUMP JUMPDEST PUSH2 0x132E PUSH1 0x40 DUP4 ADD DUP7 PUSH2 0x1106 JUMP JUMPDEST PUSH2 0x133B PUSH1 0x60 DUP4 ADD DUP6 PUSH2 0x1106 JUMP JUMPDEST PUSH2 0x1348 PUSH1 0x80 DUP4 ADD DUP5 PUSH2 0x12F2 JUMP JUMPDEST SWAP7 SWAP6 POP POP POP POP POP POP JUMP JUMPDEST PUSH0 PUSH1 0x20 DUP3 ADD SWAP1 POP PUSH2 0x1365 PUSH0 DUP4 ADD DUP5 PUSH2 0x12F2 JUMP JUMPDEST SWAP3 SWAP2 POP POP JUMP JUMPDEST PUSH0 DUP3 DUP3 MSTORE PUSH1 0x20 DUP3 ADD SWAP1 POP SWAP3 SWAP2 POP POP JUMP JUMPDEST PUSH32 0x5374616B6520616D6F756E74206F7574206F662072616E676500000000000000 PUSH0 DUP3 ADD MSTORE POP JUMP JUMPDEST PUSH0 PUSH2 0x13AF PUSH1 0x19 DUP4 PUSH2 0x136B JUMP JUMPDEST SWAP2 POP PUSH2 0x13BA DUP3 PUSH2 0x137B JUMP JUMPDEST PUSH1 0x20 DUP3 ADD SWAP1 POP SWAP2 SWAP1 POP JUMP JUMPDEST PUSH0 PUSH1 0x20 DUP3 ADD SWAP1 POP DUP2 DUP2 SUB PUSH0 DUP4 ADD MSTORE PUSH2 0x13DC DUP2 PUSH2 0x13A3 JUMP JUMPDEST SWAP1 POP SWAP2 SWAP1 POP JUMP JUMPDEST PUSH32 0x53656C6620726566657272616C206E6F7420616C6C6F77656400000000000000 PUSH0 DUP3 ADD MSTORE POP JUMP JUMPDEST PUSH0 PUSH2 0x1417 PUSH1 0x19 DUP4 PUSH2 0x136B JUMP JUMPDEST SWAP2 POP PUSH2 0x1422 DUP3 PUSH2 0x13E3 JUMP JUMPDEST PUSH1 0x20 DUP3 ADD SWAP1 POP SWAP2 SWAP1 POP JUMP JUMPDEST PUSH0 PUSH1 0x20 DUP3 ADD SWAP1 POP DUP2 DUP2 SUB PUSH0 DUP4 ADD MSTORE PUSH2 0x1444 DUP2 PUSH2 0x140B JUMP JUMPDEST SWAP1 POP SWAP2 SWAP1 POP JUMP JUMPDEST PUSH32 0x4E487B7100000000000000000000000000000000000000000000000000000000 PUSH0 MSTORE PUSH1 0x11 PUSH1 0x4 MSTORE PUSH1 0x24 PUSH0 REVERT JUMPDEST PUSH0 PUSH2 0x1482 DUP3 PUSH2 0x10FD JUMP JUMPDEST SWAP2 POP PUSH2 0x148D DUP4 PUSH2 0x10FD JUMP JUMPDEST SWAP3 POP DUP3 DUP3 MUL PUSH2 0x149B DUP2 PUSH2 0x10FD JUMP JUMPDEST SWAP2 POP DUP3 DUP3 DIV DUP5 EQ DUP4 ISZERO OR PUSH2 0x14B2 JUMPI PUSH2 0x14B1 PUSH2 0x144B JUMP JUMPDEST JUMPDEST POP SWAP3 SWAP2 POP POP JUMP JUMPDEST PUSH32 0x4E487B7100000000000000000000000000000000000000000000000000000000 PUSH0 MSTORE PUSH1 0x12 PUSH1 0x4 MSTORE PUSH1 0x24 PUSH0 REVERT JUMPDEST PUSH0 PUSH2 0x14F0 DUP3 PUSH2 0x10FD JUMP JUMPDEST SWAP2 POP PUSH2 0x14FB DUP4 PUSH2 0x10FD JUMP JUMPDEST SWAP3 POP DUP3 PUSH2 0x150B JUMPI PUSH2 0x150A PUSH2 0x14B9 JUMP JUMPDEST JUMPDEST DUP3 DUP3 DIV SWAP1 POP SWAP3 SWAP2 POP POP JUMP JUMPDEST PUSH0 PUSH2 0x1520 DUP3 PUSH2 0x10FD JUMP JUMPDEST SWAP2 POP PUSH2 0x152B DUP4 PUSH2 0x10FD JUMP JUMPDEST SWAP3 POP DUP3 DUP3 ADD SWAP1 POP DUP1 DUP3 GT ISZERO PUSH2 0x1543 JUMPI PUSH2 0x1542 PUSH2 0x144B JUMP JUMPDEST JUMPDEST SWAP3 SWAP2 POP POP JUMP JUMPDEST PUSH32 0x4E487B7100000000000000000000000000000000000000000000000000000000 PUSH0 MSTORE PUSH1 0x32 PUSH1 0x4 MSTORE PUSH1 0x24 PUSH0 REVERT JUMPDEST PUSH0 PUSH2 0x1580 DUP3 PUSH2 0x10FD JUMP JUMPDEST SWAP2 POP PUSH2 0x158B DUP4 PUSH2 0x10FD JUMP JUMPDEST SWAP3 POP DUP3 DUP3 SUB SWAP1 POP DUP2 DUP2 GT ISZERO PUSH2 0x15A3 JUMPI PUSH2 0x15A2 PUSH2 0x144B JUMP JUMPDEST JUMPDEST SWAP3 SWAP2 POP POP JUMP JUMPDEST PUSH32 0x4E6F20746F6B656E7320617661696C61626C6520746F20636C61696D00000000 PUSH0 DUP3 ADD MSTORE POP JUMP JUMPDEST PUSH0 PUSH2 0x15DD PUSH1 0x1C DUP4 PUSH2 0x136B JUMP JUMPDEST SWAP2 POP PUSH2 0x15E8 DUP3 PUSH2 0x15A9 JUMP JUMPDEST PUSH1 0x20 DUP3 ADD SWAP1 POP SWAP2 SWAP1 POP JUMP JUMPDEST PUSH0 PUSH1 0x20 DUP3 ADD SWAP1 POP DUP2 DUP2 SUB PUSH0 DUP4 ADD MSTORE PUSH2 0x160A DUP2 PUSH2 0x15D1 JUMP JUMPDEST SWAP1 POP SWAP2 SWAP1 POP JUMP JUMPDEST PUSH32 0x4F6E6C792061646D696E2063616E2063616C6C20746869732066756E6374696F PUSH0 DUP3 ADD MSTORE PUSH32 0x6E00000000000000000000000000000000000000000000000000000000000000 PUSH1 0x20 DUP3 ADD MSTORE POP JUMP JUMPDEST PUSH0 PUSH2 0x166B PUSH1 0x21 DUP4 PUSH2 0x136B JUMP JUMPDEST SWAP2 POP PUSH2 0x1676 DUP3 PUSH2 0x1611 JUMP JUMPDEST PUSH1 0x40 DUP3 ADD SWAP1 POP SWAP2 SWAP1 POP JUMP JUMPDEST PUSH0 PUSH1 0x20 DUP3 ADD SWAP1 POP DUP2 DUP2 SUB PUSH0 DUP4 ADD MSTORE PUSH2 0x1698 DUP2 PUSH2 0x165F JUMP JUMPDEST SWAP1 POP SWAP2 SWAP1 POP JUMP JUMPDEST PUSH32 0x4E6F207374616B657320666F756E640000000000000000000000000000000000 PUSH0 DUP3 ADD MSTORE POP JUMP JUMPDEST PUSH0 PUSH2 0x16D3 PUSH1 0xF DUP4 PUSH2 0x136B JUMP JUMPDEST SWAP2 POP PUSH2 0x16DE DUP3 PUSH2 0x169F JUMP JUMPDEST PUSH1 0x20 DUP3 ADD SWAP1 POP SWAP2 SWAP1 POP JUMP JUMPDEST PUSH0 PUSH1 0x20 DUP3 ADD SWAP1 POP DUP2 DUP2 SUB PUSH0 DUP4 ADD MSTORE PUSH2 0x1700 DUP2 PUSH2 0x16C7 JUMP JUMPDEST SWAP1 POP SWAP2 SWAP1 POP JUMP JUMPDEST PUSH32 0x4E6F206C6576656C20696E636F6D6520746F20636C61696D0000000000000000 PUSH0 DUP3 ADD MSTORE POP JUMP JUMPDEST PUSH0 PUSH2 0x173B PUSH1 0x18 DUP4 PUSH2 0x136B JUMP JUMPDEST SWAP2 POP PUSH2 0x1746 DUP3 PUSH2 0x1707 JUMP JUMPDEST PUSH1 0x20 DUP3 ADD SWAP1 POP SWAP2 SWAP1 POP JUMP JUMPDEST PUSH0 PUSH1 0x20 DUP3 ADD SWAP1 POP DUP2 DUP2 SUB PUSH0 DUP4 ADD MSTORE PUSH2 0x1768 DUP2 PUSH2 0x172F JUMP JUMPDEST SWAP1 POP SWAP2 SWAP1 POP JUMP JUMPDEST PUSH32 0x4E6F20726566657272616C2072657761726420617661696C61626C6500000000 PUSH0 DUP3 ADD MSTORE POP JUMP JUMPDEST PUSH0 PUSH2 0x17A3 PUSH1 0x1C DUP4 PUSH2 0x136B JUMP JUMPDEST SWAP2 POP PUSH2 0x17AE DUP3 PUSH2 0x176F JUMP JUMPDEST PUSH1 0x20 DUP3 ADD SWAP1 POP SWAP2 SWAP1 POP JUMP JUMPDEST PUSH0 PUSH1 0x20 DUP3 ADD SWAP1 POP DUP2 DUP2 SUB PUSH0 DUP4 ADD MSTORE PUSH2 0x17D0 DUP2 PUSH2 0x1797 JUMP JUMPDEST SWAP1 POP SWAP2 SWAP1 POP JUMP JUMPDEST PUSH0 PUSH1 0x60 DUP3 ADD SWAP1 POP PUSH2 0x17EA PUSH0 DUP4 ADD DUP7 PUSH2 0x12F2 JUMP JUMPDEST PUSH2 0x17F7 PUSH1 0x20 DUP4 ADD DUP6 PUSH2 0x12F2 JUMP JUMPDEST PUSH2 0x1804 PUSH1 0x40 DUP4 ADD DUP5 PUSH2 0x1106 JUMP JUMPDEST SWAP5 SWAP4 POP POP POP POP JUMP JUMPDEST PUSH0 PUSH1 0x40 DUP3 ADD SWAP1 POP PUSH2 0x181F PUSH0 DUP4 ADD DUP6 PUSH2 0x12F2 JUMP JUMPDEST PUSH2 0x182C PUSH1 0x20 DUP4 ADD DUP5 PUSH2 0x1106 JUMP JUMPDEST SWAP4 SWAP3 POP POP POP JUMP INVALID LOG2 PUSH5 0x6970667358 0x22 SLT KECCAK256 0x4B COINBASE 0x22 MSTORE 0xBD CALLCODE ADDMOD 0xE5 0x2D PUSH26 0xD66C28D09AC283DA7130A0753FD725EBDD08EF642BED64736F6C PUSH4 0x4300081A STOP CALLER "
				},
				"gasEstimates": {
					"creation": {
						"codeDepositCost": "1249800",
						"executionCost": "infinite",
						"totalCost": "infinite"
					},
					"external": {
						"ReferralPercentage()": "370",
						"admin()": "2596",
						"allStakeDetails(address,uint256)": "infinite",
						"claimLevelIncome()": "infinite",
						"claimReferralReward()": "infinite",
						"claimTokens()": "infinite",
						"cliff()": "349",
						"emergencyWithdraw(uint256)": "infinite",
						"globalLevel()": "398",
						"lockToken(address,uint256)": "infinite",
						"maxAmount()": "414",
						"minAmount()": "414",
						"nlnt()": "infinite",
						"referralRewards(address)": "2847",
						"totalDuration()": "392"
					},
					"internal": {
						"distributeLevel(address,uint256)": "infinite"
					}
				},
				"methodIdentifiers": {
					"ReferralPercentage()": "7e2bc224",
					"admin()": "f851a440",
					"allStakeDetails(address,uint256)": "e1ba51fb",
					"claimLevelIncome()": "60f43fd2",
					"claimReferralReward()": "9b4b2c9c",
					"claimTokens()": "48c54b9d",
					"cliff()": "13d033c0",
					"emergencyWithdraw(uint256)": "5312ea8e",
					"globalLevel()": "5e9d2f90",
					"lockToken(address,uint256)": "17be3fa5",
					"maxAmount()": "5f48f393",
					"minAmount()": "9b2cb5d8",
					"nlnt()": "aa03875e",
					"referralRewards(address)": "53aaa63b",
					"totalDuration()": "8af6c259"
				}
			},
			"storageLayout": {
				"storage": [
					{
						"astId": 654,
						"contract": "Staking.sol:Staking",
						"label": "nlnt",
						"offset": 0,
						"slot": "0",
						"type": "t_contract(IERC20)167"
					},
					{
						"astId": 656,
						"contract": "Staking.sol:Staking",
						"label": "admin",
						"offset": 0,
						"slot": "1",
						"type": "t_address"
					},
					{
						"astId": 721,
						"contract": "Staking.sol:Staking",
						"label": "allStakeDetails",
						"offset": 0,
						"slot": "2",
						"type": "t_mapping(t_address,t_array(t_struct(Lock)715_storage)dyn_storage)"
					},
					{
						"astId": 725,
						"contract": "Staking.sol:Staking",
						"label": "referralRewards",
						"offset": 0,
						"slot": "3",
						"type": "t_mapping(t_address,t_uint256)"
					}
				],
				"types": {
					"t_address": {
						"encoding": "inplace",
						"label": "address",
						"numberOfBytes": "20"
					},
					"t_array(t_struct(Lock)715_storage)dyn_storage": {
						"base": "t_struct(Lock)715_storage",
						"encoding": "dynamic_array",
						"label": "struct Staking.Lock[]",
						"numberOfBytes": "32"
					},
					"t_contract(IERC20)167": {
						"encoding": "inplace",
						"label": "contract IERC20",
						"numberOfBytes": "20"
					},
					"t_mapping(t_address,t_array(t_struct(Lock)715_storage)dyn_storage)": {
						"encoding": "mapping",
						"key": "t_address",
						"label": "mapping(address => struct Staking.Lock[])",
						"numberOfBytes": "32",
						"value": "t_array(t_struct(Lock)715_storage)dyn_storage"
					},
					"t_mapping(t_address,t_uint256)": {
						"encoding": "mapping",
						"key": "t_address",
						"label": "mapping(address => uint256)",
						"numberOfBytes": "32",
						"value": "t_uint256"
					},
					"t_struct(Lock)715_storage": {
						"encoding": "inplace",
						"label": "struct Staking.Lock",
						"members": [
							{
								"astId": 706,
								"contract": "Staking.sol:Staking",
								"label": "nlntAmount",
								"offset": 0,
								"slot": "0",
								"type": "t_uint256"
							},
							{
								"astId": 708,
								"contract": "Staking.sol:Staking",
								"label": "start",
								"offset": 0,
								"slot": "1",
								"type": "t_uint256"
							},
							{
								"astId": 710,
								"contract": "Staking.sol:Staking",
								"label": "claimAmount",
								"offset": 0,
								"slot": "2",
								"type": "t_uint256"
							},
							{
								"astId": 712,
								"contract": "Staking.sol:Staking",
								"label": "levelIncome",
								"offset": 0,
								"slot": "3",
								"type": "t_uint256"
							},
							{
								"astId": 714,
								"contract": "Staking.sol:Staking",
								"label": "referral",
								"offset": 0,
								"slot": "4",
								"type": "t_address"
							}
						],
						"numberOfBytes": "160"
					},
					"t_uint256": {
						"encoding": "inplace",
						"label": "uint256",
						"numberOfBytes": "32"
					}
				}
			},
			"userdoc": {
				"kind": "user",
				"methods": {},
				"version": 1
			}
		}
	}
}